:020000040800F2
:1000000000800120C90100085D0700085F070008A3
:10001000610700086307000865070008000000008A
:10002000000000000000000000000000670700085A
:1000300069070008000000006B0700086D07000852
:100040001902000819020008190200081902000824
:100050001902000819020008190200081902000814
:100060001902000819020008190200081902000804
:1000700019020008190200081902000819020008F4
:1000800019020008190200081902000819020008E4
:1000900019020008190200081902000819020008D4
:1000A00019020008190200081902000819020008C4
:1000B00019020008190200081902000819020008B4
:1000C00019020008190200081902000819020008A4
:1000D0001902000819020008190200081902000894
:1000E0001902000819020008190200081902000884
:1000F0001902000819020008190200081902000874
:100100001902000819020008190200081902000863
:1001100019020008190200087907000819020008EE
:1001200019020008190200089107000819020008C6
:100130001902000819020008190200081902000833
:100140001902000819020008190200081902000823
:100150001902000819020008190200081902000813
:100160001902000819020008190200081902000803
:100170001902000819020008190200080000000016
:08018000190200081902000831
:1001880010B5054C237833B9044B13B10448AFF3C9
:1001980000800123237010BD08000020000000002B
:1001A8008027000808B5034B1BB103490348AFF388
:1001B800008008BD000000000C0000208027000817
:1001C800DFF834D0002103E00C4B5B584350043176
:1001D8000B480C4B42189A42F6D30B4A02E0002314
:1001E80042F8043B094B9A42F9D300F0D5FA02F0E1
:1001F8009FFA00F0AFF9FEE7008001209028000880
:100208000000002008000020080000206C010020E9
:10021800FEE7000082B00A4BDA6C42F00402DA64AE
:10022800DA6C02F004020092009ADA6C42F00102E1
:10023800DA64DB6C03F001030193019B02B07047A1
:100248000010024000B583B00A4B9A6C42F00202DB
:100258009A649B6C03F002030193019B00221146F0
:100268003A2001F091F83A2001F0C2F803B05DF8A5
:1002780004FB00BF0010024010B5334B1B680A2B6B
:1002880052D0314A51683148006801445160013305
:1002980013602E4B1A682C4BD9681144D960196920
:1002A8001144196159691144596199691144996155
:1002B800D9691144D961196A11441962596A1144FA
:1002C8005962996A11449962D96A1144D962196BC1
:1002D8000A441A63586B03EB8004E2681C49A1FBCB
:1002E80002219A68C2EBD10202EB42025100C1F529
:1002F800FA6218490A600021E160013058630A284F
:100308001FD0B2F5805F02D3124B00221A60114B46
:100318001B6800221146104801F0E2F801220B493F
:100328000E4800F0FBFE10BD074A53680C4981FBDC
:100338000301DB17C3EBA103936000231360536031
:10034800A7E75963DDE700BF24000020640100200F
:10035800CDCCCCCC700000205C00002074000020C4
:1003680067666666FEE7000000B585B01148124B67
:10037800036000234360836040F6C642C260836125
:1003880002F086F958B9202301930023039301A9A9
:10039800084802F097F938B905B05DF804FB40F257
:1003A8005F110648FFF7DEFF4FF4B3710348FFF70C
:1003B800D9FF00BF2401002000100040E0270008FA
:1003C80000B58BB02448254B03604FF4803343605D
:1003D80000238360C3600361042242618361C361B7
:1003E8000122026243628262C362036342638363DF
:1003F800C2630821016443648364C26400F030FA74
:10040800D8B90AA9002341F80C3D134800F01AFF97
:10041800C0B9134B019306230293012303937F234F
:100428000493042305930023069301A90A4800F0C6
:10043800C1FB60B90BB05DF804FB4FF48E7109483D
:10044800FFF790FF4FF492710648FFF78BFF40F2D9
:1004580031110448FFF786FF7400002000000450A3
:1004680002003004E027000800B58BB00F48104B9D
:10047800036000F0F4FF78B900220192042302938C
:100488000392049205920DEB0301084801F078F8F5
:1004980038B90BB05DF804FB40F241110548FFF78D
:1004A80061FF40F24D110348FFF75CFF5C0000203C
:1004B80000740040E027000800B597B002230593B8
:1004C8004FF480720892102209920F931093012220
:1004D80011920A221292072213921493159305A8D7
:1004E80001F018FC28BB0F2300930323019300237A
:1004F8000293039304930421684601F0CBFEE0B90C
:100508004FF4007001F0F6FAD8B901F06BFF0F4B09
:10051800A3FB0030800900F077FF042000F08AFF79
:10052800002211464FF0FF3000F02EFF17B05DF8A3
:1005380004FBD9210648FFF715FFE7210448FFF718
:1005480011FFEE210248FFF70DFF00BFD34D6210E7
:10055800E027000808B500F059F9FFF7ADFFFFF7ED
:1005680059FEFFF76FFEFFF7FFFEFFF729FFFFF7C2
:100578007BFF01220549064800F0D0FD054801F03F
:1005880037FF0021044800F07CFFFEE764010020EB
:1005980074000020240100205C00002000B583B016
:1005A800214B1A6E42F001021A661A6E02F001021D
:1005B8000092009A9A6D42F080529A659B6D03F002
:1005C80080530193019B032000F0CCFE00221146CA
:1005D8006FF00B0000F0D8FE002211466FF00A0001
:1005E80000F0D2FE002211466FF0090000F0CCFEA8
:1005F800002211466FF0040000F0C6FE00221146EA
:100608006FF0030000F0C0FE002211466FF00100F9
:1006180000F0BAFE002211464FF0FF3000F0B4FEA1
:1006280003B05DF804FB00BF0010024002681F4BD6
:100638009A4200D0704730B587B0044603F1704342
:10064800A3F5F833DA6C42F40052DA64DB6C03F495
:1006580000530093009B012301930B230293002571
:10066800039501A9124801F053F91248124B03608F
:1006780045608560C560802303614FF480734361E2
:100688004FF4806383612023C3614FF400530362F6
:1006980001F024F820B9074B23659C6207B030BDF0
:1006A80074210648FFF75EFEF5E700BF000004501E
:1006B80000080048DC000020300402402828000818
:1006C8000268134B9A4200D0704710B586B003F504
:1006D800CE339A6D42F000529A659B6D03F0005339
:1006E8000093009B10230193032302930024039497
:1006F80001A94FF0904001F00BF92246214636201F
:1007080000F042FE362000F073FE06B010BD00BFB8
:100718000074004002680E4B9A4200D0704700B542
:1007280083B003F500339A6D42F010029A659B6D11
:1007380003F010030193019B00221146362000F0BC
:1007480023FE362000F054FE03B05DF804FB00BF22
:10075800001000407047FEE7FEE7FEE7FEE770473F
:100768007047704708B500F05DF800F074FE08BDEA
:1007780008B5034801F05BFE024800F0C9FE08BD59
:10078800240100205C00002008B5024801F05DF853
:1007980008BD00BFDC0000200F49D1F8883043F4C1
:1007A8007003C1F888300D4B1A6842F001021A60D4
:1007B800002098601A6822F0A85222F410221A60C9
:1007C8004FF48052DA601A6822F480221A60986125
:1007D8004FF000638B60704700ED00E000100240AE
:1007E80010B50446074B1868074BA3FB0030800977
:1007F80000F00AFE002221464FF0FF3000F0C4FD51
:10080800002010BD00000020D34D621008B5032061
:1008180000F0A8FD0020FFF7E3FFFFF7BFFE002070
:1008280008BD0000024A136801331360704700BF17
:1008380068010020014B1868704700BF680100205C
:1008480038B50446FFF7F6FF0546B4F1FF3F00D080
:100858000134FFF7EFFF401BA042FAD338BD000078
:1008680030B583B000230193002800F03B81044693
:10087800836D13B323689A6812F0005F05D09A68F5
:1008880022F0204222F03F029A602268936813F017
:10089800805F1FD1936823F0104323F03F0343F098
:1008A80080539360904B1B68904AA2FB0323DB0C98
:1008B80003EB83035A00019209E0FFF7B7FE002318
:1008C800E36584F85430D5E7019B013B0193019B14
:1008D800002BF9D123689A6812F0805F34D1A26D99
:1008E80042F01002A265E26D42F00102E2650120C9
:1008F800A26D12F0100F40F0EE809A6812F0040F0B
:1009080040F0E980A26D22F4817242F00202A265F1
:100918009A6802F00302012A18D0754A93421AD045
:10092800744A934237D0724B9B6803F00303012B40
:1009380052D00023002B5FD16E4B9B6803F003035A
:10094800012B52D0002358E00020D1E71A6812F09A
:10095800010F5CD1E1E7674B9B6803F00303012BB0
:1009680009D0654B9B6803F00303012B0AD00023D1
:1009780083F0010343E05F4B1B6813F0010FF0D0D5
:100988000123F5E75C4B1B6813F0010F01D100232D
:10099800EEE70123ECE7564B9B6803F00303012BBA
:1009A8000AD0554B9B6803F00303012B0BD000239F
:1009B800002BC1D0012320E04D4B1B6813F0010F21
:1009C800EFD00123F4E74C4B1B6813F0010F01D162
:1009D8000023EDE70123EBE7454B1B6813F0010FFC
:1009E80001D10023A6E70123A4E7424B1B6813F0BB
:1009F800010F4ED1002300E0012383F0010333B13E
:100A080063683E498A6822F47C1213438B60E2696A
:100A1800A36B43EA4233E2681343A2681343626A52
:100A280043EA0243012A36D0E26A22B102F4707224
:100A3800216B0A4313432168CD68314A2A40134386
:100A4800CB602268936813F00C0F13D1A169636B14
:100A58005B0043EA8131D36823F4804323F0020327
:100A68000B43D360E36B012B1AD02268136923F080
:100A7800010313612369012B24D02268136B23F02F
:100A88000F031363A36D23F0030343F00103A3656E
:100A980026E00123B1E7A26A013A43EA4243C3E7E9
:100AA80021680B6923F4FF6323F00403226C656C4F
:100AB8002A43A56C2A43E56C2A43134343F00103F8
:100AC8000B61D7E721680B6B23F00F03226A013A09
:100AD80013430B63D6E7A36D43F01003A36501200E
:100AE80003B030BD0120FBE70000002083DE1B437C
:100AF8000000045000010450000204500003045098
:100B080007C0F0FF704708B5806AFFF7FBFF08BD14
:100B1800704708B5836A9A6D12F0500F31D19A6DFB
:100B280042F400729A651A68116811F0080F14D01F
:100B3800D16811F4406F20D1D26812F4005F1CD143
:100B48009A6D22F480729A659A6D12F4805F14D1BE
:100B58009A6D42F001029A650FE0D26812F0020F16
:100B68000BD19A6D22F480729A659A6D12F4805FA7
:100B780003D19A6D42F001029A651846FFF77CFB93
:100B880008BD9A6D12F0100F03D11B6D5B6B98476F
:100B9800F6E71846FFF7BCFFF2E708B5806A836DF1
:100BA80043F040038365C36D43F00403C365FFF757
:100BB800AFFF08BDF0B583B00022019290F8542031
:100BC800012A00F03C820346012280F85420026882
:100BD800926812F0040F40F028824A68052A08D863
:100BE800023A032A5CD8DFE802F0025154570C227B
:100BF8004A601D684C680868303504F440764FF444
:100C0800407292FAA2F2B2FA82F2D64055F8262041
:100C180004F01F041F27A74022EA0702C0F38460DC
:100C2800A040024345F826201A68906810F00C0F7F
:100C380039D01C68A26802F00302012A00F0C980BA
:100C48000A68CD68D4F8B000C2F3120620EA06009C
:100C580005F02006BE4DB5402A40C2F312020243F9
:100C6800C4F8B020C868BB4A904200F0B8800A684F
:100C7800B9498A4200F05581B8498A4200F0628138
:100C8800B7498A4200F072810020D3E112224A60FB
:100C9800AFE718224A60ACE74FF480724A60A8E7D1
:100CA80006224A60A5E708688C68143200F00077CD
:100CB8004FF0007595FAA5F5B5FA85F5EF4052F8AD
:100CC800275000F0F87C4FF0F87090FAA0F6B6FACA
:100CD80086F62CFA06F64FF0070E0EFA06F625EA07
:100CE800060590FAA0F0B0FA80F02CFA00F08440E3
:100CF8002C4342F8274048691C68E268C2F3C102E5
:100D0800520000FA02F20D69042D0ED00E6860340C
:100D180054F825709348384006F0F846324310439B
:100D280040F0004044F8250083E7206EC0F3846556
:100D38000A68C2F3120666BBC2F3846295422DD0DC
:100D48001C68606EC0F384650A68C2F312064EBB65
:100D5800C2F3846295422AD01C68A06EC0F38465F1
:100D68000A68C2F3120636BBC2F38462954227D0E2
:100D78001C68E06EC0F384650A68C2F312061EBBE5
:100D8800C2F3846295427FF454AF20F00040E066DD
:100D98004FE792FAA2F2B2FA82F2CFE720F00040CF
:100DA8002066CDE792FAA2F2B2FA82F2D2E720F0F8
:100DB80000406066D0E792FAA2F2B2FA82F2D5E772
:100DC80020F00040A066D3E792FAA2F2B2FA82F2CB
:100DD800D8E7226812F0010F7FF449AF30E71C68AA
:100DE8000A68C2F31205002D48D1C2F384600130AD
:100DF80009288CBF00200120002861D0002D47D190
:100E0800C2F3846001308006002D48D1C2F38466A5
:100E1800771C0126BE403043002D48D1C2F38462BE
:100E2800013202EB4202120502438D68143402F0CB
:100E3800007C4FF0007090FAA0F0B0FA80F02CFA25
:100E480000FC54F82C6002F0F8724FF0F87090FA39
:100E5800A0F7B7FA87F722FA07F74FF0070E0EFA4E
:100E680007F726EA070690FAA0F0B0FA80F022FA0F
:100E780000F08540354344F82C50F8E692FAA2F089
:100E8800B0FA80F0013009288CBF00200120B3E7B8
:100E980092FAA2F0B0FA80F001308006B4E792FA34
:100EA800A2F6B6FA86F6771C0126BE40B3E792FA98
:100EB800A2F2B2FA82F2013202EB42021205B3E761
:100EC800ADB9C2F3846001308006BDB9C2F384664F
:100ED800771C0126BE403043C5B9C2F3846202EBD9
:100EE80042021B3A120542F0007202439DE792FA51
:100EF800A2F0B0FA80F001308006E6E792FAA2F696
:100F0800B6FA86F6771C0126BE40E4E792FAA2F20A
:100F1800B2FA82F202EB42021B3A120542F0007268
:100F2800E3E71149896811F4000F7FF4A5AE0A4977
:100F38008A4222D009498A424CD009498A4261D062
:100F4800002077E00849896811F0807FEFD097E6A4
:100F5800FFFF070000007F40000052C7000084CB5D
:100F68000100008000F0FF03000304503549896840
:100F780011F4800FDBD000205CE01A6832498A4205
:100F880005D001F500718A4201D0002052E02D49B8
:100F98008A6802F0E07242F40002886820F0E0708B
:100FA80002438A60294A1268A1F14E61A1F5022123
:100FB800A1F27D41A1FB0212D20CC2EB0212D100B8
:100FC800019102E0019A013A0192019A002AF9D1AD
:100FD80000202FE01A68A1F1F7418A4205D001F5F7
:100FE80000718A4201D0002024E016498A6802F084
:100FF800E07242F08072886820F0E07002438A60F4
:10100800002017E01968104A914201D0002011E031
:101018000C498A6802F0E07242F48002886820F085
:10102800E07002438A60002004E0826D42F02002F2
:1010380082650120002283F8542003B0F0BD02200D
:10104800FBE700BF0003045000000450000000202C
:1010580030B583B00023019303689A6802F0030255
:10106800012A16D099682A4A114218D19A6822F0A2
:10107800004222F03F0242F001029A60254B1B68B1
:10108800254AA2FB0323DB0C03EB83035A000192DE
:1010980013E01A6812F0010FE4D0002008E0836D15
:1010A80043F010038365C36D43F00103C36501205A
:1010B80003B030BD019B013B0193019B002BF9D18B
:1010C8000446FFF7B7FB054604E0FFF7B3FB401BF8
:1010D800022811D823681A6812F0010F16D19A68ED
:1010E80012F0010FF1D19A6822F0004222F03F027B
:1010F80042F001029A60E8E7A36D43F01003A3658C
:10110800E36D43F00103E3650120D1E70020CFE759
:101118003F0000800000002083DE1B43F8B5046810
:10112800A56815F0040F7DD190F85430012B7CD0C0
:10113800012380F854303E4B9C4256D003F580730F
:101148009C4252D016460F460446FFF781FF0546DB
:10115800002863D1A36D23F4706323F0010343F4E3
:101168008073A3652368324A934208D002F500725F
:10117800934204D02F4B9B6813F01F0F03D1A36D2C
:1011880023F48013A365A36D13F4805F43D0E36D4C
:1011980023F00603E365236D274ADA62236D274AA5
:1011A8001A63236D264A5A6323681C221A60002397
:1011B80084F854302268536843F01003536022685F
:1011C800D36843F00103D360216833463A4640317F
:1011D800206D00F0FFFA2268936823F0004323F0A3
:1011E8003F0343F0040393601DE0124B9B6813F028
:1011F8001F0FA7D00F4B9B6803F01F03052BA1D02F
:101208000C4B9B6803F01F03092B9BD0002380F82D
:101218005430012507E00023E365BCE7002384F888
:10122800543000E002252846F8BD0225FBE700BF40
:1012380000000450000304501B0B00080F0B0008AB
:10124800A30B000890F85420012A00F0858070B4A0
:101258009BB00346012280F8542002683F4882422E
:1012680031D0002000900098002830D0926812F009
:10127800040F66D1826812F0040F62D10A68002A4E
:101288003AD0374DAA6822F460424C685E6B44EA53
:1012980046342243AA601C68A26802F00302012AAD
:1012A8001ED0826802F00302012A1FD02C4CA268CB
:1012B80022F4716222F00F020868896801430A4328
:1012C800A260002042E000F580700090CBE79A6DA4
:1012D80042F020029A65002283F85420012038E069
:1012E800226812F0010FDCD000202FE0026812F013
:1012F800010FDBD0002029E019498A6822F46042F6
:101308008A6019688A6802F00302012A0DD082688F
:1013180002F00302012A0ED011498A6822F4716290
:1013280022F00F028A60002010E00A6812F0010F14
:10133800EDD000200AE0026812F0010FECD0002086
:1013480004E09A6D42F020029A650120002283F899
:1013580054201BB070BC7047022070470000045036
:1013680000030450074AD36823F4E0631B041B0CF2
:10137800000200F4E060184340F0BF6040F4003021
:10138800D060704700ED00E030B4174BDB68C3F362
:101398000223C3F10704042C28BF04241D1D062DB5
:1013A80018D9033B4FF0FF3505FA04F421EA04018C
:1013B800994005FA03F322EA0303194300280BDBDB
:1013C8000901C9B200F1604000F5614080F80013DE
:1013D80030BC70470023E5E700F00F000901C9B2EF
:1013E800024B1954F4E700BF00ED00E014ED00E0F3
:1013F80000F01F02400901239340024A42F82030BE
:10140800704700BF00E100E00138B0F1807F0AD2E8
:10141800064B5860064AF02182F823100020986095
:1014280007221A6070470120704700BF10E000E0F3
:1014380000ED00E0042805D0054A136823F00403F2
:1014480013607047024A136843F00403136070473F
:1014580010E000E0704708B5FFF7FCFF08BD70B169
:1014680010B50446037933B10223237100202061AB
:101478000123237110BD4371FFF722F9F4E701201E
:1014880070474379012B29D010B4012343710222FC
:101498000271046822688B401343236091B9026883
:1014A800136803F03C033C2B07D00123037100238E
:1014B800437118465DF8044B7047536843F00103C5
:1014C8005360F2E70268136803F47013B3F5701FF2
:1014D800EBD1536843F002035360E6E702207047FC
:1014E80010B483B0002401940068019051B10199AF
:1014F8000A4414320192019A1360002003B05DF887
:10150800044B704701990A4408320192F3E7704787
:1015180010B5044603681A6812F4005F03D05A6BCA
:1015280012F4005F09D123681A6812F0005F03D033
:101538005A6B12F0005F11D110BD042202710269CA
:1015480042F0010202614FF400525A6302681368C4
:1015580023F480531360FFF7DAFFE4E704222271D3
:10156800226942F0020222614FF000525A63226857
:10157800136823F080531360204600F095F8DBE7EA
:10158800F8B54379012B00F08D8015460E460446C8
:1015980001234371022303710B68042B30D0336994
:1015A800012B74D02168CB6B0722AA4023EA0202E0
:1015B8003368B0680343F0680343AB401343CB631D
:1015C80021680B684FF48042AA4023EA02030B60AB
:1015D80021680B6840F6FC72AA4023EA020273688D
:1015E800AB4013430B6021680B68C02202FA05F573
:1015F80023EA05050D600123237100206071F8BD01
:1016080072B123685B6B002B25DAFFF713F9012809
:10161800F7D9236943F00803236103202071EEE71B
:10162800FFF708F9074623685B6B13F4004F0BD0EC
:10163800FFF700F9C01B0128F5D9236943F0080317
:10164800236103202071DAE70120FFF7F9F8236806
:10165800B2691A6405E00120FFF7F2F82368B2695D
:101668005A6421688B6C40F2FF32AA4023EA0203D5
:10167800F269AA4013438B642168CB6CFF22AA400D
:1016880023EA0203326AAA401343CB6487E721683E
:101698008B6B1F22AA4023EA02027369AB401343F3
:1016A8008B637FE70220AAE7704770B4446C04F0AC
:1016B8001C05066C0124AC40746004686360836890
:1016C800102B05D0036899600368DA6070BC704716
:1016D80003689A600368D960F8E70000002869D0B9
:1016E80010B403460168344A914245D8334A0A4443
:1016F8003349A1FB0212120992004264314A026482
:10170800022283F825201868016821F4FF4121F09E
:1017180070019A68DC6822431C6922435C69224391
:101728009C692243DC6922431C6A22430A43026003
:101738009A68B2F5804F15D0196C224A914226D08A
:10174800214A1168586C00F01C040F20A04021EABF
:1017580000011160116858685C6C04F01C04A0401A
:10176800014311600020D863012283F8252083F803
:1017780024005DF8044B7047144A0A441049A1FB41
:101788000212120992004264114A0264B8E7A832B0
:101798001168586C00F01C040F20A04021EA0001D9
:1017A8001160116858685C6C04F01C04A040014387
:1017B8001160D7E70120704707040240F8FFFDBF1A
:1017C800CDCCCCCC00000240A8040240F8FBFDBF01
:1017D8000004024038B590F82440012C33D001248D
:1017E80080F8244090F82540E4B2012C04D000236E
:1017F80080F82430022038BD0446022084F82500F1
:101808000020E0632568286820F001002860204651
:10181800FFF74BFF236B5BB12268136843F00E039D
:1018280013602268136843F0010313600020E2E7A5
:101838002268136823F0040313602268136843F0D6
:101848000A031360EDE70220D5E738B5036C196881
:1018580004682568436C03F01C0304229A400A427A
:1018680015D015F0040F12D0236813F0200F03D100
:10187800236823F004032360436C03F01C02016C0B
:10188800042393404B60036B03B1984738BD022291
:101898009A400A421CD015F0020F19D0236813F0A1
:1018A800200F06D1236823F00A032360012380F860
:1018B8002530436C03F01C02016C022393404B60FB
:1018C800002380F82430C36A002BDFD09847DDE777
:1018D800082202FA03F30B42D8D015F0080FD5D02E
:1018E800236823F00E032360436C03F01C03016C90
:1018F800012202FA03F34B60C26380F8252000231B
:1019080080F82430436B002BC0D09847BEE7000016
:10191800F0B482B0002341E0D0F82CC02CEA040CCB
:10192800C6F3C0049C4044EA0C04C46286E0062462
:1019380000E00024B4403C430235664E46F825409A
:10194800654C2568D44304EA05064F6817F4803FC0
:1019580001D042EA0506604D2E606D6804EA05066E
:101968004F6817F4003F01D042EA05065A4D6E60F1
:10197800AD6804EA05064F6817F4801F01D042EAF3
:101988000506554DAE60ED682C404E6816F4001FF4
:1019980001D042EA0504504AD46001330A6832FA99
:1019A80003F400F0938001249C402240F5D04D6858
:1019B800022D01D0122D10D1DE08083650F826C0AD
:1019C80003F00705AF000F25BD402CEA050C0D6993
:1019D800BD4045EA0C0540F8265006685F0003251F
:1019E800BD40ED4305EA060C4E6806F00306BE400E
:1019F80046EA0C0606604E6806F1FF3CBCF1010F92
:101A080003D9112E01D0122E11D1866805EA060CD1
:101A1800CE68BE4046EA0C068660466826EA040C94
:101A28004E68C6F300169E4046EA0C0646604E68AD
:101A380006F0030CBCF1030F3FF46EAFC4682540F9
:101A48008C68BC402C43C4604C6814F0805FA4D000
:101A5800224C256E45F001052566246E04F001042C
:101A68000194019C9D08AE1C1A4C54F8267003F092
:101A78000304A6000F24B44027EA0407B0F1904FEE
:101A88003FF457AF164CA04216D004F58064A0422C
:101A980014D004F58064A04212D004F58064A042FA
:101AA80010D004F58064A0420ED004F58064A042F2
:101AB8003FF43DAF07243DE701243BE7022439E723
:101AC800032437E7042435E7052433E702B0F0BCE4
:101AD800704700BF000001400004014000100240B0
:101AE80000040048024B186800F4C060704700BF4B
:101AF80000700040B0F5007F0FD0204B1B6803F446
:101B0800C063B3F5806F37D01C4A136823F4C063F1
:101B180043F48063136000207047184B1B6803F47C
:101B2800C063B3F5007F25D0144A136823F4C0635B
:101B380043F400731360124B1B6802F1467202F5FE
:101B48005B3202F28322A2FB03239A0C322303FBAB
:101B580002F300E0013B23B1084A526912F4806F96
:101B6800F8D1064B5B6913F4806F01D100207047F0
:101B78000320704700207047002070470070004025
:101B88000000002030B583B00546204B9B6D13F054
:101B9800805F0BD0FFF7A6FFB0F5007F17D0802D30
:101BA8001FD82DD0702D2DD000211BE0174CA36D10
:101BB80043F08053A365A36D03F080530193019B09
:101BC800FFF790FFA36D23F08053A365E4E7802D12
:101BD80003D9A02D03D9022104E0002102E001214C
:101BE80000E003210A4A136823F007030B4313603C
:101BF800136803F007038B4206D0012003B030BD01
:101C08000221EFE70121EDE70020F7E7001002408D
:101C1800002002403B4B9B6813F00C0F1AD0394B45
:101C28009B6803F00C030C2B0ED0364B9B6803F01B
:101C38000C03042B2FD0334B9B6803F00C03082BA9
:101C48002CD00020014618E02E4BDB6803F003037C
:101C5800012BEAD12B4B1B6813F0080F14D1294B29
:101C6800D3F89430C3F30323274A52F82310254BA3
:101C78009B6813F00C0F0CD00020224A936803F0E5
:101C88000C030C2B0DD070471E4B1B68C3F30313BA
:101C9800EAE70846F1E71D480021EEE71C48002165
:101CA800EBE71346D26802F00302DB68C3F30213C2
:101CB8000133022A0AD0032A1AD0B1FBF3F3114ADE
:101CC800D068C0F3062000FB03F008E00F48B0FB23
:101CD800F3F30C4AD068C0F3062000FB03F0094B6D
:101CE800DB68C3F3416301335B00B0FBF3F0CAE781
:101CF8000748B0FBF3F3034AD068C0F3062000FBA3
:101D080003F0ECE700100240982700080024F400D4
:101D180000127A00002800F0A88270B582B004464C
:101D2800036813F0100F3FD0974B9B6813F00C0F0C
:101D380040F09280944B1B6813F0020F03D0836924
:101D4800002B00F09982206A8F4B1B6813F0080F54
:101D580062D08D4B1B6803F0F003984263D9FFF7FC
:101D680011FF002840F08A82874B1A6842F0080267
:101D78001A601A6822F0F002216A0A431A605A6847
:101D880022F47F42E16942EA01225A60FFF742FFEA
:101D98007D4B9B68C3F303137C4AD35CD8407C4BD0
:101DA80018600020FEF71CFD236813F0010F00F0F7
:101DB800A180754B9B6803F00C03082B00F0918001
:101DC800714B9B6803F00C030C2B00F08380636855
:101DD800B3F5803F00F0B580B3F5A02F00F0B780D1
:101DE800694B1A6822F480321A601A6822F4802239
:101DF8001A606368002B00F0B780FEF71BFD0546EC
:101E0800614B1B6813F4003F74D1FEF713FD401BB0
:101E18006428F5D9032038E25B4BD3F894301B09CA
:101E280003F0F00399E7584B1A6842F008021A6069
:101E38001A6822F0F002216A0A431A605A6822F4EA
:101E48007F42E16942EA01225A60206AFFF79AFE5E
:101E580000289BD0012018E2836933B34A4A1368EB
:101E680043F001031360FEF7E5FC0546464B1B688B
:101E780013F0020F06D1FEF7DDFC401B0228F5D94E
:101E8800032002E2404B1A6842F008021A601A68FE
:101E980022F0F002216A0A431A605A6822F47F424B
:101EA800E16942EA01225A607EE7374A136823F063
:101EB80001031360FEF7BEFC0546334B1B6813F0A5
:101EC800020F3FF471AFFEF7B5FC401B0228F4D9AE
:101ED8000320DAE12C4BDB6803F00303032B7FF4C8
:101EE80076AF294B1B6813F4003F03D06368002BBF
:101EF80000F0C681236813F0020F62D0224B9B6862
:101F080003F00C03042B4BD01F4B9B6803F00C030E
:101F18000C2B3FD0E368002B79D01B4A136843F49D
:101F280080731360FEF786FC0546174B1B6813F495
:101F3800806F63D1FEF77EFC401B0228F5D9032091
:101F4800A3E1114A136843F48033136051E703F1A6
:101F58008043A3F53C331A6842F480221A601A6859
:101F680042F480321A6044E7FEF764FC0546064BEB
:101F78001B6813F4003FBDD0FEF75CFC401B6428CF
:101F8800F5D9032081E100BF00100240C8270008EE
:101F980000000020B64BDB6803F00303022BB9D125
:101FA800B34B1B6813F4806F03D0E368002B00F079
:101FB8006981AF4A536823F0F853216943EA016302
:101FC8005360236813F0080F4CD063699BB3A84A89
:101FD800D2F8943043F00103C2F89430FEF72AFC9B
:101FE8000546A34BD3F8943013F0020F3AD1FEF70D
:101FF80021FC401B0228F4D9032046E19C4A53687F
:1020080023F0F853216943EA01635360D9E7984AFA
:10201800136823F480731360FEF70CFC0546944B99
:102028001B6813F4806FCCD0FEF704FC401B022819
:10203800F5D9032029E18E4AD2F8943023F0010320
:10204800C2F89430FEF7F6FB0546894BD3F8943076
:1020580013F0020F06D0FEF7EDFB401B0228F4D95F
:10206800032012E1236813F0040F7BD0804B9B6D93
:1020780013F0805F36D17E4B9A6D42F080529A659C
:102088009B6D03F080530193019B0125794B1B68DD
:1020980013F4807F28D0A368012B39D0052B3FD0BB
:1020A800734BD3F8902022F00102C3F89020D3F8A4
:1020B800902022F00402C3F89020A368002B3DD0A2
:1020C800FEF7B8FB06466A4BD3F8903013F0020FC0
:1020D80046D1FEF7AFFB801B41F288339842F2D914
:1020E8000320D2E00025D1E7624A136843F48073E5
:1020F8001360FEF79FFB06465E4B1B6813F4807F58
:10210800C9D1FEF797FB801B0228F5D90320BCE054
:10211800574AD2F8903043F00103C2F89030CCE728
:10212800534BD3F8902042F00402C3F89020D3F820
:10213800902042F00102C3F89020BEE7FEF77AFB38
:1021480006464B4BD3F8903013F0020F08D0FEF739
:1021580071FB801B41F288339842F2D9032094E046
:10216800002D35D1A36A002B00F08E80404A92687A
:1021780002F00C020C2A00F08A80022B2ED03C4B75
:102188001A6822F080721A601B6813F0006F09D178
:10219800374B1B6813F0005F04D1354AD36823F02E
:1021A8000303D360324AD36823F0887323F480335F
:1021B800D360FEF73FFB04462D4B1B6813F0007FEE
:1021C80051D0FEF737FB001B0228F5D903205CE04D
:1021D800274A936D23F080539365C3E7244A136815
:1021E80023F080731360FEF725FB0546204B1B6820
:1021F80013F0007F06D0FEF71DFB401B0228F5D91F
:10220800032042E0236B5A1E636B1B0243EA02134E
:10221800A26B120943EA4243E26A1343E26B520893
:10222800013A43EA4253226C5208013A43EA4263B4
:102238000F4AD360136843F080731360D36843F088
:102248008073D360FEF7F6FA0446094B1B6813F057
:10225800007F06D1FEF7EEFA001B0228F5D903200D
:1022680013E0002011E000200FE00120704700BFBC
:102278000010024000700040012006E0012004E048
:10228800012002E0012000E0002002B070BD012022
:10229800FBE700BF002800F0998070B504464D4B5D
:1022A8001B6803F007038B420CD24A4A136823F0D9
:1022B80007030B431360136803F007038B4201D035
:1022C800012070BD0D46236813F0010F39D06368F3
:1022D800032B09D0022B26D063BB3F4A126812F0A9
:1022E800020F06D10120ECE73B4A126812F0007F8A
:1022F8006ED039498A6822F0030213438B60FEF7D7
:1023080099FA0646344B9B6803F00C036268B3EBFA
:10231800820F16D0FEF78EFA801B41F2883398425E
:10232800F0D90320CDE72C4A126812F4003FE0D11F
:102338000120C6E7284A126812F4806FD9D101201B
:10234800BFE7236813F0020F06D0234A936823F0EF
:10235800F003A1680B4393601E4B1B6803F007034F
:10236800AB420CD91B4A136823F007032B431360B5
:10237800136803F00703AB4201D00120A1E72368EB
:1023880013F0040F06D0144A936823F4E063E1685D
:102398000B439360236813F0080F07D00E4A936825
:1023A80023F46053216943EAC1039360FFF732FCC9
:1023B800094B9B68C3F30313084AD35CD840084B06
:1023C80018600020FEF70CFA00207AE70120704719
:1023D800012076E70020024000100240C8270008CC
:1023E80000000020014B1868704700BF0000002063
:1023F800022380F83D3002689168094B0B40062B98
:1024080009D09168064B0B40B3F5803F03D01368A1
:1024180043F001031360012380F83D30002070472A
:10242800070001007047704770477047704710B544
:10243800044603681A6912F0020F11D0DA6812F024
:10244800020F0DD06FF002021A61012303770368AF
:102458009B6913F0030F79D0FFF7E6FF002323777A
:1024680023681A6912F0040F12D0DA6812F0040F08
:102478000ED06FF004021A610223237723689B6948
:1024880013F4407F68D02046FFF7CEFF0023237760
:1024980023681A6912F0080F12D0DA6812F0080FD0
:1024A8000ED06FF008021A61042323772368DB69D2
:1024B80013F0030F57D02046FFF7B6FF002323770A
:1024C80023681A6912F0100F12D0DA6812F0100F90
:1024D8000ED06FF010021A61082323772368DB6996
:1024E80013F4407F46D02046FFF79EFF0023237752
:1024F80023681A6912F0010F03D0DA6812F0010F8D
:102508003FD123681A6912F0800F03D0DA6812F0FD
:10251800800F3DD123681A6912F4807F03D0DA68EE
:1025280012F0800F3BD123681A6912F0400F03D0D4
:10253800DA6812F0400F39D123681A6912F0200FB7
:1025480003D0DA6812F0200F37D110BDFFF76BFF08
:102558002046FFF76AFF81E72046FFF764FF204621
:10256800FFF763FF92E72046FFF75DFF2046FFF77E
:102578005CFFA3E72046FFF756FF2046FFF755FF0D
:10258800B4E76FF001021A612046FFF74BFFB8E786
:102598006FF080021A61204600F0C7F8BAE76FF4BE
:1025A80080721A61204600F0C1F8BCE76FF0400263
:1025B8001A612046FFF73AFFBEE76FF020021A6162
:1025C800204600F0B1F8C0E70368304A904212D0C4
:1025D800B0F1804F0FD0A2F5943290420BD002F5A3
:1025E8008062904207D002F58062904203D002F5E3
:1025F8009432904203D123F070034A681343234A6C
:1026080090421ED0B0F1804F1BD0A2F59432904278
:1026180017D002F58062904213D002F58062904292
:102628000FD002F5943290420BD002F540629042EE
:1026380007D002F58062904203D002F58062904292
:1026480003D123F44073CA68134323F080034A6913
:10265800134303608B68C3620B6883620B4B984219
:102668000FD003F5006398420BD003F540639842FE
:1026780007D003F58063984203D003F5806398423E
:1026880001D10B690363012343617047002C0140AA
:10269800A8B110B5044690F83D305BB1022384F828
:1026A8003D30211D2068FFF78FFF012384F83D305E
:1026B800002010BD80F83C30FEF72CF8EEE7012032
:1026C8007047000090F83C30012B28D030B401232B
:1026D80080F83C30022380F83D30026853689568E2
:1026E800104CA24203D004F50064A24203D123F4A3
:1026F80070034C68234323F070030C68234325F0D0
:10270800800489682143536003689960012380F835
:102718003D30002380F83C30184630BC704702201A
:10272800704700BF002C0140704770477047000099
:1027380070B50D4E0D4CA41BA4100025A54209D15F
:102748000B4E0C4C00F018F8A41BA4100025A54251
:1027580005D170BD56F8253098470135EEE756F893
:10276800253098470135F2E78028000880280008BE
:102778008028000884280008F8B500BFF8BC08BC09
:102788009E467047F8B500BFF8BC08BC9E46704727
:10279800A0860100400D0300801A060000350C00D9
:1027A80040420F0080841E0000093D0000127A009C
:1027B8000024F40000366E010048E801006CDC02D9
:1027C80000000000000000000102030406070809D9
:1027D8000000000001020304443A2F446F6B756D3A
:1027E800656E74792F50726163615F696E7A796E74
:1027F800696572736B612F536F6674776172652FA9
:10280800746163746963616C5F6865616470686F43
:102818006E65732F5372632F6D61696E2E630000AE
:10282800443A2F446F6B756D656E74792F507261E1
:1028380063615F696E7A796E696572736B612F5334
:102848006F6674776172652F746163746963616C14
:102858005F6865616470686F6E65732F5372632F6C
:1028680073746D33326C3478785F68616C5F6D7344
:08287800702E63000000000057
:08288000AD010008000000009A
:082888008901000800000000B6
:0828900000093D0000000000FA
:04000005080001C925
:00000001FF
