:020000040800F2
:1000000000800120C9010008B1040008B304000801
:10001000B5040008B7040008B90400080000000097
:10002000000000000000000000000000BB04000809
:10003000BD04000800000000BF040008C10400085F
:100040001902000819020008190200081902000824
:100050001902000819020008190200081902000814
:100060001902000819020008190200081902000804
:1000700019020008190200081902000819020008F4
:1000800019020008190200081902000819020008E4
:1000900019020008190200081902000819020008D4
:1000A00019020008190200081902000819020008C4
:1000B00019020008190200081902000819020008B4
:1000C00019020008190200081902000819020008A4
:1000D0001902000819020008190200081902000894
:1000E0001902000819020008190200081902000884
:1000F0001902000819020008190200081902000874
:100100001902000819020008190200081902000863
:100110001902000819020008190200081902000853
:100120001902000819020008190200081902000843
:100130001902000819020008190200081902000833
:100140001902000819020008190200081902000823
:100150001902000819020008190200081902000813
:100160001902000819020008190200081902000803
:100170001902000819020008190200080000000016
:08018000190200081902000831
:1001880010B5054C237833B9044B13B10448AFF3C9
:1001980000800123237010BD08000020000000002B
:1001A8001C24000808B5034B1BB103490348AFF3EF
:1001B800008008BD000000000C0000201C2400087E
:1001C800DFF834D0002103E00C4B5B584350043176
:1001D8000B480C4B42189A42F6D30B4A02E0002314
:1001E80042F8043B094B9A42F9D300F06BF902F04C
:1001F800EDF800F0CBF8FEE700800120D8240008D5
:1002080000000020080000200800002094000020C2
:10021800FEE7000082B0064BDA6C42F00402DA64B2
:10022800DB6C03F004030193019B02B0704700BF2D
:1002380000100240FEE7000000B58BB01F48204BBD
:100248000360002343608360C3600361042242614A
:100258008361C3610122026243628262C3620363F3
:1002680043638363C36300F081F9D8B90AA9002303
:1002780041F80C3D114800F0B1FEB8B9114B01939B
:1002880006230293002303937F22049204220592FB
:1002980006930DEB0201094800F064FB50B90BB05E
:1002A8005DF804FBDA210848FFF7C4FFE22106489D
:1002B800FFF7C0FFEF210448FFF7BCFF2400002030
:1002C80000000450020030048024000800B5B9B0D2
:1002D8001023279301232D9300232E9360222F921E
:1002E800319327A801F07EF900283AD10F232293F1
:1002F8000021239124912591269122A801F032FC16
:1003080098BB4FF4804300934FF080531E93012312
:100318000193029310230393072304930223059365
:1003280006934FF080730793684601F027FE00BBE1
:100338004FF4007001F046F8F8B901F0BBFC114B1E
:10034800A3FB0030800900F01FFF042000F032FFFB
:10035800002211464FF0FF3000F0E2FE39B05DF8A0
:1003680004FB8D210848FFF765FF9B210648FFF72E
:1003780061FFA9210448FFF75DFFB0210248FFF79C
:1003880059FF00BFD34D62108024000808B500F063
:10039800D3F8FFF79BFFFFF73DFFFFF74DFF094835
:1003A80000F094FD0A21074800F032FA0028F9D13C
:1003B800044C204600F0D2FA034B1880204600F087
:1003C80085FDEFE7240000208C00002000B583B0F5
:1003D800214B1A6E42F001021A661A6E02F00102EF
:1003E8000092009A9A6D42F080529A659B6D03F0D4
:1003F80080530193019B032000F080FE00221146E8
:100408006FF00B0000F08CFE002211466FF00A001E
:1004180000F086FE002211466FF0090000F080FE11
:10042800002211466FF0040000F07AFE0022114607
:100438006FF0030000F074FE002211466FF0010017
:1004480000F06EFE002211464FF0FF3000F068FE0B
:1004580003B05DF804FB00BF001002400268104BB7
:100468009A4200D0704700B587B003F17043A3F5F6
:10047800F833DA6C42F40052DA64DB6C03F40053AC
:100488000093009B012301930B2302930023039302
:1004980001A9044800F0A4FE07B05DF804FB00BF02
:1004A80000000450000800487047FEE7FEE7FEE73A
:1004B800FEE770477047704708B500F049F800F04C
:1004C8008AFE08BD0F49D1F8883043F47003C1F89B
:1004D80088300D4B1A6842F001021A6000209860BB
:1004E8001A6822F0A85222F410221A604FF480529F
:1004F800DA601A6822F480221A6098614FF000636B
:100508008B60704700ED00E00010024010B5044613
:10051800074B1868074BA3FB0030800900F034FE36
:10052800002221464FF0FF3000F0FAFD002010BDF8
:1005380000000020D34D621008B5032000F0DEFD56
:100548000020FFF7E3FFFFF741FF002008BD000090
:10055800024A136801331360704700BF90000020FF
:10056800014B1868704700BF9000002030B583B079
:1005780000230193002800F03B810446836D13B3E8
:1005880023689A6812F0005F05D09A6822F020422A
:1005980022F03F029A602268936813F0805F1FD1AF
:1005A800936823F0104323F03F0343F08053936094
:1005B800904B1B68904AA2FB0323DB0C03EB8303DD
:1005C8005A00019209E0FFF749FF0023E36584F828
:1005D8005430D5E7019B013B0193019B002BF9D1D6
:1005E80023689A6812F0805F34D1A26D42F010023D
:1005F800A265E26D42F00102E2650120A26D12F0EF
:10060800100F40F0EE809A6812F0040F40F0E98075
:10061800A26D22F4817242F00202A2659A6802F089
:100628000302012A18D0754A93421AD0744A934299
:1006380037D0724B9B6803F00303012B52D0002381
:10064800002B5FD16E4B9B6803F00303012B52D044
:10065800002358E00020D1E71A6812F0010F5CD19E
:10066800E1E7674B9B6803F00303012B09D0654B57
:100678009B6803F00303012B0AD0002383F00103D6
:1006880043E05F4B1B6813F0010FF0D00123F5E73F
:100698005C4B1B6813F0010F01D10023EEE7012327
:1006A800ECE7564B9B6803F00303012B0AD0554B2C
:1006B8009B6803F00303012B0BD00023002BC1D050
:1006C800012320E04D4B1B6813F0010FEFD00123ED
:1006D800F4E74C4B1B6813F0010F01D10023EDE741
:1006E8000123EBE7454B1B6813F0010F01D10023F1
:1006F800A6E70123A4E7424B1B6813F0010F4ED174
:10070800002300E0012383F0010333B163683E490D
:100718008A6822F47C1213438B60E269A36B43EA74
:100728004233E2681343A2681343626A43EA02430E
:10073800012A36D0E26A22B102F47072216B0A43B0
:1007480013432168CD68314A2A401343CB6022689D
:10075800936813F00C0F13D1A169636B5B0043EA34
:100768008131D36823F4804323F002030B43D36021
:10077800E36B012B1AD02268136923F0010313617C
:100788002369012B24D02268136B23F00F03136312
:10079800A36D23F0030343F00103A36526E00123BF
:1007A800B1E7A26A013A43EA4243C3E721680B6909
:1007B80023F4FF6323F00403226C656C2A43A56CC1
:1007C8002A43E56C2A43134343F001030B61D7E73F
:1007D80021680B6B23F00F03226A013A13430B6362
:1007E800D6E7A36D43F01003A365012003B030BD25
:1007F8000120FBE70000002083DE1B4300000450BB
:1008080000010450000204500003045007C0F0FF28
:10081800F8B54369082B54D003684E4A934223D055
:1008280002F5807293421FD0DB6813F0010F3CD1B0
:1008380004260D460446FFF793FE074623681A6808
:10084800324240D1B5F1FF3FF8D025B1FFF788FE1D
:10085800C01BA842F2D9A36D43F00403A36500238B
:1008680084F85430032025E03B4A926812F01F0FA9
:10087800DAD0394A926802F01F02052AD4D0364AE3
:10088800926802F01F02092ACED0334B9B6803F40A
:100898004043B3F5004F0ED02F4B9B6803F4404301
:1008A800B3F5404F07D00426C3E7836D43F0200318
:1008B80083650120F8BD836D43F020038365012023
:1008C800F8E70826B5E7A26D42F40072A265DA6877
:1008D80012F4406F11D1E2697AB91A6812F0080F60
:1008E8000BD0A26D22F48072A265A26D12F4805F13
:1008F80003D1A26D42F00102A265164A934218D0B4
:1009080002F50072934214D002F58072926812F0D8
:100918001F0F0ED0104A926802F01F02052A08D055
:100928000D4A926802F01F02092A02D0094AD268C9
:1009380000E0DA68082E06D012F4804F07D10C22A6
:100948001A600020B6E708221A600020B2E70020EB
:10095800B0E700BF00000450000304500368186C9F
:1009680070470000F0B583B00022019290F854203F
:10097800012A00F03C820346012280F854200268D4
:10098800926812F0040F40F028824A68052A08D8B5
:10099800023A032A5CD8DFE802F0025154570C22CD
:1009A8004A601D684C680868303504F440764FF496
:1009B800407292FAA2F2B2FA82F2D64055F8262094
:1009C80004F01F041F27A74022EA0702C0F384602F
:1009D800A040024345F826201A68906810F00C0FD2
:1009E80039D01C68A26802F00302012A00F0C9800D
:1009F8000A68CD68D4F8B000C2F3120620EA0600EF
:100A080005F02006BE4DB5402A40C2F3120202434B
:100A1800C4F8B020C868BB4A904200F0B8800A68A1
:100A2800B9498A4200F05581B8498A4200F062818A
:100A3800B7498A4200F072810020D3E112224A604D
:100A4800AFE718224A60ACE74FF480724A60A8E723
:100A580006224A60A5E708688C68143200F000771F
:100A68004FF0007595FAA5F5B5FA85F5EF4052F8FF
:100A7800275000F0F87C4FF0F87090FAA0F6B6FA1C
:100A880086F62CFA06F64FF0070E0EFA06F625EA59
:100A9800060590FAA0F0B0FA80F02CFA00F0844035
:100AA8002C4342F8274048691C68E268C2F3C10237
:100AB800520000FA02F20D69042D0ED00E6860345F
:100AC80054F825709348384006F0F84632431043EE
:100AD80040F0004044F8250083E7206EC0F38465A9
:100AE8000A68C2F3120666BBC2F3846295422DD02F
:100AF8001C68606EC0F384650A68C2F312064EBBB8
:100B0800C2F3846295422AD01C68A06EC0F3846543
:100B18000A68C2F3120636BBC2F38462954227D034
:100B28001C68E06EC0F384650A68C2F312061EBB37
:100B3800C2F3846295427FF454AF20F00040E0662F
:100B48004FE792FAA2F2B2FA82F2CFE720F0004021
:100B58002066CDE792FAA2F2B2FA82F2D2E720F04A
:100B680000406066D0E792FAA2F2B2FA82F2D5E7C4
:100B780020F00040A066D3E792FAA2F2B2FA82F21D
:100B8800D8E7226812F0010F7FF449AF30E71C68FC
:100B98000A68C2F31205002D48D1C2F384600130FF
:100BA80009288CBF00200120002861D0002D47D1E2
:100BB800C2F3846001308006002D48D1C2F38466F8
:100BC800771C0126BE403043002D48D1C2F3846211
:100BD800013202EB4202120502438D68143402F01E
:100BE800007C4FF0007090FAA0F0B0FA80F02CFA78
:100BF80000FC54F82C6002F0F8724FF0F87090FA8C
:100C0800A0F7B7FA87F722FA07F74FF0070E0EFAA0
:100C180007F726EA070690FAA0F0B0FA80F022FA61
:100C280000F08540354344F82C50F8E692FAA2F0DB
:100C3800B0FA80F0013009288CBF00200120B3E70A
:100C480092FAA2F0B0FA80F001308006B4E792FA86
:100C5800A2F6B6FA86F6771C0126BE40B3E792FAEA
:100C6800A2F2B2FA82F2013202EB42021205B3E7B3
:100C7800ADB9C2F3846001308006BDB9C2F38466A1
:100C8800771C0126BE403043C5B9C2F3846202EB2B
:100C980042021B3A120542F0007202439DE792FAA3
:100CA800A2F0B0FA80F001308006E6E792FAA2F6E8
:100CB800B6FA86F6771C0126BE40E4E792FAA2F25D
:100CC800B2FA82F202EB42021B3A120542F00072BB
:100CD800E3E71149896811F4000F7FF4A5AE0A49CA
:100CE8008A4222D009498A424CD009498A4261D0B5
:100CF800002077E00849896811F0807FEFD097E6F7
:100D0800FFFF070000007F40000052C7000084CBAF
:100D18000100008000F0FF03000304503549896892
:100D280011F4800FDBD000205CE01A6832498A4257
:100D380005D001F500718A4201D0002052E02D490A
:100D48008A6802F0E07242F40002886820F0E070DD
:100D580002438A60294A1268A1F14E61A1F5022175
:100D6800A1F27D41A1FB0212D20CC2EB0212D1000A
:100D7800019102E0019A013A0192019A002AF9D1FF
:100D880000202FE01A68A1F1F7418A4205D001F549
:100D980000718A4201D0002024E016498A6802F0D6
:100DA800E07242F08072886820F0E07002438A6046
:100DB800002017E01968104A914201D0002011E084
:100DC8000C498A6802F0E07242F48002886820F0D8
:100DD800E07002438A60002004E0826D42F0200245
:100DE80082650120002283F8542003B0F0BD022060
:100DF800FBE700BF0003045000000450000000207F
:100E080030B583B00023019303689A6802F00302A7
:100E1800012A16D099682A4A114218D19A6822F0F4
:100E2800004222F03F0242F001029A60254B1B6803
:100E3800254AA2FB0323DB0C03EB83035A00019230
:100E480013E01A6812F0010FE4D0002008E0836D67
:100E580043F010038365C36D43F00103C3650120AC
:100E680003B030BD019B013B0193019B002BF9D1DD
:100E78000446FFF775FB054604E0FFF771FB401BCE
:100E8800022811D823681A6812F0010F16D19A683F
:100E980012F0010FF1D19A6822F0004222F03F02CD
:100EA80042F001029A60E8E7A36D43F01003A365DE
:100EB800E36D43F00103E3650120D1E70020CFE7AC
:100EC8003F0000800000002083DE1B4303689B680E
:100ED80013F0040F79D190F85430012B78D010B565
:100EE8000446012380F85430FFF78AFF03460028A0
:100EF80066D1A26D22F4706222F0010242F480727F
:100F0800A265226833498A4209D001F500718A42F4
:100F180005D001F58071896811F01F0F03D1A16D0B
:100F280021F48011A165A16D11F4805F32D0E16DCB
:100F380021F00601E1651C211160002284F854208B
:100F48002168244A914228D002F50072914224D0A7
:100F580002F58072926812F01F0F1ED01E4A926826
:100F680002F01F02052A18D01B4A926802F01F02DD
:100F7800092A12D0A26D42F48012A265154AD268DD
:100F880012F0007F1FD0A26D22F4405242F480522A
:100F9800A26518E00021E165CDE7CA6812F0007F7C
:100FA80005D0A26D22F4405242F48052A2658A68AC
:100FB80022F0004222F03F0242F004028A6002E07E
:100FC800002284F85420184610BD022318467047A2
:100FD8000223FBE7000004500003045090F854205B
:100FE800012A00F0858070B49BB00346012280F886
:100FF800542002683F48824231D000200090009877
:10100800002830D0926812F0040F66D1826812F07E
:10101800040F62D10A68002A3AD0374DAA6822F430
:1010280060424C685E6B44EA46342243AA601C68FE
:10103800A26802F00302012A1ED0826802F00302AD
:10104800012A1FD02C4CA26822F4716222F00F02F0
:101058000868896801430A43A260002042E000F55D
:1010680080700090CBE79A6D42F020029A650022CA
:1010780083F85420012038E0226812F0010FDCD0F8
:1010880000202FE0026812F0010FDBD0002029E0D9
:1010980019498A6822F460428A6019688A6802F0ED
:1010A8000302012A0DD0826802F00302012A0ED041
:1010B80011498A6822F4716222F00F028A600020C6
:1010C80010E00A6812F0010FEDD000200AE0026873
:1010D80012F0010FECD0002004E09A6D42F02002DB
:1010E8009A650120002283F854201BB070BC704719
:1010F800022070470000045000030450074AD368D8
:1011080023F4E0631B041B0C000200F4E0601843A6
:1011180040F0BF6040F40030D060704700ED00E060
:1011280030B4174BDB68C3F30223C3F10704042C64
:1011380028BF04241D1D062D18D9033B4FF0FF3589
:1011480005FA04F421EA0401994005FA03F322EAB6
:101158000303194300280BDB0901C9B200F1604001
:1011680000F5614080F8001330BC70470023E5E7C4
:1011780000F00F000901C9B2024B1954F4E700BF8F
:1011880000ED00E014ED00E00138B0F1807F0AD2F4
:10119800064B5860064AF02182F823100020986018
:1011A80007221A6070470120704700BF10E000E076
:1011B80000ED00E0042805D0054A136823F0040375
:1011C80013607047024A136843F0040313607047C2
:1011D80010E000E0704708B5FFF7FCFF08BD00000D
:1011E800F0B482B0002341E0D0F82CC02CEA040C03
:1011F800C6F3C0049C4044EA0C04C46286E006249A
:1012080000E00024B4403C430235664E46F82540D1
:10121800654C2568D44304EA05064F6817F4803FF7
:1012280001D042EA0506604D2E606D6804EA0506A5
:101238004F6817F4003F01D042EA05065A4D6E6028
:10124800AD6804EA05064F6817F4801F01D042EA2A
:101258000506554DAE60ED682C404E6816F4001F2B
:1012680001D042EA0504504AD46001330A6832FAD0
:1012780003F400F0938001249C402240F5D04D688F
:10128800022D01D0122D10D1DE08083650F826C0E4
:1012980003F00705AF000F25BD402CEA050C0D69CA
:1012A800BD4045EA0C0540F8265006685F00032556
:1012B800BD40ED4305EA060C4E6806F00306BE4045
:1012C80046EA0C0606604E6806F1FF3CBCF1010FC9
:1012D80003D9112E01D0122E11D1866805EA060C09
:1012E800CE68BE4046EA0C068660466826EA040CCC
:1012F8004E68C6F300169E4046EA0C0646604E68E5
:1013080006F0030CBCF1030F3FF46EAFC468254030
:101318008C68BC402C43C4604C6814F0805FA4D037
:10132800224C256E45F001052566246E04F0010463
:101338000194019C9D08AE1C1A4C54F8267003F0C9
:101348000304A6000F24B44027EA0407B0F1904F25
:101358003FF457AF164CA04216D004F58064A04263
:1013680014D004F58064A04212D004F58064A04231
:1013780010D004F58064A0420ED004F58064A04229
:101388003FF43DAF07243DE701243BE7022439E75A
:10139800032437E7042435E7052433E702B0F0BC1B
:1013A800704700BF000001400004014000100240E7
:1013B80000040048024B186800F4C060704700BF82
:1013C80000700040B0F5007F0FD0204B1B6803F47D
:1013D800C063B3F5806F37D01C4A136823F4C06329
:1013E80043F48063136000207047184B1B6803F4B4
:1013F800C063B3F5007F25D0144A136823F4C06393
:1014080043F400731360124B1B6802F1467202F535
:101418005B3202F28322A2FB03239A0C322303FBE2
:1014280002F300E0013B23B1084A526912F4806FCD
:10143800F8D1064B5B6913F4806F01D10020704727
:10144800032070470020704700207047007000405C
:101458000000002030B583B00546204B9B6D13F08B
:10146800805F0BD0FFF7A6FFB0F5007F17D0802D67
:101478001FD82DD0702D2DD000211BE0174CA36D47
:1014880043F08053A365A36D03F080530193019B40
:10149800FFF790FFA36D23F08053A365E4E7802D49
:1014A80003D9A02D03D9022104E0002102E0012183
:1014B80000E003210A4A136823F007030B43136073
:1014C800136803F007038B4206D0012003B030BD38
:1014D8000221EFE70121EDE70020F7E700100240C5
:1014E800002002403B4B9B6813F00C0F1AD0394B7D
:1014F8009B6803F00C030C2B0ED0364B9B6803F053
:101508000C03042B2FD0334B9B6803F00C03082BE0
:101518002CD00020014618E02E4BDB6803F00303B3
:10152800012BEAD12B4B1B6813F0080F14D1294B60
:10153800D3F89430C3F30323274A52F82310254BDA
:101548009B6813F00C0F0CD00020224A936803F01C
:101558000C030C2B0DD070471E4B1B68C3F30313F1
:10156800EAE70846F1E71D480021EEE71C4800219C
:10157800EBE71346D26802F00302DB68C3F30213F9
:101588000133022A0AD0032A1AD0B1FBF3F3114A15
:10159800D068C0F3062000FB03F008E00F48B0FB5A
:1015A800F3F30C4AD068C0F3062000FB03F0094BA4
:1015B800DB68C3F3416301335B00B0FBF3F0CAE7B8
:1015C8000748B0FBF3F3034AD068C0F3062000FBDA
:1015D80003F0ECE700100240382400080024F4006F
:1015E80000127A00002800F0A88270B582B0044684
:1015F800036813F0100F3FD0974B9B6813F00C0F44
:1016080040F09280944B1B6813F0020F03D083695B
:10161800002B00F09982206A8F4B1B6813F0080F8B
:1016280062D08D4B1B6803F0F003984263D9FFF733
:1016380011FF002840F08A82874B1A6842F008029E
:101648001A601A6822F0F002216A0A431A605A687E
:1016580022F47F42E16942EA01225A60FFF742FF21
:101668007D4B9B68C3F303137C4AD35CD8407C4B07
:1016780018600020FEF74AFF236813F0010F00F0FE
:10168800A180754B9B6803F00C03082B00F0918038
:10169800714B9B6803F00C030C2B00F0838063688C
:1016A800B3F5803F00F0B580B3F5A02F00F0B78008
:1016B800694B1A6822F480321A601A6822F4802270
:1016C8001A606368002B00F0B780FEF749FF0546F3
:1016D800614B1B6813F4003F74D1FEF741FF401BB8
:1016E8006428F5D9032038E25B4BD3F894301B0902
:1016F80003F0F00399E7584B1A6842F008021A60A1
:101708001A6822F0F002216A0A431A605A6822F421
:101718007F42E16942EA01225A60206AFFF79AFE95
:1017280000289BD0012018E2836933B34A4A136822
:1017380043F001031360FEF713FF0546464B1B6891
:1017480013F0020F06D1FEF70BFF401B0228F5D954
:10175800032002E2404B1A6842F008021A601A6835
:1017680022F0F002216A0A431A605A6822F47F4282
:10177800E16942EA01225A607EE7374A136823F09A
:1017880001031360FEF7ECFE0546334B1B6813F0AC
:10179800020F3FF471AFFEF7E3FE401B0228F4D9B5
:1017A8000320DAE12C4BDB6803F00303032B7FF4FF
:1017B80076AF294B1B6813F4003F03D06368002BF6
:1017C80000F0C681236813F0020F62D0224B9B6899
:1017D80003F00C03042B4BD01F4B9B6803F00C0346
:1017E8000C2B3FD0E368002B79D01B4A136843F4D5
:1017F80080731360FEF7B4FE0546174B1B6813F49D
:10180800806F63D1FEF7ACFE401B0228F5D9032098
:10181800A3E1114A136843F48033136051E703F1DD
:101828008043A3F53C331A6842F480221A601A6890
:1018380042F480321A6044E7FEF792FE0546064BF2
:101848001B6813F4003FBDD0FEF78AFE401B6428D6
:10185800F5D9032081E100BF001002406824000888
:1018680000000020B64BDB6803F00303022BB9D15C
:10187800B34B1B6813F4806F03D0E368002B00F0B0
:101888006981AF4A536823F0F853216943EA016339
:101898005360236813F0080F4CD063699BB3A84AC0
:1018A800D2F8943043F00103C2F89430FEF758FEA2
:1018B8000546A34BD3F8943013F0020F3AD1FEF744
:1018C8004FFE401B0228F4D9032046E19C4A536886
:1018D80023F0F853216943EA01635360D9E7984A32
:1018E800136823F480731360FEF73AFE0546944BA1
:1018F8001B6813F4806FCCD0FEF732FE401B022821
:10190800F5D9032029E18E4AD2F8943023F0010357
:10191800C2F89430FEF724FE0546894BD3F894307C
:1019280013F0020F06D0FEF71BFE401B0228F4D965
:10193800032012E1236813F0040F7BD0804B9B6DCA
:1019480013F0805F36D17E4B9A6D42F080529A65D3
:101958009B6D03F080530193019B0125794B1B6814
:1019680013F4807F28D0A368012B39D0052B3FD0F2
:10197800734BD3F8902022F00102C3F89020D3F8DB
:10198800902022F00402C3F89020A368002B3DD0D9
:10199800FEF7E6FD06466A4BD3F8903013F0020FC7
:1019A80046D1FEF7DDFD801B41F288339842F2D91B
:1019B8000320D2E00025D1E7624A136843F480731C
:1019C8001360FEF7CDFD06465E4B1B6813F4807F5F
:1019D800C9D1FEF7C5FD801B0228F5D90320BCE05C
:1019E800574AD2F8903043F00103C2F89030CCE760
:1019F800534BD3F8902042F00402C3F89020D3F858
:101A0800902042F00102C3F89020BEE7FEF7A8FD3F
:101A180006464B4BD3F8903013F0020F08D0FEF770
:101A28009FFD801B41F288339842F2D9032094E04D
:101A3800002D35D1A36A002B00F08E80404A9268B1
:101A480002F00C020C2A00F08A80022B2ED03C4BAC
:101A58001A6822F080721A601B6813F0006F09D1AF
:101A6800374B1B6813F0005F04D1354AD36823F065
:101A78000303D360324AD36823F0887323F4803396
:101A8800D360FEF76DFD04462D4B1B6813F0007FF5
:101A980051D0FEF765FD001B0228F5D903205CE054
:101AA800274A936D23F080539365C3E7244A13684C
:101AB80023F080731360FEF753FD0546204B1B6827
:101AC80013F0007F06D0FEF74BFD401B0228F5D926
:101AD800032042E0236B5A1E636B1B0243EA021386
:101AE800A26B120943EA4243E26A1343E26B5208CB
:101AF800013A43EA4253226C5208013A43EA4263EC
:101B08000F4AD360136843F080731360D36843F0BF
:101B18008073D360FEF724FD0446094B1B6813F05D
:101B2800007F06D1FEF71CFD001B0228F5D9032013
:101B380013E0002011E000200FE00120704700BFF3
:101B48000010024000700040012006E0012004E07F
:101B5800012002E0012000E0002002B070BD012059
:101B6800FBE700BF002800F0998070B504464D4B94
:101B78001B6803F007038B420CD24A4A136823F010
:101B880007030B431360136803F007038B4201D06C
:101B9800012070BD0D46236813F0010F39D063682A
:101BA800032B09D0022B26D063BB3F4A126812F0E0
:101BB800020F06D10120ECE73B4A126812F0007FC1
:101BC8006ED039498A6822F0030213438B60FEF70E
:101BD800C7FC0646344B9B6803F00C036268B3EB02
:101BE800820F16D0FEF7BCFC801B41F28833984266
:101BF800F0D90320CDE72C4A126812F4003FE0D157
:101C08000120C6E7284A126812F4806FD9D1012052
:101C1800BFE7236813F0020F06D0234A936823F026
:101C2800F003A1680B4393601E4B1B6803F0070386
:101C3800AB420CD91B4A136823F007032B431360EC
:101C4800136803F00703AB4201D00120A1E7236822
:101C580013F0040F06D0144A936823F4E063E16894
:101C68000B439360236813F0080F07D00E4A93685C
:101C780023F46053216943EAC1039360FFF732FC00
:101C8800094B9B68C3F30313084AD35CD840084B3D
:101C980018600020FEF73AFC00207AE70120704720
:101CA800012076E700200240001002406824000866
:101CB80000000020014B1868704700BF000000209A
:101CC800F8B55A4BDB6813F0030F18D0574BDB6895
:101CD80003F003030268934202D001252846F8BDA9
:101CE800002A00F0A080514BDB68C3F302130133D4
:101CF8004268934201D00125F0E700251AE0036805
:101D0800022B59D0032B5ED0012B01D001250FE007
:101D1800464A126812F0020F61D0444DEA6822F078
:101D280073024468013C43EA04131343EB60002543
:101D3800002DD3D10F4604463C4A136823F0806334
:101D48001360FEF70DFC0646384B1B6813F0006F56
:101D580005D0FEF705FC801B0228F5D90325002DC8
:101D6800BCD1002F3DD131490B6923F41F3323F433
:101D78004073A068E2681209520442EA0022134341
:101D88000B612A4A136843F080631360FEF7E8FB8F
:101D98000646264B1B6813F0006F05D1FEF7E0FBE3
:101DA800801B0228F5D90325002D97D11F4A1369F6
:101DB800A1690B43136191E71C4A126812F4806F02
:101DC800ABD10125B4E7194A126812F4003FA4D137
:101DD800164A126812F4802F9FD10125A8E7012521
:101DE800A6E7012F0FD01148026922F0C06222F441
:101DF800FE42A16863695B08013B5B0643EA012375
:101E080013430361BDE70948026922F4C00222F4C2
:101E1800FE42A16823695B08013B5B0543EA012395
:101E280013430361ADE7012558E700BF00100240E6
:101E3800F8B5514BDB6813F0030F18D04E4BDB6835
:101E480003F003030268934202D001252846F8BD37
:101E5800002A00F08E80484BDB68C3F3021301337D
:101E68004268934201D00125F0E700251AE0036893
:101E7800022B59D0032B5ED0012B01D001250FE096
:101E88003D4A126812F0020F61D03B4DEA6822F019
:101E980073024468013C43EA04131343EB600025D2
:101EA800002DD3D10F460446334A136823F08053DC
:101EB8001360FEF755FB06462F4B1B6813F0005FB7
:101EC80005D0FEF74DFB801B0228F5D90325002D10
:101ED800BCD1002F3DD128494B6923F41F3323F48B
:101EE8004073A068E2681209520442EA00221343D0
:101EF8004B61214A136843F080531360FEF730FBAF
:101F080006461D4B1B6813F0005F05D1FEF728FB42
:101F1800801B0228F5D90325002D97D1164A53694D
:101F280061690B43536191E7134A126812F4806F99
:101F3800ABD10125B4E7104A126812F4003FA4D1CE
:101F48000D4A126812F4802F9FD10125A8E70125B8
:101F5800A6E70948426922F0C06222F4FE42A1685D
:101F680023695B08013B5B0643EA01231343436192
:101F7800BFE701256AE700BF001002402DE9F041E4
:101F880082B00446036813F4006F2FD0436EB3F594
:101F9800800F25D008D9B3F5000F10D0B3F5400F46
:101FA80040F09980002610E0002B40F0948000213A
:101FB8000430FFF785FE06463EB1374618E05E4A14
:101FC800D36843F48033D36000265B4AD2F8883064
:101FD80023F44003616E0B43C2F88830002707E002
:101FE80000212030FFF724FF0646E5E700273E469C
:101FF800236813F4805F15D0A36EB3F1807F7AD085
:102008006CD9B3F1007F70D0B3F1407F7AD1002E44
:102018007BD1494AD2F8883023F04073A16E0B4334
:10202800C2F88830236813F4003F00F08E80424BDA
:102038009B6D13F0805F6AD13F4B9A6D42F08052DE
:102048009A659B6D03F080530193019B4FF0010843
:102058003A4A136843F480731360FEF781FA054621
:10206800364B1B6813F4807F05D1FEF779FA401BC5
:102078000228F5D90326002E62D12F4BD3F89030D1
:1020880013F4407316D0D4F884209A4212D02A4A06
:10209800D2F8903023F44073D2F8901041F4803194
:1020A800C2F89010D2F8901021F48031C2F8901044
:1020B800C2F8903013F0010F2CD1002E40F043816C
:1020C8001D4AD2F8903023F44073D4F884100B439F
:1020D800C2F8903035E001273E4689E793B90021E0
:1020E800201DFFF7EDFD064691E7134AD36843F438
:1020F8008033D3608BE7002104F12000FFF798FEBE
:10210800064684E701273E468CE737468AE74FF0C4
:1021180000089DE7FEF724FA0546074BD3F89030F0
:1021280013F0020FC9D1FEF71BFA401B41F28833A6
:102138009842F2D90326C0E7001002400070004020
:102148003746B8F1000F40F00081236813F0010F03
:1021580008D09D4AD2F8883023F00303A16B0B43C3
:10216800C2F88830236813F0020F08D0964AD2F8D4
:10217800883023F00C03E16B0B43C2F888302368E6
:1021880013F0040F08D0904AD2F8883023F03003B7
:10219800216C0B43C2F88830236813F0080F08D06D
:1021A800894AD2F8883023F0C003616C0B43C2F827
:1021B8008830236813F0100F08D0834AD2F888308B
:1021C80023F44073A16C0B43C2F88830236813F0E2
:1021D800200F08D07C4AD2F8883023F44063E16CA1
:1021E8000B43C2F88830236813F4007F08D0764A7E
:1021F800D2F8883023F44023E16D0B43C2F88830CD
:10220800236813F4806F08D06F4AD2F8883023F41B
:102218004013216E0B43C2F88830236813F0400F37
:1022280008D0694AD2F8883023F44053216D0B4313
:10223800C2F88830236813F0800F08D0624AD2F8B9
:10224800883023F44043616D0B43C2F8883023681B
:1022580013F4807F08D05C4AD2F8883023F44033E6
:10226800A16D0B43C2F88830236813F4005F0FD0C8
:10227800554AD2F8883023F04063E16E0B43C2F828
:102288008830E36EB3F1006F65D0B3F1806F67D02B
:10229800236813F4002F0FD04B4AD2F8883023F06C
:1022A8004063216F0B43C2F88830236FB3F1006F8E
:1022B8005ED0B3F1806F60D0236813F4802F0FD005
:1022C800414AD2F8883023F04063616F0B43C2F86B
:1022D8008830636FB3F1006F57D0B3F1806F59D076
:1022E800236813F4804F0FD0374AD2F8883023F090
:1022F8004053A16F0B43C2F88830A36FB3F1805FDE
:1023080050D0B3F1005F55D0236813F4004F08D0C4
:102318002D4AD2F8883023F08043E16F0B43C2F88E
:102328008830236813F4803F09D0274AD2F88830D0
:1023380023F00043D4F880100B43C2F888303846A5
:1023480002B0BDE8F0813746FBE61F4A936D23F0E3
:1023580080539365F9E6D36843F48013D36097E715
:102368000121201DFFF7ACFC002891D007468FE71C
:10237800D36843F48013D3609EE70121201DFFF743
:102388009FFC002898D0074696E7D36843F480134B
:10239800D360A5E70121201DFFF792FC00289FD0FC
:1023A80007469DE70221201DFFF78AFC0028ABD0D5
:1023B8000746A9E7022104F12000FFF739FD0028AC
:1023C800A2D00746A0E700BF0010024070B50D4E2E
:1023D8000D4CA41BA4100025A54209D10B4E0C4C92
:1023E80000F018F8A41BA4100025A54205D170BD63
:1023F80056F8253098470135EEE756F825309847C6
:102408000135F2E7C8240008C8240008C8240008D9
:10241800CC240008F8B500BFF8BC08BC9E4670473D
:10242800F8B500BFF8BC08BC9E4670470000000025
:10243800A0860100400D0300801A060000350C003C
:1024480040420F0080841E0000093D0000127A00FF
:102458000024F40000366E010048E801006CDC023C
:10246800000000000000000001020304060708093C
:102478000000000001020304443A2F446F6B756D9D
:10248800656E74792F50726163615F696E7A796ED7
:10249800696572736B612F536F6674776172652F0C
:1024A800746163746963616C5F6865616470686FA7
:1024B8006E65732F5372632F6D61696E2E63000012
:0824C800AD0100080000000056
:0824D000890100080000000072
:0824D80000093D0000000000B6
:04000005080001C925
:00000001FF
