:020000040800F2
:1000000000800120C9010008F10A0008F30A000875
:10001000F50A0008F70A0008F90A000800000000C5
:10002000000000000000000000000000FB0A0008C3
:10003000FD0A000800000000FF0A0008010B00088C
:100040001902000819020008190200081902000824
:100050001902000819020008190200081902000814
:100060001902000819020008190200081902000804
:10007000190200080D0B00081902000819020008F7
:1000800019020008190200081902000819020008E4
:1000900019020008190200081902000819020008D4
:1000A00019020008190200081902000819020008C4
:1000B00019020008190200081902000819020008B4
:1000C00019020008190200081902000819020008A4
:1000D0001902000819020008190200081902000894
:1000E0001902000819020008190200081902000884
:1000F0001902000819020008190200081902000874
:100100001902000819020008190200081902000863
:100110001902000819020008190200081902000853
:1001200019020008190200081D0B00081902000836
:100130001902000819020008190200081902000833
:100140001902000819020008190200081902000823
:100150001902000819020008190200081902000813
:100160001902000819020008190200081902000803
:100170001902000819020008190200080000000016
:08018000190200081902000831
:1001880010B5054C237833B9044B13B10448AFF3C9
:1001980000800123237010BD08000020000000002B
:1001A800243C000808B5034B1BB103490348AFF3CF
:1001B800008008BD000000000C000020243C00085E
:1001C800DFF834D0002103E00C4B5B584350043176
:1001D8000B480C4B42189A42F6D30B4A02E0002314
:1001E80042F8043B094B9A42F9D300F09BFC03F018
:1001F800F1FC00F0DFFAFEE700800120383D00083E
:100208000000002008000020080000201003002043
:10021800FEE7000010B588B0174BDA6C42F0040214
:10022800DA64DA6C02F004020092009ADA6C42F0A6
:100238000102DA64DA6C02F001020192019ADA6CC6
:1002480042F00202DA64DB6C03F002030293029BC1
:100258000A4C00223721204601F0ACFE37230393D5
:100268000123049300230593069303A9204601F074
:10027800B7FD08B010BD00BF0010024000040048E0
:1002880000B583B0124B9A6C42F001029A649A6CE2
:1002980002F001020092009A9A6C42F002029A64FB
:1002A8009B6C03F002030193019B002211460D2071
:1002B80001F030FA0D2001F061FA002211463A20CF
:1002C80001F028FA3A2001F059FA03B05DF804FB6E
:1002D8000010024010B582B0344B1B680A2B55D071
:1002E800324A516832480068014451600133136052
:1002F800304B01221A802E4B1A682C4BD9681144B6
:10030800D960196911441961596911445961996988
:1003180011449961D9691144D961196A1144196262
:10032800596A11445962996A11449962D96A114407
:10033800D962196B0A441A63596B03EB8104E268AA
:100348001D48A0FB02209A68C2EBD00202EB4202D1
:10035800C2F5FA62194802600020E0600131596371
:100368000A2920D0B2F5805F02D3144B00221A600C
:10037800134C0021204601F04AFA00210091012384
:100388000E4A204601F072FA02B010BD074A5368BF
:100398000C4981FB0301DB17C3EBA1039360002326
:1003A80013605360A4E75863DCE700BF2400002013
:1003B8008402002000000020CDCCCCCCE00000203E
:1003C800640000206766666610B50124054B5C80F2
:1003D8000021054801F0C2FA22460449044801F008
:1003E80063F810BD00000020640000208402002093
:1003F8002C010020014B32225A8070470000002057
:10040800FEE7000000B585B01148124B03600023D9
:10041800436083604FF4C872C260836103F08EFB4F
:1004280058B9202301930023039301A9084803F036
:100438009FFB38B905B05DF804FB40F20621064879
:10044800FFF7DEFF40F20D210348FFF7D9FF00BF99
:100458004402002000100040883C000800B58BB022
:100468002348244B0360002343608360C360036117
:10047800042242618361C361012202624362826293
:10048800C362036342638363C263082101644364F4
:100498008364C26400F0AAFBD8B90AA9002341F812
:1004A8000C3D134801F094F8C0B9134B019306238F
:1004B8000293012303937F230493042305930023CA
:1004C800069301A90A4800F03BFD60B90BB05DF83E
:1004D80004FB40F23F110948FFF792FF40F2471131
:1004E8000648FFF78DFF4FF4AA710448FFF788FF0D
:1004F8002C0100200000045002003004883C000851
:1005080000B58BB01648174B036001F06EF9C0B9FF
:1005180000220192042302930392049205920DEBA8
:1005280003010F4801F05EFA80B900230293049397
:10053800102201A90A4801F055FA60B90BB05DF81C
:1005480004FB4FF4DE710848FFF75AFF4FF4E471DB
:100558000548FFF755FF40F2D1110348FFF750FF58
:100568006400002000740040883C000800B587B093
:100578001B481C4B0360002343608360C360036116
:10058800042242618361C361012202624362826282
:100598004FF48062C262026343638363C36300F003
:1005A80025FB90B9104B0093062301930023029377
:1005B8007F2203920422049205936946084800F0BA
:1005C800BFFC38B907B05DF804FB40F29F1107483B
:1005D800FFF716FF4FF4D6710448FFF711FF00BF6D
:1005E8009401002000020450000084CB883C0008DD
:1005F80008B51448144B0360002303634360C0220A
:1006080042638363C36383600361436183610F4A09
:10061800C261C36043628362C3620822026401222A
:1006280042648364C364036543658365C265036686
:1006380003F01CF900B908BD4FF4FA710448FFF73C
:10064800DFFE00BF880200200454014000EE0200D3
:10065800883C000800B587B01A481B4B036000238C
:1006680043608360C3600361042242618361C361A4
:100678000122026243628262C3620363436383634B
:10068800C36300F0B3FA90B9104B009306230193AB
:10069800002302937F220392042204920593694661
:1006A800084800F04DFC38B907B05DF804FB40F28B
:1006B80073110748FFF7A4FE4FF4C0710448FFF711
:1006C8009FFE00BF78000020000104502000F014B5
:1006D800883C000800B5B9B01023279301232D9357
:1006E80000232E93B0222F92319327A801F080FD8A
:1006F800002849D10F232293002323932493259381
:100708002693022122A802F033F8002840D14FF4A2
:1007180090430093002319934FF000531E93012137
:100728000891042309930A220A9207220B920222B3
:100738000C924FF080700D90019102930821039163
:1007480011210491059206934FF48033079368466C
:1007580002F03AFA00BB4FF4007001F039FC00BB1C
:1007680002F0AEF8114BA3FB0030800901F012F83B
:10077800042001F025F8002211464FF0FF3000F068
:10078800C9FF39B05DF804FBE7210948FFF738FED7
:10079800F5210748FFF734FE4FF485710448FFF749
:1007A8002FFE40F211110248FFF72AFED34D6210C6
:1007B800883C000808B500F0EFF9FFF78BFFFFF75A
:1007C80029FDFFF75DFDFFF71DFEFFF747FEFFF769
:1007D80097FEFFF7CBFEFFF70BFFFFF73BFF01226A
:1007E8000349044800F060FE034803F029F9FEE7D6
:1007F800840200202C0100204402002000B583B0B0
:10080800214B1A6E42F001021A661A6E02F00102BA
:100818000092009A9A6D42F080529A659B6D03F09F
:1008280080530193019B032000F062FF00221146D0
:100838006FF00B0000F06EFF002211466FF00A0007
:1008480000F068FF002211466FF0090000F062FF17
:10085800002211466FF0040000F05CFF00221146F0
:100868006FF0030000F056FF002211466FF0010000
:1008780000F050FF002211464FF0FF3000F04AFF11
:1008880003B05DF804FB00BF0010024030B589B02A
:1008980003683F4A934207D03E4A93423FD03E4ABC
:1008A800934259D009B030BD04463C4A136801331D
:1008B8001360012B23D0032303930B2304930025F8
:1008C800059503A9364801F08BFA3648364B036084
:1008D80045608560C560802303614FF48073436180
:1008E8004FF4806383612023C3614FF40053036294
:1008F80001F040F970B92B4B23659C62D2E72B4B72
:10090800DA6C42F40052DA64DB6C03F400530093AF
:10091800009BD0E77C212648FFF772FDEBE71F4AD2
:10092800136801331360012B0BD0012303930B23AE
:1009380004930023059303A94FF0904001F050FA67
:10094800B0E71A4BDA6C42F40052DA64DB6C03F459
:1009580000530193019BE8E7104A136801331360C1
:10096800012B0AD0042303930B230493002305933C
:1009780003A90B4801F034FA94E70C4BDA6C42F403
:100988000052DA64DB6C03F400530293029BE9E73C
:100998000000045000010450000204505C000020D4
:1009A80000080048FC01002030040240001002400A
:1009B800D03C000802681F4B9A4200D0704730B5FF
:1009C80087B0044603F5CE339A6D42F000529A651B
:1009D8009B6D03F000530093009B30230193032386
:1009E80002930025039501A94FF0904001F0F8F912
:1009F8001148124B03600623436010238360C560CF
:100A0800802303614FF4007343614FF400638361F3
:100A18002023C361056201F0ADF820B9064BA3603D
:100A28009C6207B030BD40F21D110548FFF7E8FC95
:100A3800F4E700BF00740040E400002030000240EA
:100A4800D03C00080268094B9A4200D0704782B037
:100A580003F500339A6D42F010029A659B6D03F01E
:100A680010030193019B02B0704700BF00100040C3
:100A78000268184B9A4200D0704770B586B0164B82
:100A88005B684BB9154A116E41F400111166126E7C
:100A980002F400120092009A01330F4A53600823AF
:100AA8000193022602960024039404940D250595CB
:100AB80001A90B4801F094F94FF4C0630193029621
:100AC80003940494059501A9064801F089F906B034
:100AD80070BD00BF045401405C00002000100240BB
:100AE80000080048000400487047FEE7FEE7FEE7FC
:100AF800FEE770477047704708B500F059F800F0F6
:100B080070FE08BD08B5024801F007F908BD00BF2E
:100B1800E400002008B5024801F0FFF808BD00BF56
:100B2800FC0100200F49D1F8883043F47003C1F864
:100B380088300D4B1A6842F001021A600020986054
:100B48001A6822F0A85222F410221A604FF4805238
:100B5800DA601A6822F480221A6098614FF0006304
:100B68008B60704700ED00E00010024010B50446AD
:100B7800074B1868074BA3FB0030800900F00AFEFA
:100B8800002221464FF0FF3000F0C4FD002010BDC8
:100B980004000020D34D621008B5032000F0A8FD22
:100BA8000020FFF7E3FFFFF729FE002008BD000043
:100BB800024A136801331360704700BF0C0300201A
:100BC800014B1868704700BF0C03002038B5044675
:100BD800FFF7F6FF0546B4F1FF3F00D00134FFF7F9
:100BE800EFFF401BA042FAD338BD000030B583B0F8
:100BF80000230193002800F03B810446836D13B362
:100C080023689A6812F0005F05D09A6822F02042A3
:100C180022F03F029A602268936813F0805F1FD128
:100C2800936823F0104323F03F0343F0805393600D
:100C3800904B1B68904AA2FB0323DB0C03EB830356
:100C48005A00019209E0FFF721FE0023E36584F8CA
:100C58005430D5E7019B013B0193019B002BF9D14F
:100C680023689A6812F0805F34D1A26D42F01002B6
:100C7800A265E26D42F00102E2650120A26D12F068
:100C8800100F40F0EE809A6812F0040F40F0E980EF
:100C9800A26D22F4817242F00202A2659A6802F003
:100CA8000302012A18D0754A93421AD0744A934213
:100CB80037D0724B9B6803F00303012B52D00023FB
:100CC800002B5FD16E4B9B6803F00303012B52D0BE
:100CD800002358E00020D1E71A6812F0010F5CD118
:100CE800E1E7674B9B6803F00303012B09D0654BD1
:100CF8009B6803F00303012B0AD0002383F0010350
:100D080043E05F4B1B6813F0010FF0D00123F5E7B8
:100D18005C4B1B6813F0010F01D10023EEE70123A0
:100D2800ECE7564B9B6803F00303012B0AD0554BA5
:100D38009B6803F00303012B0BD00023002BC1D0C9
:100D4800012320E04D4B1B6813F0010FEFD0012366
:100D5800F4E74C4B1B6813F0010F01D10023EDE7BA
:100D68000123EBE7454B1B6813F0010F01D100236A
:100D7800A6E70123A4E7424B1B6813F0010F4ED1ED
:100D8800002300E0012383F0010333B163683E4987
:100D98008A6822F47C1213438B60E269A36B43EAEE
:100DA8004233E2681343A2681343626A43EA024388
:100DB800012A36D0E26A22B102F47072216B0A432A
:100DC80013432168CD68314A2A401343CB60226817
:100DD800936813F00C0F13D1A169636B5B0043EAAE
:100DE8008131D36823F4804323F002030B43D3609B
:100DF800E36B012B1AD02268136923F001031361F6
:100E08002369012B24D02268136B23F00F0313638B
:100E1800A36D23F0030343F00103A36526E0012338
:100E2800B1E7A26A013A43EA4243C3E721680B6982
:100E380023F4FF6323F00403226C656C2A43A56C3A
:100E48002A43E56C2A43134343F001030B61D7E7B8
:100E580021680B6B23F00F03226A013A13430B63DB
:100E6800D6E7A36D43F01003A365012003B030BD9E
:100E78000120FBE70400002083DE1B430000045030
:100E880000010450000204500003045007C0F0FFA2
:100E9800704708B5806AFFF7FBFF08BD704708B5C3
:100EA800836A9A6D12F0500F31D19A6D42F4007234
:100EB8009A651A68116811F0080F14D0D16811F4F6
:100EC800406F20D1D26812F4005F1CD19A6D22F4D1
:100ED80080729A659A6D12F4805F14D19A6D42F00F
:100EE80001029A650FE0D26812F0020F0BD19A6DD9
:100EF80022F480729A659A6D12F4805F03D19A6D1C
:100F080042F001029A651846FFF7E4F908BD9A6DA8
:100F180012F0100F03D11B6D5B6B9847F6E718466C
:100F2800FFF7BCFFF2E708B5806A836D43F0400322
:100F38008365C36D43F00403C365FFF7AFFF08BDC6
:100F4800F0B583B00022019290F85420012A00F0F5
:100F58003C820346012280F854200268926812F00D
:100F6800040F40F028824A68052A08D8023A032A62
:100F78005CD8DFE802F0025154570C224A601D6821
:100F88004C680868303504F440764FF4407292FAA1
:100F9800A2F2B2FA82F2D64055F8262004F01F04D5
:100FA8001F27A74022EA0702C0F38460A04002433B
:100FB80045F826201A68906810F00C0F39D01C6884
:100FC800A26802F00302012A00F0C9800A68CD680D
:100FD800D4F8B000C2F3120620EA060005F0200695
:100FE800BE4DB5402A40C2F312020243C4F8B020F5
:100FF800C868BB4A904200F0B8800A68B9498A427A
:1010080000F05581B8498A4200F06281B7498A42A6
:1010180000F072810020D3E112224A60AFE7182263
:101028004A60ACE74FF480724A60A8E706224A603B
:10103800A5E708688C68143200F000774FF0007557
:1010480095FAA5F5B5FA85F5EF4052F8275000F066
:10105800F87C4FF0F87090FAA0F6B6FA86F62CFAFB
:1010680006F64FF0070E0EFA06F625EA060590FA80
:10107800A0F0B0FA80F02CFA00F084402C4342F83B
:10108800274048691C68E268C2F3C102520000FAAE
:1010980002F20D69042D0ED00E68603454F82570E4
:1010A8009348384006F0F8463243104340F0004079
:1010B80044F8250083E7206EC0F384650A68C2F30C
:1010C800120666BBC2F3846295422DD01C68606E1E
:1010D800C0F384650A68C2F312064EBBC2F3846289
:1010E80095422AD01C68A06EC0F384650A68C2F3D2
:1010F800120636BBC2F38462954227D01C68E06EA4
:10110800C0F384650A68C2F312061EBBC2F3846288
:1011180095427FF454AF20F00040E0664FE792FA22
:10112800A2F2B2FA82F2CFE720F000402066CDE7C3
:1011380092FAA2F2B2FA82F2D2E720F00040606698
:10114800D0E792FAA2F2B2FA82F2D5E720F0004094
:10115800A066D3E792FAA2F2B2FA82F2D8E722683E
:1011680012F0010F7FF449AF30E71C680A68C2F338
:101178001205002D48D1C2F38460013009288CBFC4
:1011880000200120002861D0002D47D1C2F38460DF
:1011980001308006002D48D1C2F38466771C0126F1
:1011A800BE403043002D48D1C2F38462013202EBC5
:1011B8004202120502438D68143402F0007C4FF09D
:1011C800007090FAA0F0B0FA80F02CFA00FC54F805
:1011D8002C6002F0F8724FF0F87090FAA0F7B7FAA6
:1011E80087F722FA07F74FF0070E0EFA07F726EAF5
:1011F800070690FAA0F0B0FA80F022FA00F08540D5
:10120800354344F82C50F8E692FAA2F0B0FA80F090
:10121800013009288CBF00200120B3E792FAA2F020
:10122800B0FA80F001308006B4E792FAA2F6B6FA76
:1012380086F6771C0126BE40B3E792FAA2F2B2FA0C
:1012480082F2013202EB42021205B3E7ADB9C2F3F2
:10125800846001308006BDB9C2F38466771C01261C
:10126800BE403043C5B9C2F3846202EB42021B3A66
:10127800120542F0007202439DE792FAA2F0B0FA1A
:1012880080F001308006E6E792FAA2F6B6FA86F612
:10129800771C0126BE40E4E792FAA2F2B2FA82F283
:1012A80002EB42021B3A120542F00072E3E71149D1
:1012B800896811F4000F7FF4A5AE0A498A4222D04A
:1012C80009498A424CD009498A4261D0002077E016
:1012D8000849896811F0807FEFD097E6FFFF070083
:1012E80000007F40000052C7000084CB010000804E
:1012F80000F0FF03000304503549896811F4800F9A
:10130800DBD000205CE01A6832498A4205D001F53A
:1013180000718A4201D0002052E02D498A6802F00B
:10132800E07242F40002886820F0E07002438A60AC
:10133800294A1268A1F14E61A1F50221A1F27D416D
:10134800A1FB0212D20CC2EB0212D100019102E001
:10135800019A013A0192019A002AF9D100202FE05E
:101368001A68A1F1F7418A4205D001F500718A4255
:1013780001D0002024E016498A6802F0E07242F0A9
:101388008072886820F0E07002438A60002017E0CD
:101398001968104A914201D0002011E00C498A686E
:1013A80002F0E07242F48002886820F0E0700243A4
:1013B8008A60002004E0826D42F0200282650120EC
:1013C800002283F8542003B0F0BD0220FBE700BFE1
:1013D80000030450000004500400002030B583B01E
:1013E8000023019303689A6802F00302012A16D0C9
:1013F80099682A4A114218D19A6822F0004222F0CC
:101408003F0242F001029A60254B1B68254AA2FB65
:101418000323DB0C03EB83035A00019213E01A68E1
:1014280012F0010FE4D0002008E0836D43F01003B0
:101438008365C36D43F00103C365012003B030BD6C
:10144800019B013B0193019B002BF9D10446FFF757
:10145800B7FB054604E0FFF7B3FB401B022811D891
:1014680023681A6812F0010F16D19A6812F0010F5A
:10147800F1D19A6822F0004222F03F0242F00102C4
:101488009A60E8E7A36D43F01003A365E36D43F0AA
:101498000103E3650120D1E70020CFE73F0000808A
:1014A8000400002083DE1B43F8B50468A56815F026
:1014B800040F7DD190F85430012B7CD0012380F8A3
:1014C80054303E4B9C4256D003F580739C4252D018
:1014D80016460F460446FFF781FF0546002863D1EC
:1014E800A36D23F4706323F0010343F48073A365B1
:1014F8002368324A934208D002F50072934204D01E
:101508002F4B9B6813F01F0F03D1A36D23F4801397
:10151800A365A36D13F4805F43D0E36D23F0060346
:10152800E365236D274ADA62236D274A1A63236D20
:10153800264A5A6323681C221A60002384F8543010
:101548002268536843F0100353602268D36843F05D
:101558000103D360216833463A464031206D00F0DC
:1015680085FB2268936823F0004323F03F0343F090
:10157800040393601DE0124B9B6813F01F0FA7D064
:101588000F4B9B6803F01F03052BA1D00C4B9B68E6
:1015980003F01F03092B9BD0002380F8543001254A
:1015A80007E00023E365BCE7002384F8543000E03B
:1015B80002252846F8BD0225FBE700BF00000450BD
:1015C80000030450A70E00089B0E00082F0F000808
:1015D80090F85420012A00F0858070B49BB003462F
:1015E800012280F8542002683F48824231D000200E
:1015F80000900098002830D0926812F0040F66D14D
:10160800826812F0040F62D10A68002A3AD0374D76
:10161800AA6822F460424C685E6B44EA463422436E
:10162800AA601C68A26802F00302012A1ED0826820
:1016380002F00302012A1FD02C4CA26822F4716226
:1016480022F00F020868896801430A43A26000205B
:1016580042E000F580700090CBE79A6D42F02002DE
:101668009A65002283F85420012038E0226812F09D
:10167800010FDCD000202FE0026812F0010FDBD050
:10168800002029E019498A6822F460428A601968B2
:101698008A6802F00302012A0DD0826802F0030270
:1016A800012A0ED011498A6822F4716222F00F02D1
:1016B8008A60002010E00A6812F0010FEDD00020C7
:1016C8000AE0026812F0010FECD0002004E09A6DE5
:1016D80042F020029A650120002283F854201BB0B2
:1016E80070BC70470220704700000450000304508B
:1016F800074AD36823F4E0631B041B0C000200F4C0
:10170800E060184340F0BF6040F40030D06070479C
:1017180000ED00E030B4174BDB68C3F30223C3F1DC
:101728000704042C28BF04241D1D062D18D9033BCB
:101738004FF0FF3505FA04F421EA0401994005FA4F
:1017480003F322EA0303194300280BDB0901C9B29A
:1017580000F1604000F5614080F8001330BC70472C
:101768000023E5E700F00F000901C9B2024B195444
:10177800F4E700BF00ED00E014ED00E000F01F0208
:10178800400901239340024A42F82030704700BFC5
:1017980000E100E00138B0F1807F0AD2064B5860C2
:1017A800064AF02182F823100020986007221A6068
:1017B80070470120704700BF10E000E000ED00E036
:1017C800042805D0054A136823F004031360704702
:1017D800024A136843F004031360704710E000E006
:1017E800704708B5FFF7FCFF08BD70B110B5044697
:1017F800037933B10223237100202061012323716F
:1018080010BD4371FFF7D6F8F4E70120704743791C
:10181800012B29D010B401234371022202710468FC
:1018280022688B401343236091B90268136803F060
:101838003C033C2B07D00123037100234371184656
:101848005DF8044B7047536843F001035360F2E7B7
:101858000268136803F47013B3F5701FEBD1536873
:1018680043F002035360E6E702207047F8B5069C90
:101878004679012E64D0012545710225057100299C
:1018880035D185682F4EEE6285682F4E2E638568A8
:101898002E4E6E630668356845F480553560042C15
:1018A8001FD0082C20D00CB10E4601E0066808367F
:1018B80017460D460446002937D101680A6842F4E4
:1018C80000520A6032463946806800F0CFF900209D
:1018D800607122681368012101FA05F51D4315603E
:1018E800F8BD06680C36E3E706681036E0E7C56819
:1018F800174EEE62C568174E2E63C568164E6E63A6
:101908000668356845F080553560042C07D0082CEA
:1019180008D00CB10026CBE706681436C8E706687D
:101928001836C5E706681C36C2E701680A6842F03F
:1019380000520A6032463946C06800F097F9C6E797
:101948000220CDE7B9190008CB190008D5190008FD
:101958001B1B00082B1B0008351B000810B504468C
:10196800006803684FF480528A4023EA0203036048
:101978002068036801228A4023EA0203036059B9F8
:10198800A06800F0AEF92268136823F400531360CE
:1019980058B90123237110BDE06800F0A2F922684C
:1019A800136823F000531360F2E704232371F2E76E
:1019B80010B5846A2046FEF707FD0123237110BD88
:1019C800704708B5806AFFF7FBFF08BD10B5846A49
:1019D800236943F0040323612046FEF70BFD01232E
:1019E800237110BDF8B54379012B00F08D801546A1
:1019F8000E46044601234371022303710B68042B2E
:101A080030D03369012B74D02168CB6B0722AA40F0
:101A180023EA02023368B0680343F0680343AB402B
:101A28001343CB6321680B684FF48042AA4023EA32
:101A380002030B6021680B6840F6FC72AA4023EA97
:101A480002027368AB4013430B6021680B68C02225
:101A580002FA05F523EA05050D600123237100202C
:101A68006071F8BD72B123685B6B002B25DAFFF754
:101A7800A7F80128F7D9236943F008032361032055
:101A88002071EEE7FFF79CF8074623685B6B13F4B9
:101A9800004F0BD0FFF794F8C01B0128F5D9236934
:101AA80043F00803236103202071DAE70120FFF7E0
:101AB8008DF82368B2691A6405E00120FFF786F8FB
:101AC8002368B2695A6421688B6C40F2FF32AA40DD
:101AD80023EA0203F269AA4013438B642168CB6CA2
:101AE800FF22AA4023EA0203326AAA401343CB64C6
:101AF80087E721688B6B1F22AA4023EA02027369D9
:101B0800AB4013438B637FE70220AAE77047704717
:101B1800704710B5846A2046FFF7F8FF0123237148
:101B280010BD08B5806AFFF7F2FF08BD10B5846ADA
:101B3800236943F0040323612046FFF7E9FF0123EB
:101B4800237110BD70B4446C04F01C05066C0124AC
:101B5800AC407460046863608368102B05D0036828
:101B680099600368DA6070BC704703689A6003681C
:101B7800D960F8E7002869D010B403460168344AF0
:101B8800914245D8334A0A443349A1FB021212094B
:101B980092004264314A0264022283F825201868C0
:101BA800016821F4FF4121F070019A68DC68224342
:101BB8001C6922435C6922439C692243DC692243F5
:101BC8001C6A22430A4302609A68B2F5804F15D016
:101BD800196C224A914226D0214A1168586C00F0AB
:101BE8001C040F20A04021EA000111601168586808
:101BF8005C6C04F01C04A040014311600020D86311
:101C0800012283F8252083F824005DF8044B7047EF
:101C1800144A0A441049A1FB0212120992004264B4
:101C2800114A0264B8E7A8321168586C00F01C0425
:101C38000F20A04021EA00011160116858685C6C0F
:101C480004F01C04A04001431160D7E7012070474D
:101C580007040240F8FFFDBFCDCCCCCC0000024009
:101C6800A8040240F8FBFDBF0004024038B590F814
:101C78002440012C33D0012480F8244090F82540DA
:101C8800E4B2012C04D0002380F82430022038BDAF
:101C98000446022084F825000020E06325682868AF
:101CA80020F0010028602046FFF74CFF236B5BB152
:101CB8002268136843F00E0313602268136843F028
:101CC800010313600020E2E72268136823F004038D
:101CD80013602268136843F00A031360EDE70220DB
:101CE800D5E70346B8B101680A6822F00E020A6017
:101CF80001680A6822F001020A60426C02F01C02C4
:101D0800006C012101FA02F2426083F825100020DC
:101D180083F8240070470120704738B5036C1968B0
:101D280004682568436C03F01C0304229A400A42A5
:101D380015D015F0040F12D0236813F0200F03D12B
:101D4800236823F004032360436C03F01C02016C36
:101D5800042393404B60036B03B1984738BD0222BC
:101D68009A400A421CD015F0020F19D0236813F0CC
:101D7800200F06D1236823F00A032360012380F88B
:101D88002530436C03F01C02016C022393404B6026
:101D9800002380F82430C36A002BDFD09847DDE7A2
:101DA800082202FA03F30B42D8D015F0080FD5D059
:101DB800236823F00E032360436C03F01C03016CBB
:101DC800012202FA03F34B60C26380F82520002346
:101DD80080F82430436B002BC0D09847BEE7000042
:101DE800F0B482B0002341E0D0F82CC02CEA040CF7
:101DF800C6F3C0049C4044EA0C04C46286E006248E
:101E080000E00024B4403C430235664E46F82540C5
:101E1800654C2568D44304EA05064F6817F4803FEB
:101E280001D042EA0506604D2E606D6804EA050699
:101E38004F6817F4003F01D042EA05065A4D6E601C
:101E4800AD6804EA05064F6817F4801F01D042EA1E
:101E58000506554DAE60ED682C404E6816F4001F1F
:101E680001D042EA0504504AD46001330A6832FAC4
:101E780003F400F0938001249C402240F5D04D6883
:101E8800022D01D0122D10D1DE08083650F826C0D8
:101E980003F00705AF000F25BD402CEA050C0D69BE
:101EA800BD4045EA0C0540F8265006685F0003254A
:101EB800BD40ED4305EA060C4E6806F00306BE4039
:101EC80046EA0C0606604E6806F1FF3CBCF1010FBD
:101ED80003D9112E01D0122E11D1866805EA060CFD
:101EE800CE68BE4046EA0C068660466826EA040CC0
:101EF8004E68C6F300169E4046EA0C0646604E68D9
:101F080006F0030CBCF1030F3FF46EAFC468254024
:101F18008C68BC402C43C4604C6814F0805FA4D02B
:101F2800224C256E45F001052566246E04F0010457
:101F38000194019C9D08AE1C1A4C54F8267003F0BD
:101F48000304A6000F24B44027EA0407B0F1904F19
:101F58003FF457AF164CA04216D004F58064A04257
:101F680014D004F58064A04212D004F58064A04225
:101F780010D004F58064A0420ED004F58064A0421D
:101F88003FF43DAF07243DE701243BE7022439E74E
:101F9800032437E7042435E7052433E702B0F0BC0F
:101FA800704700BF000001400004014000100240DB
:101FB800000400480AB981627047816170470000D7
:101FC800024B186800F4C060704700BF0070004002
:101FD800B0F5007F0FD0204B1B6803F4C063B3F546
:101FE800806F37D01C4A136823F4C06343F48063BE
:101FF800136000207047184B1B6803F4C063B3F5E7
:10200800007F25D0144A136823F4C06343F4007397
:102018001360124B1B6802F1467202F55B3202F242
:102028008322A2FB03239A0C322303FB02F300E072
:10203800013B23B1084A526912F4806FF8D1064B6C
:102048005B6913F4806F01D100207047032070474B
:1020580000207047002070470070004004000020F6
:1020680030B583B00546204B9B6D13F0805F0BD0D5
:10207800FFF7A6FFB0F5007F17D0802D1FD82DD011
:10208800702D2DD000211BE0174CA36D43F0805319
:10209800A365A36D03F080530193019BFFF790FFA5
:1020A800A36D23F08053A365E4E7802D03D9A02D09
:1020B80003D9022104E0002102E0012100E003210C
:1020C8000A4A136823F007030B431360136803F0ED
:1020D80007038B4206D0012003B030BD0221EFE791
:1020E8000121EDE70020F7E7001002400020024040
:1020F8003B4B9B6813F00C0F1AD0394B9B6803F0CD
:102108000C030C2B0ED0364B9B6803F00C03042BEE
:102118002FD0334B9B6803F00C03082B2CD00020E6
:10212800014618E02E4BDB6803F00303012BEAD1CC
:102138002B4B1B6813F0080F14D1294BD3F894309C
:10214800C3F30323274A52F82310254B9B6813F047
:102158000C0F0CD00020224A936803F00C030C2BC0
:102168000DD070471E4B1B68C3F30313EAE70846FC
:10217800F1E71D480021EEE71C480021EBE7134674
:10218800D26802F00302DB68C3F302130133022AA8
:102198000AD0032A1AD0B1FBF3F3114AD068C0F36E
:1021A800062000FB03F008E00F48B0FBF3F30C4AED
:1021B800D068C0F3062000FB03F0094BDB68C3F3CB
:1021C800416301335B00B0FBF3F0CAE70748B0FB9B
:1021D800F3F3034AD068C0F3062000FB03F0ECE7F2
:1021E80000100240403C00080024F40000127A006D
:1021F800002800F0A88270B582B00446036813F086
:10220800100F3FD0974B9B6813F00C0F40F0928053
:10221800944B1B6813F0020F03D08369002B00F066
:102228009982206A8F4B1B6813F0080F62D08D4B80
:102238001B6803F0F003984263D9FFF711FF0028E9
:1022480040F08A82874B1A6842F008021A601A68BE
:1022580022F0F002216A0A431A605A6822F47F4287
:10226800E16942EA01225A60FFF742FF7D4B9B6811
:10227800C3F303137C4AD35CD8407C4B186000201E
:10228800FEF774FC236813F0010F00F0A180754B72
:102298009B6803F00C03082B00F09180714B9B683E
:1022A80003F00C030C2B00F083806368B3F5803FC8
:1022B80000F0B580B3F5A02F00F0B780694B1A681D
:1022C80022F480321A601A6822F480221A60636845
:1022D800002B00F0B780FEF773FC0546614B1B68C6
:1022E80013F4003F74D1FEF76BFC401B6428F5D94A
:1022F800032038E25B4BD3F894301B0903F0F0035A
:1023080099E7584B1A6842F008021A601A6822F0D6
:10231800F002216A0A431A605A6822F47F42E1698E
:1023280042EA01225A60206AFFF79AFE00289BD0F1
:10233800012018E2836933B34A4A136843F0010362
:102348001360FEF73DFC0546464B1B6813F0020F71
:1023580006D1FEF735FC401B0228F5D9032002E21E
:10236800404B1A6842F008021A601A6822F0F0021C
:10237800216A0A431A605A6822F47F42E16942EAF4
:1023880001225A607EE7374A136823F0010313607D
:10239800FEF716FC0546334B1B6813F0020F3FF49B
:1023A80071AFFEF70DFC401B0228F4D90320DAE1D7
:1023B8002C4BDB6803F00303032B7FF476AF294B28
:1023C8001B6813F4003F03D06368002B00F0C6813C
:1023D800236813F0020F62D0224B9B6803F00C03B2
:1023E800042B4BD01F4B9B6803F00C030C2B3FD0E6
:1023F800E368002B79D01B4A136843F48073136099
:10240800FEF7DEFB0546174B1B6813F4806F63D19C
:10241800FEF7D6FB401B0228F5D90320A3E1114A99
:10242800136843F48033136051E703F18043A3F545
:102438003C331A6842F480221A601A6842F48032E7
:102448001A6044E7FEF7BCFB0546064B1B6813F40D
:10245800003FBDD0FEF7B4FB401B6428F5D903202C
:1024680081E100BF00100240703C00080400002019
:10247800B64BDB6803F00303022BB9D1B34B1B68DF
:1024880013F4806F03D0E368002B00F06981AF4A32
:10249800536823F0F853216943EA016353602368C2
:1024A80013F0080F4CD063699BB3A84AD2F8943054
:1024B80043F00103C2F89430FEF782FB0546A34BB4
:1024C800D3F8943013F0020F3AD1FEF779FB401B92
:1024D8000228F4D9032046E19C4A536823F0F853B4
:1024E800216943EA01635360D9E7984A136823F4E2
:1024F80080731360FEF764FB0546944B1B6813F466
:10250800806FCCD0FEF75CFB401B0228F5D9032076
:1025180029E18E4AD2F8943023F00103C2F89430AE
:10252800FEF74EFB0546894BD3F8943013F0020FA3
:1025380006D0FEF745FB401B0228F4D9032012E120
:10254800236813F0040F7BD0804B9B6D13F0805FE2
:1025580036D17E4B9A6D42F080529A659B6D03F09E
:1025680080530193019B0125794B1B6813F4807FED
:1025780028D0A368012B39D0052B3FD0734BD3F853
:10258800902022F00102C3F89020D3F8902022F086
:102598000402C3F89020A368002B3DD0FEF710FB7F
:1025A80006466A4BD3F8903013F0020F46D1FEF777
:1025B80007FB801B41F288339842F2D90320D2E00E
:1025C8000025D1E7624A136843F480731360FEF76D
:1025D800F7FA06465E4B1B6813F4807FC9D1FEF7F5
:1025E800EFFA801B0228F5D90320BCE0574AD2F83D
:1025F800903043F00103C2F89030CCE7534BD3F846
:10260800902042F00402C3F89020D3F8902042F0C2
:102618000102C3F89020BEE7FEF7D2FA06464B4BFC
:10262800D3F8903013F0020F08D0FEF7C9FA801BD8
:1026380041F288339842F2D9032094E0002D35D135
:10264800A36A002B00F08E80404A926802F00C02C8
:102658000C2A00F08A80022B2ED03C4B1A6822F0FC
:1026680080721A601B6813F0006F09D1374B1B6822
:1026780013F0005F04D1354AD36823F00303D36015
:10268800324AD36823F0887323F48033D360FEF78B
:1026980097FA04462D4B1B6813F0007F51D0FEF7C4
:1026A8008FFA001B0228F5D903205CE0274A936DB6
:1026B80023F080539365C3E7244A136823F080739B
:1026C8001360FEF77DFA0546204B1B6813F0007F68
:1026D80006D0FEF775FA401B0228F5D9032042E020
:1026E800236B5A1E636B1B0243EA0213A26B120987
:1026F80043EA4243E26A1343E26B5208013A43EA6F
:102708004253226C5208013A43EA42630F4AD360AB
:10271800136843F080731360D36843F08073D36009
:10272800FEF74EFA0446094B1B6813F0007F06D1EA
:10273800FEF746FA001B0228F5D9032013E0002013
:1027480011E000200FE00120704700BF0010024098
:1027580000700040012006E0012004E0012002E0B2
:10276800012000E0002002B070BD0120FBE700BF9F
:10277800002800F0998070B504464D4B1B6803F0A3
:1027880007038B420CD24A4A136823F007030B4312
:102798001360136803F007038B4201D0012070BD5A
:1027A8000D46236813F0010F39D06368032B09D055
:1027B800022B26D063BB3F4A126812F0020F06D1E3
:1027C8000120ECE73B4A126812F0007F6ED03949CD
:1027D8008A6822F0030213438B60FEF7F1F906467C
:1027E800344B9B6803F00C036268B3EB820F16D07E
:1027F800FEF7E6F9801B41F288339842F0D90320AE
:10280800CDE72C4A126812F4003FE0D10120C6E758
:10281800284A126812F4806FD9D10120BFE72368D3
:1028280013F0020F06D0234A936823F0F003A1683F
:102838000B4393601E4B1B6803F00703AB420CD994
:102848001B4A136823F007032B431360136803F034
:102858000703AB4201D00120A1E7236813F0040F5E
:1028680006D0144A936823F4E063E1680B4393604D
:10287800236813F0080F07D00E4A936823F46053B7
:10288800216943EAC1039360FFF732FC094B9B6857
:10289800C3F30313084AD35CD840084B18600020E0
:1028A800FEF764F900207AE701207047012076E7F7
:1028B8000020024000100240703C00080400002084
:1028C800014B1868704700BF0400002008B5FFF7E7
:1028D800F7FF044B9B68C3F30223034AD35CD84039
:1028E80008BD00BF00100240803C000808B5FFF793
:1028F800E7FF044B9B68C3F3C223034AD35CD84069
:1029080008BD00BF00100240803C0008F8B55A4BD3
:10291800DB6813F0030F18D0574BDB6803F0030391
:102928000268934202D001252846F8BD002A00F02B
:10293800A080514BDB68C3F3021301334268934212
:1029480001D00125F0E700251AE00368022B59D0D1
:10295800032B5ED0012B01D001250FE0464A1268F7
:1029680012F0020F61D0444DEA6822F07302446805
:10297800013C43EA04131343EB600025002DD3D137
:102988000F4604463C4A136823F080631360FEF741
:1029980017F90646384B1B6813F0006F05D0FEF791
:1029A8000FF9801B0228F5D90325002DBCD1002F73
:1029B8003DD131490B6923F41F3323F44073A068D8
:1029C800E2681209520442EA002213430B612A4AC0
:1029D800136843F080631360FEF7F2F80646264B4F
:1029E8001B6813F0006F05D1FEF7EAF8801B022878
:1029F800F5D90325002D97D11F4A1369A1690B4307
:102A0800136191E71C4A126812F4806FABD101255B
:102A1800B4E7194A126812F4003FA4D1164A1268A2
:102A280012F4802F9FD10125A8E70125A6E7012FE1
:102A38000FD01148026922F0C06222F4FE42A16858
:102A480063695B08013B5B0643EA012313430361A7
:102A5800BDE70948026922F4C00222F4FE42A168D7
:102A680023695B08013B5B0543EA012313430361C8
:102A7800ADE7012558E700BF00100240F8B5514BFB
:102A8800DB6813F0030F18D04E4BDB6803F0030329
:102A98000268934202D001252846F8BD002A00F0BA
:102AA8008E80484BDB68C3F30213013342689342BC
:102AB80001D00125F0E700251AE00368022B59D060
:102AC800032B5ED0012B01D001250FE03D4A12688F
:102AD80012F0020F61D03B4DEA6822F0730244689D
:102AE800013C43EA04131343EB600025002DD3D1C6
:102AF8000F460446334A136823F080531360FEF7E9
:102B08005FF806462F4B1B6813F0005F05D0FEF7F1
:102B180057F8801B0228F5D90325002DBCD1002FBA
:102B28003DD128494B6923F41F3323F44073A0682F
:102B3800E2681209520442EA002213434B61214A17
:102B4800136843F080531360FEF73AF806461D4BAE
:102B58001B6813F0005F05D1FEF732F8801B0228CE
:102B6800F5D90325002D97D1164A536961690B439E
:102B7800536191E7134A126812F4806FABD10125B3
:102B8800B4E7104A126812F4003FA4D10D4A126843
:102B980012F4802F9FD10125A8E70125A6E709484F
:102BA800426922F0C06222F4FE42A16823695B08F0
:102BB800013B5B0643EA012313434361BFE7012559
:102BC8006AE700BF001002402DE9F04182B00446D8
:102BD800036813F4006F2FD0436EB3F5800F25D030
:102BE80008D9B3F5000F10D0B3F5400F40F0998025
:102BF800002610E0002B40F0948000210430FFF7FD
:102C080085FE06463EB1374618E05E4AD36843F46F
:102C18008033D36000265B4AD2F8883023F440031F
:102C2800616E0B43C2F88830002707E0002120308E
:102C3800FFF724FF0646E5E700273E46236813F41E
:102C4800805F15D0A36EB3F1807F7AD06CD9B3F1D1
:102C5800007F70D0B3F1407F7AD1002E7BD1494AF2
:102C6800D2F8883023F04073A16E0B43C2F8883045
:102C7800236813F4003F00F08E80424B9B6D13F0E5
:102C8800805F6AD13F4B9A6D42F080529A659B6D86
:102C980003F080530193019B4FF001083A4A1368EF
:102CA80043F480731360FDF78BFF0546364B1B68B2
:102CB80013F4807F05D1FDF783FF401B0228F5D967
:102CC8000326002E62D12F4BD3F8903013F44073B3
:102CD80016D0D4F884209A4212D02A4AD2F89030DA
:102CE80023F44073D2F8901041F48031C2F8901068
:102CF800D2F8901021F48031C2F89010C2F89030C8
:102D080013F0010F2CD1002E40F043811D4AD2F858
:102D1800903023F44073D4F884100B43C2F89030F9
:102D280035E001273E4689E793B90021201DFFF7CA
:102D3800EDFD064691E7134AD36843F48033D36028
:102D48008BE7002104F12000FFF798FE064684E790
:102D580001273E468CE737468AE74FF000089DE793
:102D6800FDF72EFF0546074BD3F8903013F0020FFE
:102D7800C9D1FDF725FF401B41F288339842F2D9AB
:102D88000326C0E700100240007000403746B8F143
:102D9800000F40F00081236813F0010F08D09D4A0E
:102DA800D2F8883023F00303A16B0B43C2F88830B4
:102DB800236813F0020F08D0964AD2F8883023F01F
:102DC8000C03E16B0B43C2F88830236813F0040F3F
:102DD80008D0904AD2F8883023F03003216C0B4396
:102DE800C2F88830236813F0080F08D0894AD2F84F
:102DF800883023F0C003616C0B43C2F88830236825
:102E080013F0100F08D0834AD2F8883023F44073A7
:102E1800A16C0B43C2F88830236813F0200F08D048
:102E28007C4AD2F8883023F44063E16C0B43C2F843
:102E38008830236813F4007F08D0764AD2F88830A7
:102E480023F44023E16D0B43C2F88830236813F460
:102E5800806F08D06F4AD2F8883023F44013216E6F
:102E68000B43C2F88830236813F0400F08D0694A32
:102E7800D2F8883023F44053216D0B43C2F88830D0
:102E8800236813F0800F08D0624AD2F8883023F400
:102E98004043616D0B43C2F88830236813F4807F88
:102EA80008D05C4AD2F8883023F44033A16D0B4334
:102EB800C2F88830236813F4005F0FD0554AD2F85F
:102EC800883023F04063E16E0B43C2F88830E36E2C
:102ED800B3F1006F65D0B3F1806F67D0236813F446
:102EE800002F0FD04B4AD2F8883023F04063216F6F
:102EF8000B43C2F88830236FB3F1006F5ED0B3F193
:102F0800806F60D0236813F4802F0FD0414AD2F825
:102F1800883023F04063616F0B43C2F88830636FD9
:102F2800B3F1006F57D0B3F1806F59D0236813F411
:102F3800804F0FD0374AD2F8883023F04053A16F22
:102F48000B43C2F88830A36FB3F1805F50D0B3F160
:102F5800005F55D0236813F4004F08D02D4AD2F8EB
:102F6800883023F08043E16F0B43C2F88830236830
:102F780013F4803F09D0274AD2F8883023F0004361
:102F8800D4F880100B43C2F88830384602B0BDE848
:102F9800F0813746FBE61F4A936D23F08053936513
:102FA800F9E6D36843F48013D36097E70121201D25
:102FB800FFF7ACFC002891D007468FE7D36843F4AD
:102FC8008013D3609EE70121201DFFF79FFC002896
:102FD80098D0074696E7D36843F48013D360A5E7F3
:102FE8000121201DFFF792FC00289FD007469DE78E
:102FF8000221201DFFF78AFC0028ABD00746A9E76D
:10300800022104F12000FFF739FD0028A2D007466D
:10301800A0E700BF0010024008B5B0F5003F39D066
:10302800C64BDB6803F00303012B5DD0C34BDB68A1
:1030380003F00303022B6FD0C04BDB6803F00303DC
:10304800032B70D00023B0F5007F00F0608300F2FE
:10305800C080102800F06D8200F28780022800F0FE
:1030680009826DD9042800F02982082840F03481AB
:10307800B24BD3F8883013F0C00300F04382402BE2
:1030880000F04382802B00F04382C02B00F048827E
:1030980000200EE0A94BD3F8903003F44073B3F549
:1030A800807F07D0B3F5007F0DD0B3F5407F13D0F4
:1030B800002008BDA14AD2F8902012F0020FF1D0EA
:1030C8004FF40040F5E79D4AD2F8942012F0020F21
:1030D800EBD04FF4FA40ECE7984B1B6813F4003F31
:1030E80040F066830020E4E7944B1B6813F0020F5E
:1030F80020D0924B1B6813F0080F07D08F4B1B682A
:10310800C3F303138E4A52F823309CE78B4BD3F852
:103118009430C3F30323F5E7884B1B6813F4806FDF
:103128000AD0884B8FE7854B1B6813F4003F05D006
:10313800854B88E7002386E7002384E7002382E79E
:10314800012840F0C9807D4BD3F8883013F0030381
:1031580000F07981012B00F07981022B00F0798150
:10316800032B00F07E810020A3E7402800F0818235
:1031780017D9802800F09C82B0F5807F40F0AC80A1
:103188006E4BD3F8883013F4403300F0B082B3F5B7
:10319800803F00F0AF82B3F5003F00F0AE82002020
:1031A80087E7202840F09880644BD3F8883013F4E0
:1031B800406300F0E581B3F5806F00F0E481B3F57A
:1031C800006F00F0E381B3F5406F00F0E781002065
:1031D8006FE7B0F5804F00F0ED8116D9B0F5803F6C
:1031E80000F03C8272D8B0F5004F75D1534BD3F83C
:1031F800883013F0804F00F0D682504B1B6813F4D0
:10320800806F40F0D382002053E7B0F5006F1BD0E9
:1032180017D8B0F5806F5FD1484BD3F8883013F4D6
:10322800401300F0A382B3F5801F00F0A282B3F52B
:10323800001F00F0A882B3F5401F00F0AC82002008
:1032480037E7B0F5805F2DD1B0F5006F46D03B4A27
:10325800D2F8880000F04070B0F1407F00F0AA82F8
:10326800B0F5000F44D0B0F1007F41D000285DD107
:10327800324A126912F4803F3FF41BAF2F4AD068DC
:10328800C0F302100130B3FBF0F31069C0F306205D
:10329800126912F4003F47D1072200FB03F0B0FB8C
:1032A800F2F006E7B0F5005F16D1244AD2F888207C
:1032B80002F04062B2F1406F66D0B2F1006F7CD08C
:1032C800B2F1806F00F09C800020F2E6B0F5802F0C
:1032D800EBD0B0F5002FE8D00020EAE6174AD2F884
:1032E800880000F44000B0F5400FB9D11748E0E677
:1032F800124AD26812F4803F00F05E820F4AD0680A
:10330800C0F302100130B3FBF0F3D068C0F306201D
:10331800D26812F4003F05D1072200FB03F0B0FB8E
:10332800F2F0C6E61122F8E71122B6E7B0F5800FF1
:103338000ED0B0F1807F0BD00020BAE6001002401A
:10334800403C00080024F40000127A0068FF1F00C7
:10335800BF4A526912F4803F00F03082BC4AD068FC
:10336800C0F302100130B3FBF0F35069C0F306203C
:10337800526912F4003F05D1072200FB03F0B0FBAD
:10338800F2F096E61122F8E7B14B1B6813F0020F32
:1033980000F01682AE4B1B6813F0080F07D0AC4B39
:1033A8001B68C3F30313AB4A52F8230081E6A84B0A
:1033B800D3F89430C3F30323F5E702F1605202F522
:1033C8000432126812F0007F00F0FC81A04AD26833
:1033D80012F4801F00F0F8819D4AD068C0F30210F3
:1033E8000130B3FBF0F3D068C0F3062000FB03F014
:1033F800D368C3F3415301335B00B0FBF3F058E6E5
:1034080002F1705202F50432126812F0006F00F0F7
:10341800DD818F4A126912F4801F00F0D9818C4A2D
:10342800D068C0F302100130B3FBF0F31069C0F3A9
:10343800062000FB03F01369C3F3415301335B001B
:10344800B0FBF3F035E6FFF751FA32E6FEF750FE2F
:103458002FE67F4A126812F4806F3FF481AE7E48EF
:1034680027E67B4BD3F8903013F0020F40F0B2817F
:1034780000201EE6764BD3F8883013F00C0307D0F3
:10348800042B08D0082B09D00C2B0ED0002010E6F6
:10349800FFF71CFA0DE6FEF72BFE0AE66C4A1268E7
:1034A80012F4806FF0D06C4803E6694BD3F8903083
:1034B80013F0020F40F091810020FAE5644BD3F835
:1034C800883013F0300307D0102B08D0202B09D0F8
:1034D800302B0ED00020ECE5FFF7F8F9E9E5FEF710
:1034E80007FEE6E55A4A126812F4806FF0D05A488F
:1034F800DFE5574BD3F8903013F0020F40F070819E
:103508000020D6E5FFF7E2F9D3E5FEF7F1FDD0E5B7
:103518004F4A126812F4806F3FF4B7AD4E48C8E5C1
:103528004B4BD3F8903013F0020F40F05C81002031
:10353800BFE5474BD3F8883013F440730AD0B3F58E
:10354800807F0AD0B3F5007F0AD0B3F5407F0ED054
:103558000020AEE5FFF7BAF9ABE5FEF7C9FDA8E52F
:103568003B4A126812F4806FEFD03B48A1E5384B14
:10357800D3F8903013F0020F40F03881002098E51E
:10358800FFF7A4F995E5FEF7B3FD92E5304A126816
:1035980012F4806F3FF417AE2F488AE503F1804399
:1035A80003F50133D3F8903013F0020F40F0218176
:1035B80000207EE5264AD2F8882002F04052B2F177
:1035C800405F07D0B2F1805F07D0B2F1005F21D031
:1035D80000206EE5FEF78CFD6BE502F1405202F526
:1035E8000432126912F0807F00F00681184AD06810
:1035F800C0F302100130B3FBF0F31069C0F30620EA
:1036080000FB03F01369C3F3416301335B00B0FBB4
:10361800F3F04EE502F1005202F50432526912F05D
:10362800807F00F0EB800A4AD068C0F302100130B6
:10363800B3FBF0F35069C0F3062000FB03F05369B5
:10364800C3F3416301335B00B0FBF3F031E500BF26
:1036580000100240403C00080024F4006E4BD3F8F0
:103668008830002B02DBFFF741F922E5FEF740FD29
:103678001FE5694BD3F8883013F4405307D0B3F5EE
:10368800805F07D0B3F5005F07D0002011E5FFF792
:103698001DF90EE5FEF72CFD0BE503F1804303F55C
:1036A800F8331B6813F4806F40F0AA80002000E50F
:1036B800594BD3F8883013F4404307D0B3F5804F03
:1036C80007D0B3F5004F07D00020F2E4FFF7FEF86B
:1036D800EFE4FEF70DFDECE403F1804303F5C83396
:1036E8001B6813F4806F40F08D800020E1E4FFF741
:1036F800EDF8DEE4FEF7FCFCDBE403F1804303F5C0
:1037080080531B6813F4806F7ED10020D1E4424BB4
:10371800D3F8883013F440230AD0B3F5802F0AD0A9
:10372800B3F5002F10D0B3F5402F14D00020C0E41B
:10373800FFF7CCF8BDE4384AD2F8942012F0020F13
:10374800EED04FF4FA40B4E4334A126812F4806FB2
:10375800E9D03248ADE403F18043A3F51F23D3F841
:10376800903013F0020F51D10020A2E4FFF7AEF819
:103778009FE4294AD2F8942012F0020F3FF457AD83
:103788004FF4FA4095E4244A126812F4806F3FF42B
:1037980052AD22488DE4204BD3F8903013F0020F3D
:1037A80037D1002085E4FFF791F882E41B4880E4D4
:1037B8001B487EE41B487CE400207AE4002078E47F
:1037C800002076E4002074E4002072E4002070E415
:1037D80000206EE44FF400406BE44FF4004068E4CE
:1037E8004FF4004065E44FF4004062E44FF40040B9
:1037F8005FE44FF400405CE400205AE4002058E401
:10380800064856E4054854E4044852E44FF400409E
:103818004FE44FF400404CE4001002400024F40050
:1038280090D0030068FF1F000E4B1B680E4AA2FBD6
:1038380003231B0B9B0001680A6822F480320A608C
:103848003BB1013B0268126812F4803FF8D10020B6
:103858007047D0F8803043F04003C0F88030032030
:10386800704700BF040000201BECCB95F8B500287A
:1038780000F0D680044690F87D300BB32046FFF761
:10388800D3FF0546002840F0CD80022384F87D3020
:10389800E368012B1BD0022B17D00022A368022B50
:1038A80017D0032B18D0012B1BD0002623685E49A4
:1038B8008B4219D020318B4216D05C4B1A6015E030
:1038C80080F87C30FDF7D4F8D8E72022E6E710220C
:1038D800E4E74FF40066E9E742F001024FF40066BE
:1038E800E4E74FF48066E1E7514B1A60E3691BB3E4
:1038F80023684D4A934207D02032934204D04FF4B4
:103908008050FFF789FB03E04FF40060FFF784FB6A
:1039180000EB80004100E3695B02B1FBF3F1454B2A
:10392800A3FB0123DB08236203EB830042008A1A0E
:10393800082A01D901332362636833B1022B04D00A
:10394800E36B012B69D0002704E0E36B012B62D005
:103958004FF4007721680B68374A1A400A602168DB
:103968000A686368206B0343606B0343A06B0343DF
:103978003B433343606A034320690343606903435D
:10398800206A43EA005313430B602268536823F408
:10399800604323F00F03536021684A68A369A06A53
:1039A8000343E06A034313434B6022689168234B47
:1039B8000B40936020688268236C013B216D0B43A8
:1039C800A16C0B43E16C0B43616C013943EA0123A1
:1039D800134383602268D36823F47D6323F00F03C5
:1039E8001B041B0CD3602068C268636DA16D0B4378
:1039F800216E43EA0143E16D013943EA0123134390
:103A0800C3600023C4F88030012284F87D2084F844
:103A18007C302846F8BD00279CE74FF4007799E7EB
:103A28000125F6E70125F4E7045401400058014058
:103A380000540140CDCCCCCC10C005FF0080F8FF6D
:103A4800022380F83D3002689168094B0B40062B31
:103A580009D09168064B0B40B3F5803F03D013683B
:103A680043F001031360012380F83D3000207047C4
:103A7800070001000368304A904212D0B0F1804F2D
:103A88000FD0A2F5943290420BD002F5806290429A
:103A980007D002F58062904203D002F5943290423A
:103AA80003D123F070034A681343234A90421ED07F
:103AB800B0F1804F1BD0A2F59432904217D002F596
:103AC8008062904213D002F5806290420FD002F5D6
:103AD800943290420BD002F54062904207D002F532
:103AE8008062904203D002F58062904203D123F4B1
:103AF8004073CA68134323F080034A691343036081
:103B08008B68C3620B6883620B4B98420FD003F536
:103B1800006398420BD003F54063984207D003F541
:103B28008063984203D003F58063984201D10B6902
:103B38000363012343617047002C0140A8B110B50D
:103B4800044690F83D305BB1022384F83D30211DD6
:103B58002068FFF78FFF012384F83D30002010BD57
:103B680080F83C30FCF76EFFEEE70120704700005C
:103B780090F83C30012B28D030B4012380F83C3039
:103B8800022380F83D30026853689568104CA242C1
:103B980003D004F50064A24203D123F470034C68F7
:103BA800234323F070030C68234325F080048968BD
:103BB8002143536003689960012380F83D30002356
:103BC80080F83C30184630BC70470220704700BF70
:103BD800002C014070B50D4E0D4CA41BA4100025FF
:103BE800A54209D10B4E0C4C00F018F8A41BA410E8
:103BF8000025A54205D170BD56F8253098470135F6
:103C0800EEE756F8253098470135F2E7283D0008D9
:103C1800283D0008283D00082C3D0008F8B500BFE5
:103C2800F8BC08BC9E467047F8B500BFF8BC08BC95
:083C38009E46704700000000E9
:103C4000A0860100400D0300801A060000350C001C
:103C500040420F0080841E0000093D0000127A00DF
:103C60000024F40000366E010048E801006CDC021C
:103C7000000000000000000001020304060708091C
:103C80000000000001020304443A2F446F6B756D7D
:103C9000656E74792F50726163615F696E7A796EB7
:103CA000696572736B612F536F6674776172652FEC
:103CB000746163746963616C5F6865616470686F87
:103CC0006E65732F5372632F6D61696E2E630000F2
:103CD000443A2F446F6B756D656E74792F50726125
:103CE00063615F696E7A796E696572736B612F5378
:103CF0006F6674776172652F746163746963616C58
:103D00005F6865616470686F6E65732F5372632FAF
:103D100073746D33326C3478785F68616C5F6D7387
:083D2000702E6300000000009A
:083D2800AD01000800000000DD
:083D30008901000800000000F9
:083D38000500050000093D0033
:04000005080001C925
:00000001FF
