:020000040800F2
:1000000000800120C9010008E1060008E30600089D
:10001000E5060008E7060008E90600080000000001
:10002000000000000000000000000000EB060008D7
:10003000ED06000800000000EF060008F1060008C9
:100040001902000819020008190200081902000824
:100050001902000819020008190200081902000814
:100060001902000819020008190200081902000804
:1000700019020008190200081902000819020008F4
:1000800019020008190200081902000819020008E4
:1000900019020008190200081902000819020008D4
:1000A00019020008190200081902000819020008C4
:1000B00019020008190200081902000819020008B4
:1000C00019020008190200081902000819020008A4
:1000D0001902000819020008190200081902000894
:1000E0001902000819020008190200081902000884
:1000F0001902000819020008190200081902000874
:100100001902000819020008190200081902000863
:100110001902000819020008FD060008190200086B
:100120001507000819020008190200081902000842
:100130001902000819020008190200081902000833
:100140001902000819020008190200081902000823
:100150001902000819020008190200081902000813
:100160001902000819020008190200081902000803
:100170001902000819020008190200080000000016
:08018000190200081902000831
:1001880010B5054C237833B9044B13B10448AFF3C9
:1001980000800123237010BD100000200000000023
:1001A8001C30000808B5034B1BB103490348AFF3E3
:1001B800008008BD00000000140000201C3000086A
:1001C800DFF834D0002103E00C4B5B584350043176
:1001D8000B480C4B42189A42F6D30B4A02E0002314
:1001E80042F8043B094B9A42F9D300F097FA02F01F
:1001F800EDFE00F05DF9FEE70080012030310008D7
:1002080000000020100000201000002064010020E1
:10021800FEE7000084B00F4BDA6C42F00402DA64A7
:10022800DA6C02F004020192019ADA6C42F00102DF
:10023800DA64DA6C02F001020292029ADA6C42F095
:100248000202DA64DB6C03F002030393039B04B03D
:10025800704700BF0010024000B583B00A4B9A6C8B
:1002680042F002029A649B6C03F002030193019B23
:1002780000221146382000F0C7FA382000F0F8FABA
:1002880003B05DF804FB00BF0010024010B50E4B30
:1002980001221A800D4C204602F044FC0C4A1188B9
:1002A800538843EA01430B4A13600B4A82FB03124B
:1002B8001A44DB17C3EBE24303F6B833074A13606B
:1002C800204602F042FC10BD00000020DC000020A7
:1002D80030000020D80000200108008048000020DD
:1002E800014B02221A80704700000020FEE7000040
:1002F80000B585B01148124B03600023436083604A
:100308004FF40042C260836102F010FE58B9202306
:1003180001930023039301A9084802F021FE38B98C
:1003280005B05DF804FB40F239110648FFF7DEFF1F
:100338004FF4A0710348FFF7D9FF00BF98000020D1
:10034800001000408030000800B58BB00F48104BFB
:10035800036000F0C4FA78B90022019204230293E2
:100368000392049205920DEB0301084800F002FB8A
:1003780038B90BB05DF804FB4FF483710548FFF7FB
:10038800B5FF4FF489710348FFF7B0FF3400002030
:10039800007400408030000808B50D480D4B03601C
:1003A80001234360002181600161416181614FF453
:1003B8007A53C361C1604162816202231A4602F026
:1003C80099FB00B908BD40F227110348FFF78EFFDB
:1003D800DC000020045401408030000800B5B9B0AA
:1003E800022327934FF480722A9210222B92319382
:1003F8003293012233920A2234920722359236939D
:10040800379327A800F080FE00283CD10F232293C1
:10041800032323930023249325932693042122A8BE
:1004280001F032F998BB4FF400630093002319934D
:1004380002230193012202921522039207220492B9
:100448000593042306934FF480330793684601F01D
:1004580047FB00BB4FF4007000F046FDF8B901F00F
:10046800BBF9114BA3FB0030800900F00DFA042002
:1004780000F020FA002211464FF0FF3000F0C4F9D6
:1004880039B05DF804FBC9210848FFF72FFFD721D1
:100498000648FFF72BFFE5210448FFF727FFEC216B
:1004A8000248FFF723FF00BFD34D621080300008D9
:1004B80008B500F06DF9FFF791FFFFF7ABFEFFF706
:1004C800CBFEFFF715FFFFF73FFFFFF765FF02229F
:1004D8000449054802F056FB10B1044B42221A8029
:1004E800FEE700BF30000020DC00002000000020F4
:1004F80000B583B0214B1A6E42F001021A661A6EDB
:1005080002F001020092009A9A6D42F080529A65B8
:100518009B6D03F080530193019B032000F062F967
:10052800002211466FF00B0000F06EF90022114610
:100538006FF00A0000F068F9002211466FF0090018
:1005480000F062F9002211466FF0040000F05CF937
:10055800002211466FF0030000F056F90022114600
:100568006FF0010000F050F9002211464FF0FF3003
:1005780000F04AF903B05DF804FB00BF0010024028
:100588000268134B9A4200D0704710B586B003F545
:10059800CE339A6D42F000529A659B6D03F000537A
:1005A8000093009B102301930323029300240394D8
:1005B80001A94FF0904000F0A5FB224621463620C5
:1005C80000F022F9362000F053F906B010BD00BF44
:1005D8000074004002680E4B9A4200D0704700B584
:1005E80083B003F500339A6D42F010029A659B6D53
:1005F80003F010030193019B00221146362000F0FE
:1006080003F9362000F034F903B05DF804FB00BFAD
:10061800001000400268284B9A4200D07047F0B59D
:1006280087B0264B1B684BB9254A116E41F400115F
:100638001166126E02F400120092009A0546013308
:100648001E4A13600823019302270297002403948B
:1006580004940D26059601A91A4800F053FB4FF49F
:10066800E0630193029703940494059601A9164840
:1006780000F048FB1548164B036001234360846073
:10068800C460802303614FF4807343614FF4806337
:1006980083612023C3614FF44053036200F018FACA
:1006A80028B90A4B2B679D62EB6607B0F0BDF121B4
:1006B8000848FFF71BFEF4E7045401402C00002013
:1006C8000010024000080048000400484C000020C8
:1006D80008040240C83000087047FEE7FEE7FEE75E
:1006E800FEE770477047704708B500F05DF800F006
:1006F800F2F808BD08B5034802F0E7FA024800F02E
:1007080001F908BD980000203400002008B502480F
:1007180000F095FA08BD00BF4C0000200F49D1F841
:10072800883043F47003C1F888300D4B1A6842F0E2
:1007380001021A60002098601A6822F0A85222F478
:1007480010221A604FF48052DA601A6822F480226C
:100758001A6098614FF000638B60704700ED00E00D
:100768000010024010B50446074B1868074BA3FB5E
:100778000030800900F088F8002221464FF0FF3051
:1007880000F042F8002010BD08000020D34D621090
:1007980008B5032000F026F80020FFF7E3FFFFF775
:1007A800A7FE002008BD0000024A13680133136049
:1007B800704700BF60010020014B1868704700BFF8
:1007C8006001002038B50446FFF7F6FF0546B4F18E
:1007D800FF3F00D00134FFF7EFFF401BA042FAD3E0
:1007E80038BD0000074AD36823F4E0631B041B0CE0
:1007F800000200F4E060184340F0BF6040F40030AD
:10080800D060704700ED00E030B4174BDB68C3F3ED
:100818000223C3F10704042C28BF04241D1D062D40
:1008280018D9033B4FF0FF3505FA04F421EA040117
:10083800994005FA03F322EA0303194300280BDB66
:100848000901C9B200F1604000F5614080F8001369
:1008580030BC70470023E5E700F00F000901C9B27A
:10086800024B1954F4E700BF00ED00E014ED00E07E
:1008780000F01F02400901239340024A42F8203049
:10088800704700BF00E100E00138B0F1807F0AD274
:10089800064B5860064AF02182F823100020986021
:1008A80007221A6070470120704700BF10E000E07F
:1008B80000ED00E0042805D0054A136823F004037E
:1008C80013607047024A136843F0040313607047CB
:1008D80010E000E0704708B5FFF7FCFF08BD70B1F5
:1008E80010B50446037933B1022323710020206137
:1008F8000123237110BD4371FFF742FEF4E7012085
:100908007047704710B5044603681A6812F4005F10
:1009180003D05A6B12F4005F09D123681A6812F0E9
:10092800005F03D05A6B12F0005F11D110BD042292
:100938000271026942F0010202614FF400525A63E7
:100948000268136823F480531360FFF7DAFFE4E7C3
:1009580004222271226942F0020222614FF0005201
:100968005A632268136823F080531360204600F00E
:1009780095F8DBE7F8B54379012B00F08D80154633
:100988000E46044601234371022303710B68042BAE
:1009980030D03369012B74D02168CB6B0722AA4071
:1009A80023EA02023368B0680343F0680343AB40AC
:1009B8001343CB6321680B684FF48042AA4023EAB3
:1009C80002030B6021680B6840F6FC72AA4023EA18
:1009D80002027368AB4013430B6021680B68C022A6
:1009E80002FA05F523EA05050D60012323710020AD
:1009F8006071F8BD72B123685B6B002B25DAFFF7D5
:100A0800DBFE0128F7D9236943F00803236103209B
:100A18002071EEE7FFF7D0FE074623685B6B13F4FF
:100A2800004F0BD0FFF7C8FEC01B0128F5D923697A
:100A380043F00803236103202071DAE70120FFF760
:100A4800C1FE2368B2691A6405E00120FFF7BAFE07
:100A58002368B2695A6421688B6C40F2FF32AA405D
:100A680023EA0203F269AA4013438B642168CB6C22
:100A7800FF22AA4023EA0203326AAA401343CB6446
:100A880087E721688B6B1F22AA4023EA0202736959
:100A9800AB4013438B637FE70220AAE7704770B42B
:100AA800446C04F01C05066C0124AC4074600468B6
:100AB80063608368102B05D0036899600368DA6067
:100AC80070BC704703689A600368D960F8E7000053
:100AD800002869D010B403460168344A914245D8C9
:100AE800334A0A443349A1FB0212120992004264B4
:100AF800314A0264022283F825201868016821F42B
:100B0800FF4121F070019A68DC6822431C69224386
:100B18005C6922439C692243DC6922431C6A2243A4
:100B28000A4302609A68B2F5804F15D0196C224AC0
:100B3800914226D0214A1168586C00F01C040F20FD
:100B4800A04021EA00011160116858685C6C04F04B
:100B58001C04A040014311600020D863012283F8DF
:100B6800252083F824005DF8044B7047144A0A4492
:100B78001049A1FB0212120992004264114A026450
:100B8800B8E7A8321168586C00F01C040F20A04088
:100B980021EA00011160116858685C6C04F01C04BB
:100BA800A04001431160D7E70120704707040240C5
:100BB800F8FFFDBFCDCCCCCC00000240A804024019
:100BC800F8FBFDBF0004024038B590F82440012C22
:100BD80033D0012480F8244090F82540E4B2012C59
:100BE80004D0002380F82430022038BD04460220B7
:100BF80084F825000020E0632568286820F00100BB
:100C080028602046FFF74BFF236B5BB1226813680F
:100C180043F00E0313602268136843F00103136066
:100C28000020E2E72268136823F0040313602268B7
:100C3800136843F00A031360EDE70220D5E738B5DF
:100C4800036C196804682568436C03F01C030422CC
:100C58009A400A4215D015F0040F12D0236813F0F9
:100C6800200F03D1236823F004032360436C03F0AF
:100C78001C02016C042393404B60036B03B198473B
:100C880038BD02229A400A421CD015F0020F19D032
:100C9800236813F0200F06D1236823F00A0323608A
:100CA800012380F82530436C03F01C02016C0223F9
:100CB80093404B60002380F82430C36A002BDFD0B8
:100CC8009847DDE7082202FA03F30B42D8D015F063
:100CD800080FD5D0236823F00E032360436C03F07C
:100CE8001C03016C012202FA03F34B60C26380F813
:100CF8002520002380F82430436B002BC0D0984770
:100D0800BEE70000F0B482B0002341E0D0F82CC068
:100D18002CEA040CC6F3C0049C4044EA0C04C462E8
:100D280086E0062400E00024B4403C430235664EC9
:100D380046F82540654C2568D44304EA05064F6803
:100D480017F4803F01D042EA0506604D2E606D68B9
:100D580004EA05064F6817F4003F01D042EA050689
:100D68005A4D6E60AD6804EA05064F6817F4801F97
:100D780001D042EA0506554DAE60ED682C404E683C
:100D880016F4001F01D042EA0504504AD46001332A
:100D98000A6832FA03F400F0938001249C40224050
:100DA800F5D04D68022D01D0122D10D1DE0808367D
:100DB80050F826C003F00705AF000F25BD402CEA08
:100DC800050C0D69BD4045EA0C0540F8265006683B
:100DD8005F000325BD40ED4305EA060C4E6806F0AA
:100DE8000306BE4046EA0C0606604E6806F1FF3C64
:100DF800BCF1010F03D9112E01D0122E11D1866832
:100E080005EA060CCE68BE4046EA0C0686604668CF
:100E180026EA040C4E68C6F300169E4046EA0C0605
:100E280046604E6806F0030CBCF1030F3FF46EAF4A
:100E3800C46825408C68BC402C43C4604C6814F0DE
:100E4800805FA4D0224C256E45F001052566246EEE
:100E580004F001040194019C9D08AE1C1A4C54F83E
:100E6800267003F00304A6000F24B44027EA040701
:100E7800B0F1904F3FF457AF164CA04216D004F58E
:100E88008064A04214D004F58064A04212D004F516
:100E98008064A04210D004F58064A0420ED004F50E
:100EA8008064A0423FF43DAF07243DE701243BE7BF
:100EB800022439E7032437E7042435E7052433E718
:100EC80002B0F0BC704700BF0000014000040140C0
:100ED8000010024000040048024B186800F4C0608B
:100EE800704700BF00700040B0F5007F0FD0204B66
:100EF8001B6803F4C063B3F5806F37D01C4A1368CE
:100F080023F4C06343F48063136000207047184BD8
:100F18001B6803F4C063B3F5007F25D0144A136837
:100F280023F4C06343F400731360124B1B6802F18F
:100F3800467202F55B3202F28322A2FB03239A0C6B
:100F4800322303FB02F300E0013B23B1084A526954
:100F580012F4806FF8D1064B5B6913F4806F01D1EE
:100F6800002070470320704700207047002070471A
:100F7800007000400800002030B583B00546204BC3
:100F88009B6D13F0805F0BD0FFF7A6FFB0F5007FD5
:100F980017D0802D1FD82DD0702D2DD000211BE00B
:100FA800174CA36D43F08053A365A36D03F08053E2
:100FB8000193019BFFF790FFA36D23F08053A36576
:100FC800E4E7802D03D9A02D03D9022104E00021F4
:100FD80002E0012100E003210A4A136823F0070315
:100FE8000B431360136803F007038B4206D00120FC
:100FF80003B030BD0221EFE70121EDE70020F7E75C
:1010080000100240002002403B4B9B6813F00C0F7D
:101018001AD0394B9B6803F00C030C2B0ED0364BBF
:101028009B6803F00C03042B2FD0334B9B6803F011
:101038000C03082B2CD00020014618E02E4BDB684F
:1010480003F00303012BEAD12B4B1B6813F0080FA5
:1010580014D1294BD3F89430C3F30323274A52F809
:101068002310254B9B6813F00C0F0CD00020224A4C
:10107800936803F00C030C2B0DD070471E4B1B68B4
:10108800C3F30313EAE70846F1E71D480021EEE73A
:101098001C480021EBE71346D26802F00302DB6824
:1010A800C3F302130133022A0AD0032A1AD0B1FB70
:1010B800F3F3114AD068C0F3062000FB03F008E000
:1010C8000F48B0FBF3F30C4AD068C0F3062000FBCE
:1010D80003F0094BDB68C3F3416301335B00B0FBEA
:1010E800F3F0CAE70748B0FBF3F3034AD068C0F34C
:1010F800062000FB03F0ECE700100240383000083F
:101108000024F40000127A00002800F0A88270B5CC
:1011180082B00446036813F0100F3FD0974B9B68CA
:1011280013F00C0F40F09280944B1B6813F0020FE1
:1011380003D08369002B00F09982206A8F4B1B68CB
:1011480013F0080F62D08D4B1B6803F0F003984230
:1011580063D9FFF711FF002840F08A82874B1A688D
:1011680042F008021A601A6822F0F002216A0A4363
:101178001A605A6822F47F42E16942EA01225A6001
:10118800FFF742FF7D4B9B68C3F303137C4AD35C94
:10119800D8407C4B18600020FFF7E4FA236813F06E
:1011A800010F00F0A180754B9B6803F00C03082B1E
:1011B80000F09180714B9B6803F00C030C2B00F03E
:1011C80083806368B3F5803F00F0B580B3F5A02F46
:1011D80000F0B780694B1A6822F480321A601A68E6
:1011E80022F480221A606368002B00F0B780FFF7B2
:1011F800E3FA0546614B1B6813F4003F74D1FFF70F
:10120800DBFA401B6428F5D9032038E25B4BD3F89E
:1012180094301B0903F0F00399E7584B1A6842F021
:1012280008021A601A6822F0F002216A0A431A605A
:101238005A6822F47F42E16942EA01225A60206A30
:10124800FFF79AFE00289BD0012018E2836933B388
:101258004A4A136843F001031360FFF7ADFA0546E5
:10126800464B1B6813F0020F06D1FFF7A5FA401B87
:101278000228F5D9032002E2404B1A6842F008021E
:101288001A601A6822F0F002216A0A431A605A6842
:1012980022F47F42E16942EA01225A607EE7374A36
:1012A800136823F001031360FFF786FA0546334BF2
:1012B8001B6813F0020F3FF471AFFFF77DFA401B74
:1012C8000228F4D90320DAE12C4BDB6803F003038E
:1012D800032B7FF476AF294B1B6813F4003F03D030
:1012E8006368002B00F0C681236813F0020F62D0F8
:1012F800224B9B6803F00C03042B4BD01F4B9B68BD
:1013080003F00C030C2B3FD0E368002B79D01B4A69
:10131800136843F480731360FFF74EFA0546174BC2
:101328001B6813F4806F63D1FFF746FA401B02284D
:10133800F5D90320A3E1114A136843F480331360FD
:1013480051E703F18043A3F53C331A6842F4802245
:101358001A601A6842F480321A6044E7FFF72CFAE0
:101368000546064B1B6813F4003FBDD0FFF724FA6F
:10137800401B6428F5D9032081E100BF001002401A
:101388006830000808000020B64BDB6803F0030350
:10139800022BB9D1B34B1B6813F4806F03D0E368F9
:1013A800002B00F06981AF4A536823F0F853216994
:1013B80043EA01635360236813F0080F4CD0636954
:1013C8009BB3A84AD2F8943043F00103C2F8943092
:1013D800FFF7F2F90546A34BD3F8943013F0020F48
:1013E8003AD1FFF7E9F9401B0228F4D9032046E176
:1013F8009C4A536823F0F853216943EA0163536018
:10140800D9E7984A136823F480731360FFF7D4F977
:101418000546944B1B6813F4806FCCD0FFF7CCF9CA
:10142800401B0228F5D9032029E18E4AD2F89430CE
:1014380023F00103C2F89430FFF7BEF90546894B43
:10144800D3F8943013F0020F06D0FFF7B5F9401B1C
:101458000228F4D9032012E1236813F0040F7BD08B
:10146800804B9B6D13F0805F36D17E4B9A6D42F0B6
:1014780080529A659B6D03F080530193019B01256F
:10148800794B1B6813F4807F28D0A368012B39D0CF
:10149800052B3FD0734BD3F8902022F00102C3F8FC
:1014A8009020D3F8902022F00402C3F89020A3687B
:1014B800002B3DD0FFF780F906466A4BD3F89030F1
:1014C80013F0020F46D1FFF777F9801B41F28833FA
:1014D8009842F2D90320D2E00025D1E7624A136886
:1014E80043F480731360FFF767F906465E4B1B6889
:1014F80013F4807FC9D1FFF75FF9801B0228F5D963
:101508000320BCE0574AD2F8903043F00103C2F8F8
:101518009030CCE7534BD3F8902042F00402C3F844
:101528009020D3F8902042F00102C3F89020BEE743
:10153800FFF742F906464B4BD3F8903013F0020FF1
:1015480008D0FFF739F9801B41F288339842F2D965
:10155800032094E0002D35D1A36A002B00F08E8083
:10156800404A926802F00C020C2A00F08A80022B92
:101578002ED03C4B1A6822F080721A601B6813F058
:10158800006F09D1374B1B6813F0005F04D1354A4F
:10159800D36823F00303D360324AD36823F08873F7
:1015A80023F48033D360FFF707F904462D4B1B68FB
:1015B80013F0007F51D0FFF7FFF8001B0228F5D980
:1015C80003205CE0274A936D23F080539365C3E7BB
:1015D800244A136823F080731360FFF7EDF805467B
:1015E800204B1B6813F0007F06D0FFF7E5F8401B7F
:1015F8000228F5D9032042E0236B5A1E636B1B02B5
:1016080043EA0213A26B120943EA4243E26A134314
:10161800E26B5208013A43EA4253226C5208013AFB
:1016280043EA42630F4AD360136843F08073136040
:10163800D36843F08073D360FFF7BEF80446094BC4
:101648001B6813F0007F06D1FFF7B6F8001B0228CD
:10165800F5D9032013E0002011E000200FE001205D
:10166800704700BF0010024000700040012006E0F3
:10167800012004E0012002E0012000E0002002B087
:1016880070BD0120FBE700BF002800F0998070B50D
:1016980004464D4B1B6803F007038B420CD24A4AA1
:1016A800136823F007030B431360136803F0070361
:1016B8008B4201D0012070BD0D46236813F0010F45
:1016C80039D06368032B09D0022B26D063BB3F4A6D
:1016D800126812F0020F06D10120ECE73B4A1268AB
:1016E80012F0007F6ED039498A6822F00302134352
:1016F8008B60FFF761F80646344B9B6803F00C03D8
:101708006268B3EB820F16D0FFF756F8801B41F2E0
:1017180088339842F0D90320CDE72C4A126812F496
:10172800003FE0D10120C6E7284A126812F4806F12
:10173800D9D10120BFE7236813F0020F06D0234A4E
:10174800936823F0F003A1680B4393601E4B1B685A
:1017580003F00703AB420CD91B4A136823F00703B5
:101768002B431360136803F00703AB4201D0012039
:10177800A1E7236813F0040F06D0144A936823F4F2
:10178800E063E1680B439360236813F0080F07D008
:101798000E4A936823F46053216943EAC1039360B6
:1017A800FFF732FC094B9B68C3F30313084AD35C69
:1017B800D840084B18600020FEF7D4FF00207AE7D5
:1017C80001207047012076E7002002400010024007
:1017D8006830000808000020014B1868704700BFF7
:1017E8000800002008B5FFF7F7FF044B9B68C3F318
:1017F8000223034AD35CD84008BD00BF0010024052
:101808007830000808B5FFF7E7FF044B9B68C3F37F
:10181800C223034AD35CD84008BD00BF0010024071
:1018280078300008F8B55A4BDB6813F0030F18D06E
:10183800574BDB6803F003030268934202D001258B
:101848002846F8BD002A00F0A080514BDB68C3F39E
:10185800021301334268934201D00125F0E70025C5
:101868001AE00368022B59D0032B5ED0012B01D05C
:1018780001250FE0464A126812F0020F61D0444D6C
:10188800EA6822F073024468013C43EA04131343F4
:10189800EB600025002DD3D10F4604463C4A13685F
:1018A80023F080631360FEF787FF0646384B1B68FA
:1018B80013F0006F05D0FEF77FFF801B0228F5D9D3
:1018C8000325002DBCD1002F3DD131490B6923F4EC
:1018D8001F3323F44073A068E2681209520442EAF5
:1018E800002213430B612A4A136843F08063136094
:1018F800FEF762FF0646264B1B6813F0006F05D102
:10190800FEF75AFF801B0228F5D90325002D97D131
:101918001F4A1369A1690B43136191E71C4A1268B6
:1019280012F4806FABD10125B4E7194A126812F49A
:10193800003FA4D1164A126812F4802F9FD10125C6
:10194800A8E70125A6E7012F0FD01148026922F068
:10195800C06222F4FE42A16863695B08013B5B0632
:1019680043EA012313430361BDE70948026922F4EE
:10197800C00222F4FE42A16823695B08013B5B05B3
:1019880043EA012313430361ADE7012558E700BF8C
:1019980000100240F8B5514BDB6813F0030F18D064
:1019A8004E4BDB6803F003030268934202D0012523
:1019B8002846F8BD002A00F08E80484BDB68C3F348
:1019C800021301334268934201D00125F0E7002554
:1019D8001AE00368022B59D0032B5ED0012B01D0EB
:1019E80001250FE03D4A126812F0020F61D03B4D0D
:1019F800EA6822F073024468013C43EA0413134383
:101A0800EB600025002DD3D10F460446334A1368F6
:101A180023F080531360FEF7CFFE06462F4B1B685A
:101A280013F0005F05D0FEF7C7FE801B0228F5D92A
:101A38000325002DBCD1002F3DD128494B6923F443
:101A48001F3323F44073A068E2681209520442EA83
:101A5800002213434B61214A136843F080531360FB
:101A6800FEF7AAFE06461D4B1B6813F0005F05D162
:101A7800FEF7A2FE801B0228F5D90325002D97D179
:101A8800164A536961690B43536191E7134A126817
:101A980012F4806FABD10125B4E7104A126812F432
:101AA800003FA4D10D4A126812F4802F9FD101255E
:101AB800A8E70125A6E70948426922F0C06222F496
:101AC800FE42A16823695B08013B5B0643EA0123E8
:101AD80013434361BFE701256AE700BF00100240D6
:101AE8002DE9F04182B00446036813F4006F2FD04B
:101AF800436EB3F5800F25D008D9B3F5000F10D089
:101B0800B3F5400F40F09980002610E0002B40F01C
:101B1800948000210430FFF785FE06463EB1374623
:101B280018E05E4AD36843F48033D36000265B4AEA
:101B3800D2F8883023F44003616E0B43C2F8883032
:101B4800002707E000212030FFF724FF0646E5E7DD
:101B580000273E46236813F4805F15D0A36EB3F1C7
:101B6800807F7AD06CD9B3F1007F70D0B3F1407F19
:101B78007AD1002E7BD1494AD2F8883023F04073BD
:101B8800A16E0B43C2F88830236813F4003F00F0BD
:101B98008E80424B9B6D13F0805F6AD13F4B9A6DEC
:101BA80042F080529A659B6D03F080530193019B2C
:101BB8004FF001083A4A136843F480731360FEF744
:101BC800FBFD0546364B1B6813F4807F05D1FEF7F5
:101BD800F3FD401B0228F5D90326002E62D12F4BB6
:101BE800D3F8903013F4407316D0D4F884209A4276
:101BF80012D02A4AD2F8903023F44073D2F89010C9
:101C080041F48031C2F89010D2F8901021F480315C
:101C1800C2F89010C2F8903013F0010F2CD1002EAA
:101C280040F043811D4AD2F8903023F44073D4F831
:101C380084100B43C2F8903035E001273E4689E70F
:101C480093B90021201DFFF7EDFD064691E7134AE1
:101C5800D36843F48033D3608BE7002104F120007C
:101C6800FFF798FE064684E701273E468CE737468D
:101C78008AE74FF000089DE7FEF79EFD0546074BF3
:101C8800D3F8903013F0020FC9D1FEF795FD401B31
:101C980041F288339842F2D90326C0E70010024087
:101CA800007000403746B8F1000F40F0008123680B
:101CB80013F0010F08D09D4AD2F8883023F00303AF
:101CC800A16B0B43C2F88830236813F0020F08D0C9
:101CD800964AD2F8883023F00C03E16B0B43C2F824
:101CE8008830236813F0040F08D0904AD2F888305F
:101CF80023F03003216C0B43C2F88830236813F0BB
:101D0800080F08D0894AD2F8883023F0C003616CE4
:101D18000B43C2F88830236813F0100F08D0834AA9
:101D2800D2F8883023F44073A16C0B43C2F8883092
:101D3800236813F0200F08D07C4AD2F8883023F4A7
:101D48004063E16C0B43C2F88830236813F4007FCA
:101D580008D0764AD2F8883023F44023E16D0B434B
:101D6800C2F88830236813F4806F08D06F4AD2F81D
:101D7800883023F44013216E0B43C2F8883023685F
:101D880013F0400F08D0694AD2F8883023F4405342
:101D9800216D0B43C2F88830236813F0800F08D0F8
:101DA800624AD2F8883023F44043616D0B43C2F88D
:101DB8008830236813F4807F08D05C4AD2F88830D2
:101DC80023F44033A16D0B43C2F88830236813F421
:101DD800005F0FD0554AD2F8883023F04063E16E97
:101DE8000B43C2F88830E36EB3F1006F65D0B3F1EE
:101DF800806F67D0236813F4002F0FD04B4AD2F8B6
:101E0800883023F04063216F0B43C2F88830236F7A
:101E1800B3F1006F5ED0B3F1806F60D0236813F424
:101E2800802F0FD0414AD2F8883023F04063616F89
:101E38000B43C2F88830636FB3F1006F57D0B3F12A
:101E4800806F59D0236813F4804F0FD0374AD2F8E7
:101E5800883023F04053A16F0B43C2F88830A36F3A
:101E6800B3F1805F50D0B3F1005F55D0236813F40D
:101E7800004F08D02D4AD2F8883023F08043E16F14
:101E88000B43C2F88830236813F4803F09D0274AEF
:101E9800D2F8883023F00043D4F880100B43C2F8FE
:101EA8008830384602B0BDE8F0813746FBE61F4A65
:101EB800936D23F080539365F9E6D36843F4801358
:101EC800D36097E70121201DFFF7ACFC002891D0D3
:101ED80007468FE7D36843F48013D3609EE7012158
:101EE800201DFFF79FFC002898D0074696E7D36887
:101EF80043F48013D360A5E70121201DFFF792FC6E
:101F080000289FD007469DE70221201DFFF78AFC85
:101F18000028ABD00746A9E7022104F12000FFF70B
:101F280039FD0028A2D00746A0E700BF00100240F4
:101F380008B5B0F5003F39D0C64BDB6803F00303A2
:101F4800012B5DD0C34BDB6803F00303022B6FD07A
:101F5800C04BDB6803F00303032B70D00023B0F5FC
:101F6800007F00F0608300F2C080102800F06D82CE
:101F780000F28780022800F009826DD9042800F059
:101F88002982082840F03481B24BD3F8883013F006
:101F9800C00300F04382402B00F04382802B00F006
:101FA8004382C02B00F0488200200EE0A94BD3F8F2
:101FB800903003F44073B3F5807F07D0B3F5007F0A
:101FC8000DD0B3F5407F13D0002008BDA14AD2F848
:101FD800902012F0020FF1D04FF40040F5E79D4A2F
:101FE800D2F8942012F0020FEBD04FF4FA40ECE74D
:101FF800984B1B6813F4003F40F066830020E4E729
:10200800944B1B6813F0020F20D0924B1B6813F0FF
:10201800080F07D08F4B1B68C3F303138E4A52F87F
:1020280023309CE78B4BD3F89430C3F30323F5E7B5
:10203800884B1B6813F4806F0AD0884B8FE7854B59
:102048001B6813F4003F05D0854B88E7002386E71B
:10205800002384E7002382E7012840F0C9807D4BF4
:10206800D3F8883013F0030300F07981012B00F0D6
:102078007981022B00F07981032B00F07E8100200A
:10208800A3E7402800F0818217D9802800F09C82BD
:10209800B0F5807F40F0AC806E4BD3F8883013F4F5
:1020A800403300F0B082B3F5803F00F0AF82B3F563
:1020B800003F00F0AE82002087E7202840F098809B
:1020C800644BD3F8883013F4406300F0E581B3F52E
:1020D800806F00F0E481B3F5006F00F0E381B3F5A1
:1020E800406F00F0E78100206FE7B0F5804F00F007
:1020F800ED8116D9B0F5803F00F03C8272D8B0F57A
:10210800004F75D1534BD3F8883013F0804F00F04F
:10211800D682504B1B6813F4806F40F0D3820020A6
:1021280053E7B0F5006F1BD017D8B0F5806F5FD1BB
:10213800484BD3F8883013F4401300F0A382B3F56A
:10214800801F00F0A282B3F5001F00F0A882B3F54B
:10215800401F00F0AC82002037E7B0F5805F2DD13A
:10216800B0F5006F46D03B4AD2F8880000F04070C6
:10217800B0F1407F00F0AA82B0F5000F44D0B0F172
:10218800007F41D000285DD1324A126912F4803FA5
:102198003FF41BAF2F4AD068C0F302100130B3FBE5
:1021A800F0F31069C0F30620126912F4003F47D11A
:1021B800072200FB03F0B0FBF2F006E7B0F5005F82
:1021C80016D1244AD2F8882002F04062B2F1406F5A
:1021D80066D0B2F1006F7CD0B2F1806F00F09C80C5
:1021E8000020F2E6B0F5802FEBD0B0F5002FE8D054
:1021F8000020EAE6174AD2F8880000F44000B0F55B
:10220800400FB9D11748E0E6124AD26812F4803F6D
:1022180000F05E820F4AD068C0F302100130B3FBB1
:10222800F0F3D068C0F30620D26812F4003F05D15D
:10223800072200FB03F0B0FBF2F0C6E61122F8E734
:102248001122B6E7B0F5800F0ED0B0F1807F0BD029
:102258000020BAE600100240383000080024F400DC
:1022680000127A0068FF1F00BF4A526912F4803FCB
:1022780000F03082BC4AD068C0F302100130B3FBD2
:10228800F0F35069C0F30620526912F4003F05D1FB
:10229800072200FB03F0B0FBF2F096E61122F8E704
:1022A800B14B1B6813F0020F00F01682AE4B1B688F
:1022B80013F0080F07D0AC4B1B68C3F30313AB4AEA
:1022C80052F8230081E6A84BD3F89430C3F30323D4
:1022D800F5E702F1605202F50432126812F0007F4D
:1022E80000F0FC81A04AD26812F4801F00F0F88147
:1022F8009D4AD068C0F302100130B3FBF0F3D068F8
:10230800C0F3062000FB03F0D368C3F34153013345
:102318005B00B0FBF3F058E602F1705202F50432AC
:10232800126812F0006F00F0DD818F4A126912F412
:10233800801F00F0D9818C4AD068C0F302100130A8
:10234800B3FBF0F31069C0F3062000FB03F0136938
:10235800C3F3415301335B00B0FBF3F035E6FFF7FD
:1023680051FA32E6FEF750FE2FE67F4A126812F461
:10237800806F3FF481AE7E4827E67B4BD3F89030E0
:1023880013F0020F40F0B28100201EE6764BD3F81E
:10239800883013F00C0307D0042B08D0082B09D081
:1023A8000C2B0ED0002010E6FFF71CFA0DE6FEF706
:1023B8002BFE0AE66C4A126812F4806FF0D06C4863
:1023C80003E6694BD3F8903013F0020F40F0918187
:1023D8000020FAE5644BD3F8883013F0300307D0B7
:1023E800102B08D0202B09D0302B0ED00020ECE584
:1023F800FFF7F8F9E9E5FEF707FEE6E55A4A12683D
:1024080012F4806FF0D05A48DFE5574BD3F890307C
:1024180013F0020F40F070810020D6E5FFF7E2F9D3
:10242800D3E5FEF7F1FDD0E54F4A126812F4806F4C
:102438003FF4B7AD4E48C8E54B4BD3F8903013F096
:10244800020F40F05C810020BFE5474BD3F888308D
:1024580013F440730AD0B3F5807F0AD0B3F5007F38
:102468000AD0B3F5407F0ED00020AEE5FFF7BAF9E9
:10247800ABE5FEF7C9FDA8E53B4A126812F4806F88
:10248800EFD03B48A1E5384BD3F8903013F0020F5A
:1024980040F03881002098E5FFF7A4F995E5FEF7AC
:1024A800B3FD92E5304A126812F4806F3FF417AE1C
:1024B8002F488AE503F1804303F50133D3F89030C0
:1024C80013F0020F40F0218100207EE5264AD2F861
:1024D800882002F04052B2F1405F07D0B2F1805F2D
:1024E80007D0B2F1005F21D000206EE5FEF78CFD29
:1024F8006BE502F1405202F50432126912F0807F56
:1025080000F00681184AD068C0F302100130B3FB0E
:10251800F0F31069C0F3062000FB03F01369C3F35E
:10252800416301335B00B0FBF3F04EE502F100526A
:1025380002F50432526912F0807F00F0EB800A4AFB
:10254800D068C0F302100130B3FBF0F35069C0F358
:10255800062000FB03F05369C3F3416301335B00BA
:10256800B0FBF3F031E500BF00100240383000083E
:102578000024F4006E4BD3F88830002B02DBFFF701
:1025880041F922E5FEF740FD1FE5694BD3F8883095
:1025980013F4405307D0B3F5805F07D0B3F5005F5D
:1025A80007D0002011E5FFF71DF90EE5FEF72CFD19
:1025B8000BE503F1804303F5F8331B6813F4806FD0
:1025C80040F0AA80002000E5594BD3F8883013F476
:1025D800404307D0B3F5804F07D0B3F5004F07D07D
:1025E8000020F2E4FFF7FEF8EFE4FEF70DFDECE45F
:1025F80003F1804303F5C8331B6813F4806F40F080
:102608008D800020E1E4FFF7EDF8DEE4FEF7FCFC46
:10261800DBE403F1804303F580531B6813F4806FF8
:102628007ED10020D1E4424BD3F8883013F4402304
:102638000AD0B3F5802F0AD0B3F5002F10D0B3F528
:10264800402F14D00020C0E4FFF7CCF8BDE4384A8E
:10265800D2F8942012F0020FEED04FF4FA40B4E40E
:10266800334A126812F4806FE9D03248ADE403F1BE
:102678008043A3F51F23D3F8903013F0020F51D1F4
:102688000020A2E4FFF7AEF89FE4294AD2F894208C
:1026980012F0020F3FF457AD4FF4FA4095E4244A84
:1026A800126812F4806F3FF452AD22488DE4204B3B
:1026B800D3F8903013F0020F37D1002085E4FFF7EC
:1026C80091F882E41B4880E41B487EE41B487CE4C4
:1026D80000207AE4002078E4002076E4002074E406
:1026E800002072E4002070E400206EE44FF4004003
:1026F8006BE44FF4004068E44FF4004065E44FF4A5
:10270800004062E44FF400405FE44FF400405CE4B2
:1027180000205AE4002058E4064856E4054854E4EA
:10272800044852E44FF400404FE44FF400404CE4B6
:10273800001002400024F40090D0030068FF1F003E
:1027480070B4044600202063A063606820B10228AA
:1027580002D00120E06301E00020E0634FF4803004
:10276800A0644FF6FF70206600206065E36513F0F3
:10277800010F49D139B1022910D84FF40030E06473
:102788000020206504E00020E0644FF480252565E2
:10279800032A34D8DFE802F004161F290120F7E7DE
:1027A800802565635B085D0125641B016364402324
:1027B800A365022929D1012A23D0022A25D1082379
:1027C800636522E0802565635B089E0126645B01E2
:1027D8006364A565EDE7C02565635B089D01256415
:1027E8005B0163648023A365E3E7E02565635B0819
:1027F8009D0125645B0163648023A365D9E70120FB
:10280800D7E710236365D8E7012070BC704730B460
:10281800002404638463446824B1022C02D0002499
:10282800C46301E00124C463002484644FF40035C8
:10283800C5644FF4802505654465C3654FF6FF748C
:10284800046603290AD004290CD10121416400211E
:10285800032A26D8DFE802F00811171E0D2141646B
:102868000021F5E70121F3E7802242631B0103649D
:1028780040238365084630BC7047802242635B0171
:1028880003648265F6E7C02242635B010364802328
:102898008365EFE7E02242635B010364802383657D
:1028A800E8E70121E6E701290AD00123026B082A9B
:1028B80008D04268023A012A0CD943F00400704754
:1028C8000923F3E74268032A01D0012AF1D143F032
:1028D8001003EEE743F06000704700000E4B1B68E2
:1028E8000E4AA2FB03231B0B9B0001680A6822F413
:1028F80080320A603BB1013B0268126812F4803FE3
:10290800F8D100207047D0F8803043F04003C0F879
:1029180080300320704700BF080000201BECCB95D7
:10292800F8B5002800F0D680044690F87D300BB347
:102938002046FFF7D3FF0546002840F0CD8002234C
:1029480084F87D30E368012B1BD0022B17D00022BE
:10295800A368022B17D0032B18D0012B1BD00026FD
:1029680023685E498B4219D020318B4216D05C4BCC
:102978001A6015E080F87C30FDF74CFED8E720227D
:10298800E6E71022E4E74FF40066E9E742F00102C7
:102998004FF40066E4E74FF48066E1E7514B1A60B4
:1029A800E3691BB323684D4A934207D02032934210
:1029B80004D04FF48050FFF7BBFA03E04FF40060F7
:1029C800FFF7B6FA00EB80004100E3695B02B1FB58
:1029D800F3F1454BA3FB0123DB08236203EB8300E0
:1029E80042008A1A082A01D901332362636833B185
:1029F800022B04D0E36B012B69D0002704E0E36BC2
:102A0800012B62D04FF4007721680B68374A1A40CF
:102A18000A6021680A686368206B0343606B03439C
:102A2800A06B03433B433343606A0343206903437A
:102A380060690343206A43EA005313430B6022682A
:102A4800536823F4604323F00F03536021684A68F6
:102A5800A369A06A0343E06A034313434B602268F7
:102A68009168234B0B40936020688268236C013B7C
:102A7800216D0B43A16C0B43E16C0B43616C013975
:102A880043EA0123134383602268D36823F47D63F8
:102A980023F00F031B041B0CD3602068C268636D0E
:102AA800A16D0B43216E43EA0143E16D013943EA0D
:102AB80001231343C3600023C4F88030012284F843
:102AC8007D2084F87C302846F8BD00279CE74FF429
:102AD800007799E70125F6E70125F4E7045401405A
:102AE8000058014000540140CDCCCCCC10C005FFAB
:102AF8000080F8FF10B50446042911D8DFE801F07A
:102B08000303030808002046FFF71AFE20B110BD92
:102B18002046FFF77CFEF9E72046FFF701FFF6E7BE
:102B28000120F4E790F87C30012B0CD0012380F8C9
:102B38007C300268136823F400331360002380F8A4
:102B48007C30184670470220704790F87C30012B83
:102B580015D0012380F87C300268136843F40033F1
:102B6800136003681A6812F4803F03D11A6842F4AC
:102B780080321A60002380F87C30184670470220A3
:102B88007047000038B500294ED0002A4ED090F882
:102B98007D30DBB2012B4CD190F87C30012B4AD030
:102BA8000B460446012180F87C104366A0F8682093
:102BB800A0F86A200023C0F88030222280F87D2007
:102BC800026F1E491163026F1D49D162026F1D49D0
:102BD8005163026F93630168B0F86830426E1C312C
:102BE800006FFDF7F1FF0546C8B923681A6812F4AB
:102BF800803F03D11A6842F480321A6000212046CF
:102C0800FFF751FE226813691843106122681368A0
:102C180043F400331360002384F87C3007E000237A
:102C280084F87C30012502E0012500E001252846D2
:102C380038BD0225FBE70225F9E700BF892C00080B
:102C4800512C0008952C000810B5846AC369202B04
:102C580012D02268136823F4003313600021A4F80B
:102C68006A102046FFF71FFE2268136923EA000056
:102C78001061012384F87D302046FDF707FB10BD65
:102C880008B5806AFDF72CFB08BD704710B5846A4B
:102C9800D4F8803043F08003C4F880302268136889
:102CA80023F4003313602046FFF718FE012384F84D
:102CB8007D300023A4F86A302046FFF7E6FF10BDF8
:102CC8007047704770477047704710B504460368EF
:102CD8001A6912F0020F11D0DA6812F0020F0DD043
:102CE8006FF002021A610123037703689B6913F0EE
:102CF800030F79D0FFF7E6FF0023237723681A69CB
:102D080012F0040F12D0DA6812F0040F0ED06FF030
:102D180004021A610223237723689B6913F4407F16
:102D280068D02046FFF7CEFF0023237723681A696F
:102D380012F0080F12D0DA6812F0080F0ED06FF0F8
:102D480008021A61042323772368DB6913F0030F51
:102D580057D02046FFF7B6FF0023237723681A6968
:102D680012F0100F12D0DA6812F0100F0ED06FF0B8
:102D780010021A61082323772368DB6913F4407F64
:102D880046D02046FFF79EFF0023237723681A6961
:102D980012F0010F03D0DA6812F0010F3FD1236857
:102DA8001A6912F0800F03D0DA6812F0800F3DD153
:102DB80023681A6912F4807F03D0DA6812F0800F52
:102DC8003BD123681A6912F0400F03D0DA6812F079
:102DD800400F39D123681A6912F0200F03D0DA683E
:102DE80012F0200F37D110BDFFF76BFF2046FFF719
:102DF8006AFF81E72046FFF764FF2046FFF763FF7D
:102E080092E72046FFF75DFF2046FFF75CFFA3E748
:102E18002046FFF756FF2046FFF755FFB4E76FF04F
:102E280001021A612046FFF74BFFB8E76FF08002F6
:102E38001A61204600F0C7F8BAE76FF480721A6189
:102E4800204600F0C1F8BCE76FF040021A61204646
:102E5800FFF73AFFBEE76FF020021A61204600F044
:102E6800B1F8C0E70368304A904212D0B0F1804F01
:102E78000FD0A2F5943290420BD002F580629042B6
:102E880007D002F58062904203D002F59432904256
:102E980003D123F070034A681343234A90421ED09B
:102EA800B0F1804F1BD0A2F59432904217D002F5B2
:102EB8008062904213D002F5806290420FD002F5F2
:102EC800943290420BD002F54062904207D002F54E
:102ED8008062904203D002F58062904203D123F4CD
:102EE8004073CA68134323F080034A69134303609D
:102EF8008B68C3620B6883620B4B98420FD003F553
:102F0800006398420BD003F54063984207D003F55D
:102F18008063984203D003F58063984201D10B691E
:102F28000363012343617047002C0140A8B110B529
:102F3800044690F83D305BB1022384F83D30211DF2
:102F48002068FFF78FFF012384F83D30002010BD73
:102F580080F83C30FDF73EFBEEE7012070470000AB
:102F680090F83C30012B28D030B4012380F83C3055
:102F7800022380F83D30026853689568104CA242DD
:102F880003D004F50064A24203D123F470034C6813
:102F9800234323F070030C68234325F080048968D9
:102FA8002143536003689960012380F83D30002372
:102FB80080F83C30184630BC70470220704700BF8C
:102FC800002C0140704770477047000070B50D4EE7
:102FD8000D4CA41BA4100025A54209D10B4E0C4C86
:102FE80000F018F8A41BA4100025A54205D170BD57
:102FF80056F8253098470135EEE756F825309847BA
:103008000135F2E72031000820310008203100089E
:1030180024310008F8B500BFF8BC08BC9E467047CC
:10302800F8B500BFF8BC08BC9E4670470000000019
:10303800A0860100400D0300801A060000350C0030
:1030480040420F0080841E0000093D0000127A00F3
:103058000024F40000366E010048E801006CDC0230
:103068000000000000000000010203040607080930
:103078000000000001020304443A2F446F6B756D91
:10308800656E74792F50726163615F696E7A796ECB
:10309800696572736B612F536F6674776172652F00
:1030A800746163746963616C5F6865616470686F9B
:1030B8006E65732F5372632F6D61696E2E63000006
:1030C800443A2F446F6B756D656E74792F50726139
:1030D80063615F696E7A796E696572736B612F538C
:1030E8006F6674776172652F746163746963616C6C
:1030F8005F6865616470686F6E65732F5372632FC4
:1031080073746D33326C3478785F68616C5F6D739B
:08311800702E630000000000AE
:08312000AD01000800000000F1
:0831280089010008000000000D
:10313000050005000500000000093D00000000003A
:04000005080001C925
:00000001FF
