:020000040800F2
:1000000000800120B10D0008C5190008C7190008BB
:10001000C9190008CB190008CD190008000000001C
:10002000000000000000000000000000CF190008E0
:10003000D119000800000000D3190008D5190008E4
:10004000010E0008010E0008010E0008010E000854
:10005000010E0008010E0008010E0008010E000844
:10006000010E0008010E0008010E0008010E000834
:10007000010E0008E1190008010E0008010E000839
:10008000010E0008010E0008010E0008010E000814
:10009000010E0008010E0008010E0008010E000804
:1000A000010E0008010E0008010E0008010E0008F4
:1000B000010E0008F1190008010E0008010E0008E9
:1000C000010E0008010E0008010E0008010E0008D4
:1000D000010E0008010E0008010E0008010E0008C4
:1000E000010E0008010E0008010E0008010E0008B4
:1000F000010E0008010E0008010E0008011A000898
:10010000010E0008010E0008010E0008010E000893
:10011000010E0008010E0008010E0008010E000883
:10012000010E0008010E0008111A0008010E000857
:10013000010E0008010E0008010E0008010E000863
:10014000010E0008010E0008010E0008010E000853
:10015000010E0008010E0008010E0008010E000843
:10016000010E0008010E0008010E0008010E000833
:10017000010E0008010E0008010E0008000000003A
:08018000010E0008010E000849
:1001880010B5054C237833B9044B13B10448AFF3C9
:1001980000800123237010BD18000020000000001B
:1001A8002856000808B5034B1BB103490348AFF3B1
:1001B800008008BD000000001C0000202856000830
:1001C80081F0004102E000BF83F0004330B54FEA00
:1001D80041044FEA430594EA050F08BF90EA020F6D
:1001E8001FBF54EA000C55EA020C7FEA645C7FEA00
:1001F800655C00F0E2804FEA5454D4EB5555B8BF23
:100208006D420CDD2C4480EA020281EA030382EA93
:10021800000083EA010180EA020281EA0303362D25
:1002280088BF30BD11F0004F4FEA01314FF4801CF8
:100238004CEA113102D0404261EB410113F0004F0A
:100248004FEA03334CEA133302D0524263EB4303C1
:1002580094EA050F00F0A780A4F10104D5F1200E5F
:100268000DDB02FA0EFC22FA05F2801841F10001BA
:1002780003FA0EF2801843FA05F359410EE0A5F18E
:1002880020050EF1200E012A03FA0EFC28BF4CF0BF
:10029800020C43FA05F3C01851EBE37101F0004575
:1002A80007D54FF0000EDCF1000C7EEB00006EEB82
:1002B8000101B1F5801F1BD3B1F5001F0CD349080C
:1002C8005FEA30004FEA3C0C04F101044FEA445263
:1002D80012F5800F80F09A80BCF1004F08BF5FEAEA
:1002E800500C50F1000041EB045141EA050130BDCA
:1002F8005FEA4C0C404141EB010111F4801FA4F16D
:100308000104E9D191F0000F04BF01460020B1FAC1
:1003180081F308BF2033A3F10B03B3F120020CDAF9
:100328000C3208DD02F1140CC2F10C0201FA0CF0D7
:1003380021FA02F10CE002F11402D8BFC2F1200C3C
:1003480001FA02F120FA0CFCDCBF41EA0C019040F2
:10035800E41AA2BF01EB0451294330BD6FEA04043B
:100368001F3C1CDA0C340EDC04F11404C4F1200226
:1003780020FA04F001FA02F340EA030021FA04F338
:1003880045EA030130BDC4F10C04C4F1200220FA8F
:1003980002F001FA04F340EA0300294630BD21FACD
:1003A80004F0294630BD94F0000F83F4801306BF93
:1003B80081F480110134013D4EE77FEA645C18BF87
:1003C8007FEA655C29D094EA050F08BF90EA020F1E
:1003D80005D054EA000C04BF1946104630BD91EA16
:1003E800030F1EBF0021002030BD5FEA545C05D119
:1003F8004000494128BF41F0004130BD14F5800458
:100408003CBF01F5801130BD01F0004545F0FE41CB
:1004180041F470014FF0000030BD7FEA645C1ABF00
:10042800194610467FEA655C1CBF0B46024650EA37
:10043800013406BF52EA033591EA030F41F4002163
:1004480030BD00BF90F0000F04BF0021704730B5E9
:100458004FF4806404F132044FF000054FF00001BE
:1004680050E700BF90F0000F04BF0021704730B57F
:100478004FF4806404F1320410F0004548BF404254
:100488004FF000013EE700BF42004FEAE2014FEAA9
:1004980031014FEA02701FBF12F07F4393F07F4F84
:1004A80081F06051704732F07F4208BF704793F087
:1004B8007F4F04BF41F40021704730B54FF460749A
:1004C80001F0004521F000411CE700BF50EA01029D
:1004D80008BF704730B54FF000050AE050EA010246
:1004E80008BF704730B511F0004502D5404261EBB6
:1004F80041014FF4806404F132045FEA915C3FF4F7
:10050800D8AE4FF003025FEADC0C18BF03325FEA93
:10051800DC0C18BF033202EBDC02C2F1200300FA44
:1005280003FC20FA02F001FA03FE40EA0E0021FA69
:1005380002F11444BDE600BF70B54FF0FF0C4CF457
:10054800E06C1CEA11541DBF1CEA135594EA0C0F09
:1005580095EA0C0F00F0DEF82C4481EA030621EA44
:100568004C5123EA4C5350EA013518BF52EA03357F
:1005780041F4801143F4801338D0A0FB02CE4FF031
:100588000005E1FB02E506F00042E0FB03E54FF061
:100598000006E1FB03569CF0000F18BF4EF0010E59
:1005A800A4F1FF04B6F5007F64F5407404D25FEA55
:1005B8004E0E6D4146EB060642EAC62141EA555108
:1005C8004FEAC52040EA5E504FEACE2EB4F1FD0C4A
:1005D80088BFBCF5E06F1ED8BEF1004F08BF5FEAC8
:1005E800500E50F1000041EB045170BD06F000467A
:1005F80046EA010140EA020081EA0301B4EB5C0427
:10060800C2BFD4EB0C0541EA045170BD41F480111E
:100618004FF0000E013C00F3AB8014F1360FDEBF43
:10062800002001F0004170BDC4F10004203C35DA1F
:100638000C341BDC04F11404C4F1200500FA05F3A2
:1006480020FA04F001FA05F240EA020001F0004243
:1006580021F0004110EBD37021FA04F642EB0601B9
:100668005EEA430E08BF20EAD37070BDC4F10C04E3
:10067800C4F1200500FA04F320FA05F001FA04F2A7
:1006880040EA020001F0004110EBD37041F1000193
:100698005EEA430E08BF20EAD37070BDC4F120059E
:1006A80000FA05F24EEA020E20FA04F301FA05F206
:1006B80043EA020321FA04F001F0004121FA04F2AE
:1006C80020EA020000EBD3705EEA430E08BF20EA7E
:1006D800D37070BD94F0000F0FD101F000464000B8
:1006E80041EB010111F4801F08BF013CF7D041EA3A
:1006F800060195F0000F18BF704703F0004652003E
:1007080043EB030313F4801F08BF013DF7D043EA0E
:100718000603704794EA0C0F0CEA135518BF95EAC4
:100728000C0F0CD050EA410618BF52EA4306D1D14B
:1007380081EA030101F000414FF0000070BD50EA6A
:10074800410606BF1046194652EA430619D094EAF4
:100758000C0F02D150EA013613D195EA0C0F05D1DE
:1007680052EA03361CBF104619460AD181EA030132
:1007780001F0004141F0FE4141F470014FF00000EA
:1007880070BD41F0FE4141F4780170BD70B54FF085
:10079800FF0C4CF4E06C1CEA11541DBF1CEA135505
:1007A80094EA0C0F95EA0C0F00F0A7F8A4EB0504E7
:1007B80081EA030E52EA03354FEA013100F08880DE
:1007C8004FEA03334FF0805545EA131343EA1263A7
:1007D8004FEA022245EA111545EA10654FEA00265C
:1007E8000EF000419D4208BF964244F1FD0404F515
:1007F800407402D25B084FEA3202B61A65EB030571
:100808005B084FEA32024FF480104FF4002CB6EB2D
:10081800020E75EB030E22BFB61A754640EA0C00AD
:100828005B084FEA3202B6EB020E75EB030E22BFED
:10083800B61A754640EA5C005B084FEA3202B6EB2E
:10084800020E75EB030E22BFB61A754640EA9C00ED
:100858005B084FEA3202B6EB020E75EB030E22BFBD
:10086800B61A754640EADC0055EA060E18D04FEA7B
:10087800051545EA16754FEA06164FEAC30343EA1B
:1008880052734FEAC2025FEA1C1CC0D111F4801FE8
:100898000BD141EA00014FF000004FF0004CB6E7E1
:1008A80011F4801F04BF01430020B4F1FD0C88BF80
:1008B800BCF5E06F3FF6AFAEB5EB030C04BFB6EB8B
:1008C800020C5FEA500C50F1000041EB045170BD7E
:1008D8000EF0004E4EEA113114EB5C04C2BFD4EBAB
:1008E8000C0541EA045170BD41F480114FF0000E2F
:1008F800013C90E645EA060E8DE60CEA135594EAAB
:100908000C0F08BF95EA0C0F3FF43BAF94EA0C0FAD
:100918000AD150EA01347FF434AF95EA0C0F7FF422
:1009280025AF104619462CE795EA0C0F06D152EA76
:1009380003353FF4FDAE1046194622E750EA41065A
:1009480018BF52EA43067FF4C5AE50EA41047FF46B
:100958000DAF52EA43057FF4EBAE12E74A0011D21D
:1009680012F5001211D20DD56FF47873B3EB625201
:100978000ED44FEAC12343F0004343EA505323FA0D
:1009880002F070474FF00000704750EA013002D182
:100998004FF0FF3070474FF0000070474FEA4102B8
:1009A800B2F1E04324BFB3F5001CDCF1FE5C0DD9C5
:1009B80001F0004C4FEAC0024CEA5070B2F1004F0F
:1009C80040EB830008BF20F00100704711F0804F12
:1009D80021D113F13872BCBF01F00040704741F4D7
:1009E80080114FEA5252C2F11802C2F1200C10FADB
:1009F8000CF320FA02F018BF40F001004FEAC123BF
:100A08004FEAD32303FA0CFC40EA0C0023FA02F362
:100A18004FEA4303CCE77FEA625307D150EA013338
:100A28001EBF4FF0FE4040F44000704701F0004008
:100A380040F0FE4040F40000704700BF53B94AB987
:100A4800002908BF00281CBF4FF0FF314FF0FF30CE
:100A580000F0A8B9ADF1080C6DE904CE00F03CF83F
:100A6800DDF804E0DDE9022304B0704707EE900AE0
:100A7800F5EEC07AF1EE10FA01D400F009B808B525
:100A880080F0004000F004F8404261EB410108BDED
:100A9800D0B5FFF7F9FC00220D4B06460F46FFF7CD
:100AA8004BFDFFF75BFF0446FFF7CCFC0022094B28
:100AB800FFF742FD02460B4630463946FFF784FBF6
:100AC800FFF74CFF0022234610431946D0BD00BF54
:100AD8000000F03D0000F0412DE9F047089E044673
:100AE8008846002B4BD18A42154667D9B2FA82F262
:100AF8004AB1C2F1200701FA02F320FA07F795403C
:100B080047EA030894404FEA154E230CB8FBFEF75A
:100B18001FFA85FC0EFB178843EA084307FB0CF114
:100B2800994209D9EB1807F1FF3080F01B819942EF
:100B380040F21881023F2B445B1AA4B2B3FBFEF0CB
:100B48000EFB103344EA034400FB0CFCA44509D90E
:100B58002C1900F1FF3380F00781A44540F204818D
:100B680002382C4440EA0740A4EB0C0400271EB1CD
:100B7800D4400023C6E900433946BDE8F0878B42DC
:100B880009D9002E00F0EB800027C6E9000138469D
:100B98003946BDE8F087B3FA83F7002F47D18B4277
:100BA80002D3824200F2FA80841A61EB0303012027
:100BB8009846002EE0D0C6E90048DDE702B9FFDE1E
:100BC800B2FA82F2002A40F08F80491B4FEA154E94
:100BD8001FFA85F80127B1FBFEFC230C0EFB1C1144
:100BE80043EA014308FB0CF1994207D9EB180CF1D1
:100BF800FF3002D2994200F2CD808446591AA3B23E
:100C0800B1FBFEF00EFB101443EA044408FB00F8A5
:100C1800A04507D92C1900F1FF3302D2A04500F2F4
:100C2800B6801846A4EB080440EA0C409FE7C7F1D9
:100C3800200CBB4022FA0CFE4EEA030E01FA07F420
:100C480020FA0CF521FA0CF34FEA1E482543B3FBB2
:100C5800F8F92C0C08FB19331FFA8EFA44EA0343FF
:100C680009FB0AF49C4202FA07F200FA07F10BD9D1
:100C78001EEB030309F1FF3080F087809C4240F2AD
:100C88008480A9F1020973441B1BADB2B3FBF8F0D1
:100C980008FB103345EA034400FB0AFAA24508D9C9
:100CA8001EEB040400F1FF336BD2A24569D9023868
:100CB800744440EA0940A0FB0289A4EB0A044C45AD
:100CC800C2464B4654D351D0002E69D0B1EB0A0529
:100CD80064EB030404FA0CFCFD40FC404CEA0505F7
:100CE800C6E90054002747E7C2F1200320FA03F7BA
:100CF800954001FA02F021FA03F34FEA154E384302
:100D0800010CB3FBFEF71FFA85F80EFB173341EA17
:100D1800034107FB08F38B4204FA02F407D9691868
:100D280007F1FF3C2FD28B422DD9023F2944CB1A21
:100D380081B2B3FBFEF00EFB103341EA034100FB26
:100D480008F38B4207D9691800F1FF3C17D28B4290
:100D580015D902382944C91A40EA07473BE73746FC
:100D6800304609E70746E7E61846FBE64145ABD2B9
:100D7800B8EB020A69EB0E0201381346A4E7604695
:100D8800E9E7184695E76746D1E781467CE70238E8
:100D98002C4447E7ACF1020C2B442FE7384608E710
:100DA8003746E9E6704700BFDFF834D0002103E09A
:100DB8000C4B5B58435004310B480C4B42189A4279
:100DC800F6D30B4A02E0002342F8043B094B9A424F
:100DD800F9D300F081FE04F0FFFB00F0BDFBFEE755
:100DE8000080012040570008000000201800002063
:100DF80018000020AC030020FEE708B501F022F837
:100E080080B208BD0000000008B5FFF7F6FF07EE46
:100E1800900AF8EE677A17EE900AFFF735FB0AA3F7
:100E2800D3E90023FFF788FB09A3D3E90023FFF7E1
:100E3800CBF9FFF793FD80B2642800D96420C0B2D3
:100E480008BD00BFAFF30080F4FDD478E926C13FA8
:100E5800E17A14AE47396F4030B589B01B4BDA6C74
:100E680042F00402DA64DA6C02F004020092009A9A
:100E7800DA6C42F00102DA64DA6C02F001020192E3
:100E8800019ADA6C42F00202DA64DB6C03F00203C6
:100E98000293029B0E4C00223021204602F0CDFB2B
:100EA8000723039300250495059503A9204602F01E
:100EB800D3FA30230393012304930593069503A9DA
:100EC800204602F0C9FA09B030BD00BF0010024048
:100ED8000004004800B583B0124B9A6C42F001023E
:100EE8009A649A6C02F001020092009A9A6C42F09D
:100EF80002029A649B6C03F002030193019B002297
:100F080011460D2001F040FF0D2001F071FF002275
:100F180011463A2001F038FF3A2001F069FF03B08A
:100F28005DF804FB0010024010B50124054B1C803D
:100F38000021054802F04CF822460449044801F013
:100F48003FFD10BD00000020AC0000201003002071
:100F5800B801002010B50A4801F033FE094804F032
:100F6800FBF8094801F003FE084C00221021204636
:100F780002F063FB00222021204602F05EFB10BD38
:100F8800B8010020D0020020200200200004004800
:100F980030B583B0044602681E4B1B689A422AD0BB
:100FA80022681D4B1B689A4230D01C4C206800F008
:100FB80023FB206800F0EEFA00F010FB184C2060CC
:100FC80000F03EFB0146174B1860174B93ED020AE1
:100FD800206800F03BFB154D2860154C0021204689
:100FE80001F04FFF0021009101232A46204601F01D
:100FF80077FF03B030BD0C4B01225A800548FFF73C
:1010080003FF0928CCD8FFF7A5FFC9E7064B012243
:101018009A80CAE720020020B801002010030020AF
:101028009C03002028010020000000202C01002043
:10103800AC00002010B501220A490B4801F0C0FCA1
:101048000A4804F06FF80A4801F0E8FB094C01224D
:101058001021204602F0F1FA01222021204602F058
:10106800ECFA10BD10030020B8010020D0020020C7
:1010780020020020000400480268254B1B689A42A1
:1010880000D0704710B5234A1378507843EA0023FC
:10109800907843EA004000F0F3FC1F4B1870C0F34F
:1010A80007225A70C0F307429A7010F0FF0F0BD155
:1010B8001A4CA068FFF7E8F913A3D3E90023FFF758
:1010C80085F8FFF76BFCA060134B5B785BB9134C9A
:1010D800A068FFF7D9F90CA3D3E90023FFF774F848
:1010E800FFF75CFCA0600C4B9B78012B00D010BD77
:1010F8000B4B1B7823B1012BF9D1FFF72BFFF6E738
:10110800FFF798FFF3E700BF9A9999999999C93F12
:101118003001002014030020A4000020000000205B
:1011280034000020FEE7000000B585B01148124BDE
:1011380003600023436083604FF4C872C260836118
:1011480004F072F958B9202301930023039301A9ED
:10115800084804F00BFA38B905B05DF804FB4FF401
:101168000F710648FFF7DEFF40F243210348FFF7FF
:10117800D9FF00BFD00200200010004088560008A8
:1011880000B58BB02448254B03604FF430134360FF
:1011980000238360C3600361042141618361C361EB
:1011A8000122026243628262C36203634263836311
:1011B800C263016443648364C26400F0F1FCD8B97B
:1011C8000AA9002341F80C3D134801F03BFDC0B9C2
:1011D800134B019306230293012303937F23049364
:1011E800042305930023069301A90B4800F0F2FF9E
:1011F80060B90BB05DF804FB4FF4AA710948FFF71A
:1012080091FF4FF4AE710748FFF78CFF40F2691168
:101218000448FFF787FF00BFB80100200000045012
:10122800020030048856000800B58BB01648174BEA
:10123800036001F014FEC0B9002201920423029356
:101248000392049205920DEB03010F4801F005FF8C
:1012580080B9002302930493102201A90A4801F0DF
:10126800FCFE60B90BB05DF804FB40F2D1110848F0
:10127800FFF758FF40F2DD110548FFF753FF4FF421
:10128800F3710348FFF74EFFAC00002000740040E4
:101298008856000800B587B01B481C4B03604FF404
:1012A8003013436000238360C360036104224261FA
:1012B80083610122C261026243628262C362036384
:1012C80043638363C36300F06BFC98B9104B0093CE
:1012D80006230193022302937F2303930423049399
:1012E800002305936946084800F074FF38B907B031
:1012F8005DF804FB4FF4DA710648FFF713FF40F27C
:10130800C1110448FFF70EFF20020020000204501C
:101318000800900C8856000808B51448144B036060
:10132800002303634360C02242638363C363836013
:101338000361436183610F4AC261C3604362836290
:10134800C36208220264012242648364C3640365A1
:1013580043658365C265036603F0CAFD00B908BD2D
:1013680040F209210448FFF7DDFE00BF1803002002
:101378000454014000EE02008856000800B587B00A
:101388001B481C4B03604FF43013436000238360F9
:10139800C3600361042242618361C3610122026266
:1013A80043628262C362036343638363C36300F07F
:1013B800F7FB90B9104B0093062301930023029387
:1013C8007F2203920422049205936946084800F09C
:1013D80001FF38B907B05DF804FB4FF4C471074842
:1013E800FFF7A0FE40F295110448FFF79BFE00BFEF
:1013F800C0000020000104502000F01488560008A6
:1014080000B589B01848194B036042F21073436065
:10141800002383609622C2600361836104F004F8AC
:1014280098B908A94FF4805341F8103D0E4804F0CC
:1014380021F878B900230193039301A90A4804F01D
:1014480095F860B909B05DF804FB40F21D21084821
:10145800FFF768FE40F223210548FFF763FE40F2DC
:101468002A210348FFF75EFE3001002000040040F7
:101478008856000800B5B9B01023279301232D938F
:1014880000232E93B0222F92319327A802F0F2F96D
:10149800002849D10F2322930023239324932593D3
:1014A8002693022122A802F0A5FC002840D14FF47F
:1014B80090430093002319934FF000531E9301218A
:1014C8000891042309930A220A9207220B92022206
:1014D8000C924FF080700D900191029308210391B6
:1014E80011210491059206934FF4803307936846BF
:1014F80002F0ACFE08BB4FF4007002F0ABF808BB7A
:1015080002F020FD124BA3FB0030800901F07CFCA7
:10151800042001F08FFC002211464FF0FF3001F04B
:1015280033FC39B05DF804FBFC210A48FFF7FAFDEB
:101538004FF485710748FFF7F5FD40F21F11054884
:10154800FFF7F0FD4FF493710248FFF7EBFD00BF82
:10155800D34D62108856000808B500F0F7FAFFF777
:1015680089FFFFF779FCFFF7B5FCFFF7DDFDFFF713
:1015780007FEFFF759FEFFF78DFEFFF7CDFEFFF7D9
:10158800FDFEFFF73DFF024803F0FEFDFEE700BF4A
:10159800300100202DE9100800240EE00E4901EB6F
:1015A800C401D1E900BC1BEB00024CF100035B084D
:1015B8004FEA3202C1E900230134092CEEDD064A64
:1015C800136D013313650A2B02D0BDE8100870476C
:1015D800134600221A65F8E738000020054B1A6DFB
:1015E80003EBC20153F8320000220023C1E90023B3
:1015F800704700BF380000202DE930480F4B5B6D65
:101608000A2B0CD00D4AD2E9164514EB000B45F114
:10161800000CC2E916BC01335365BDE83088074C9D
:101628000A220023D4E91601FFF708FA20660023EE
:10163800636500220023C4E91623EEE73800002082
:10164800014B186E704700BF3800002008B5411ADA
:1016580007EE901AF8EE677A27EE800ADFED0A7A2D
:1016680070EE277A17EE900AFFF700FAB0F5805F60
:1016780071F1000305DA002871F1000303DA002094
:1016880001E040F6FF7008BD0000FA4400B583B0E1
:10169800214B1A6E42F001021A661A6E02F001021C
:1016A8000092009A9A6D42F080529A659B6D03F001
:1016B80080530193019B032001F054FB0022114643
:1016C8006FF00B0001F060FB002211466FF00A007A
:1016D80001F05AFB002211466FF0090001F054FB9B
:1016E800002211466FF0040001F04EFB0022114663
:1016F8006FF0030001F048FB002211466FF0010073
:1017080001F042FB002211464FF0FF3001F03CFB94
:1017180003B05DF804FB00BF0010024030B589B08B
:101728000368434A934207D0424A93423FD0424A11
:10173800934259D009B030BD0446404A136801337A
:101748001360012B23D0032303930B230493002559
:10175800059503A93A4801F07FFE3A483A4B0360E1
:1017680045608560C560802303614FF480734361E1
:101778004FF4806383612023C3614FF400530362F5
:1017880001F034FD70B92F4B23659C62D2E72F4BD3
:10179800DA6C42F40052DA64DB6C03F40053009311
:1017A800009BD0E77C212A48FFF7BCFCEBE7234AE3
:1017B800136801331360012B0BD0012303930B2310
:1017C80004930023059303A94FF0904001F044FED1
:1017D800B0E71E4BDA6C42F40052DA64DB6C03F4B7
:1017E80000530193019BE8E7144A1368013313601F
:1017F800012B12D0042303930B2304930024059494
:1018080003A90F4801F028FE224621462F2001F0A7
:10181800BBFA2F2001F0ECFA8CE70C4BDA6C42F49F
:101828000052DA64DB6C03F400530293029BE1E795
:101838000000045000010450000204509C000020E5
:1018480000080048880200203004024000100240CE
:10185800D056000802681F4B9A4200D0704730B536
:1018680087B0044603F5CE339A6D42F000529A656C
:101878009B6D03F000530093009B302301930323D7
:1018880002930025039501A94FF0904001F0E4FD73
:101898001148124B03600623436010238360C56020
:1018A800802303614FF4007343614FF40063836145
:1018B8002023C361056201F099FC20B9064BA3609F
:1018C8009C6207B030BD4FF491710548FFF72AFCC0
:1018D800F4E700BF007400407001002030000240AF
:1018E800D056000800B583B00368134A934205D068
:1018F800124A934215D003B05DF804FB104B9A6D61
:1019080042F002029A659B6D03F002030093009B6C
:10191800002211461D2001F037FA1D2001F068FA57
:10192800E9E7074B9A6D42F010029A659B6D03F048
:1019380010030193019BDEE7000400400010004003
:10194800001002400268184B9A4200D0704770B5E8
:1019580086B0164B5B684BB9154A116E41F40011FD
:101968001166126E02F400120092009A01330F4AB7
:1019780053600823019302260296002403940494DA
:101988000D25059501A90B4801F066FD4FF4C063CC
:101998000193029603940494059501A9064801F061
:1019A8005BFD06B070BD00BF045401409C000020E0
:1019B8000010024000080048000400487047FEE795
:1019C800FEE7FEE7FEE770477047704708B500F08E
:1019D800C9F801F040FA08BD08B5024801F0D9FC81
:1019E80008BD00BF7001002008B5024803F0EAFBFB
:1019F80008BD00BF3001002008B5024800F02EFAEB
:101A080008BD00BF2002002008B5024801F0C1FC53
:101A180008BD00BF8802002060B1012814D10B78EE
:101A2800013BDBB2082B01D80020704700230B7064
:101A3800022070470B78FF2B01D001330B700B7815
:101A4800642B03D1012070470220704702207047A1
:101A580038B5094D0421284601F0E8FD074C6070AF
:101A68000121284601F0E2FD20700221284601F0FC
:101A7800DDFDA07038BD00BF00040048140300203D
:101A880010B584B00190FFF7E3FF124C21469DF892
:101A98000400FFF7C1FF8DF80800611C9DF80500E0
:101AA800FFF7BAFF8DF80900A11C9DF80600FFF7A3
:101AB800B3FF8DF80A00029B0020DAB262F3070038
:101AC800C3F3072262F30F20C3F3074363F31740FE
:101AD80004B010BDA40300200F49D1F8883043F4A6
:101AE8007003C1F888300D4B1A6842F001021A6081
:101AF800002098601A6822F0A85222F410221A6076
:101B08004FF48052DA601A6822F480221A609861D1
:101B18004FF000638B60704700ED00E0001002405A
:101B280010B50446074B1868074BA3FB0030800923
:101B380001F06AF9002221464FF0FF3001F024F944
:101B4800002010BD10000020D34D621008B50320FE
:101B580001F008F90020FFF7E3FFFFF797FD0020E9
:101B680008BD0000024A136801331360704700BFC4
:101B7800A8030020014B1868704700BFA803002085
:101B880038B50446FFF7F6FF0546B4F1FF3F00D02D
:101B98000134FFF7EFFF401BA042FAD338BD000025
:101BA80030B583B000230193002800F03B81044640
:101BB800836D13B323689A6812F0005F05D09A68A2
:101BC80022F0204222F03F029A602268936813F0C4
:101BD800805F1FD1936823F0104323F03F0343F045
:101BE80080539360904B1B68904AA2FB0323DB0C45
:101BF80003EB83035A00019209E0FFF78FFD0023EE
:101C0800E36584F85430D5E7019B013B0193019BC0
:101C1800002BF9D123689A6812F0805F34D1A26D45
:101C280042F01002A265E26D42F00102E265012075
:101C3800A26D12F0100F40F0EE809A6812F0040FB7
:101C480040F0E980A26D22F4817242F00202A2659E
:101C58009A6802F00302012A18D0754A93421AD0F2
:101C6800744A934237D0724B9B6803F00303012BED
:101C780052D00023002B5FD16E4B9B6803F0030307
:101C8800012B52D0002358E00020D1E71A6812F047
:101C9800010F5CD1E1E7674B9B6803F00303012B5D
:101CA80009D0654B9B6803F00303012B0AD000237E
:101CB80083F0010343E05F4B1B6813F0010FF0D082
:101CC8000123F5E75C4B1B6813F0010F01D10023DA
:101CD800EEE70123ECE7564B9B6803F00303012B67
:101CE8000AD0554B9B6803F00303012B0BD000234C
:101CF800002BC1D0012320E04D4B1B6813F0010FCE
:101D0800EFD00123F4E74C4B1B6813F0010F01D10E
:101D18000023EDE70123EBE7454B1B6813F0010FA8
:101D280001D10023A6E70123A4E7424B1B6813F067
:101D3800010F4ED1002300E0012383F0010333B1EA
:101D480063683E498A6822F47C1213438B60E26917
:101D5800A36B43EA4233E2681343A2681343626AFF
:101D680043EA0243012A36D0E26A22B102F47072D1
:101D7800216B0A4313432168CD68314A2A40134333
:101D8800CB602268936813F00C0F13D1A169636BC1
:101D98005B0043EA8131D36823F4804323F00203D4
:101DA8000B43D360E36B012B1AD02268136923F02D
:101DB800010313612369012B24D02268136B23F0DC
:101DC8000F031363A36D23F0030343F00103A3651B
:101DD80026E00123B1E7A26A013A43EA4243C3E796
:101DE80021680B6923F4FF6323F00403226C656CFC
:101DF8002A43A56C2A43E56C2A43134343F00103A5
:101E08000B61D7E721680B6B23F00F03226A013AB5
:101E180013430B63D6E7A36D43F01003A3650120BA
:101E280003B030BD0120FBE71000002083DE1B4318
:101E38000000045000010450000204500003045044
:101E480007C0F0FF0368186C7047704708B5806AD0
:101E5800FFF7FBFF08BD70477047000070B50446E8
:101E680003681D685E6815F0020F10D016F0020FA7
:101E78000DD0836D13F0100F03D1836D43F400630D
:101E88008365204600F0DDFE236802221A6015F003
:101E9800040F02D016F0040F05D115F0080F56D024
:101EA80016F0080F53D0A36D13F0100F03D1A36DD4
:101EB80043F40073A3652368DA6812F4406F40D1D5
:101EC800994A934218D002F50072934214D002F551
:101ED8008072926812F01F0F0ED0944A926802F036
:101EE8001F02052A08D0914A926802F01F02092AA7
:101EF80002D08D4AD26800E0DA6812F4005F20D17F
:101F08001A6812F0080F1CD09A6812F0040F10D14A
:101F18005A6822F00C025A60A36D23F48073A365FB
:101F2800A36D13F4805F0CD1A36D43F00103A36587
:101F380007E0A36D43F01003A365E36D43F00103CD
:101F4800E3652046FFF724F823680C221A6015F091
:101F5800200F02D016F0200F05D115F0400F60D0E9
:101F680016F0400F5DD0A36D13F0100F03D1A36DD1
:101F780043F40053A36523686B4A934218D002F5D3
:101F88000072934214D002F58072926812F01F0F0B
:101F98000ED0664A926802F01F02062A08D0634AE9
:101FA800926802F01F02072A02D05F4AD16800E057
:101FB800D968DA6C12F0C00F09D011F0007F2AD16D
:101FC800DA6812F4406F26D111F4005F23D11A6841
:101FD80012F0400F1FD011F4001F1CD19A6812F0A4
:101FE800080F10D15A6822F060025A60A36D23F4DA
:101FF8008053A365A36D13F4807F0CD1A36D43F0C8
:102008000103A36507E0A36D43F01003A365E36D27
:1020180043F00103E365204600F00FFE23686022C9
:102028001A6015F0800F02D016F0800F34D115F425
:10203800807F02D016F4807F39D115F4007F02D05A
:1020480016F4007F3FD115F0100F1ED016F0100FB8
:102058001BD0A36B5BB12368334A93423FD002F590
:10206800807293423BD0DB6813F0010F0AD0A36D56
:1020780043F48063A365E36D43F00203E365204600
:10208800FFF7EAFE236810221A6015F4806F02D069
:1020980016F4806F37D170BDA36D43F48033A36508
:1020A8002046FFF7D8FE236880221A60BFE7A36D99
:1020B80043F40033A365204600F0C1FD23684FF4C4
:1020C80080721A60B9E7A36D43F48023A3652046A4
:1020D80000F0B6FD23684FF400721A60B3E7134AA4
:1020E800926812F01F0FBED0104B9B6803F4404358
:1020F800B3F5004FBBD00D4B9B6803F44043B3F5D9
:10210800404FBFD1B3E7A36D43F48043A365E36DAC
:1021180043F00803E36523684FF480621A602046A1
:1021280000F08CFDB7E700BF000004500003045026
:1021380008B5836A9A6D12F0500F31D19A6D42F446
:1021480000729A651A68116811F0080F14D0D168E6
:1021580011F4406F20D1D26812F4005F1CD19A6D3F
:1021680022F480729A659A6D12F4805F14D19A6D88
:1021780042F001029A650FE0D26812F0020F0BD10B
:102188009A6D22F480729A659A6D12F4805F03D179
:102198009A6D42F001029A651846FEF7F9FE08BDED
:1021A8009A6D12F0100F03D11B6D5B6B9847F6E721
:1021B8001846FFF751FEF2E708B5806A836D43F0D1
:1021C80040038365C36D43F00403C365FFF744FE12
:1021D80008BD0000F0B583B00022019290F85420A9
:1021E800012A00F03C820346012280F8542002684C
:1021F800926812F0040F40F028824A68052A08D82D
:10220800023A032A5CD8DFE802F0025154570C2244
:102218004A601D684C680868303504F440764FF40D
:10222800407292FAA2F2B2FA82F2D64055F826200B
:1022380004F01F041F27A74022EA0702C0F38460A6
:10224800A040024345F826201A68906810F00C0F49
:1022580039D01C68A26802F00302012A00F0C98084
:102268000A68CD68D4F8B000C2F3120620EA060066
:1022780005F02006BE4DB5402A40C2F312020243C3
:10228800C4F8B020C868BB4A904200F0B8800A6819
:10229800B9498A4200F05581B8498A4200F0628102
:1022A800B7498A4200F072810020D3E112224A60C5
:1022B800AFE718224A60ACE74FF480724A60A8E79B
:1022C80006224A60A5E708688C68143200F0007797
:1022D8004FF0007595FAA5F5B5FA85F5EF4052F877
:1022E800275000F0F87C4FF0F87090FAA0F6B6FA94
:1022F80086F62CFA06F64FF0070E0EFA06F625EAD1
:10230800060590FAA0F0B0FA80F02CFA00F08440AC
:102318002C4342F8274048691C68E268C2F3C102AE
:10232800520000FA02F20D69042D0ED00E686034D6
:1023380054F825709348384006F0F8463243104365
:1023480040F0004044F8250083E7206EC0F3846520
:102358000A68C2F3120666BBC2F3846295422DD0A6
:102368001C68606EC0F384650A68C2F312064EBB2F
:10237800C2F3846295422AD01C68A06EC0F38465BB
:102388000A68C2F3120636BBC2F38462954227D0AC
:102398001C68E06EC0F384650A68C2F312061EBBAF
:1023A800C2F3846295427FF454AF20F00040E066A7
:1023B8004FE792FAA2F2B2FA82F2CFE720F0004099
:1023C8002066CDE792FAA2F2B2FA82F2D2E720F0C2
:1023D80000406066D0E792FAA2F2B2FA82F2D5E73C
:1023E80020F00040A066D3E792FAA2F2B2FA82F295
:1023F800D8E7226812F0010F7FF449AF30E71C6874
:102408000A68C2F31205002D48D1C2F38460013076
:1024180009288CBF00200120002861D0002D47D159
:10242800C2F3846001308006002D48D1C2F384666F
:10243800771C0126BE403043002D48D1C2F3846288
:10244800013202EB4202120502438D68143402F095
:10245800007C4FF0007090FAA0F0B0FA80F02CFAEF
:1024680000FC54F82C6002F0F8724FF0F87090FA03
:10247800A0F7B7FA87F722FA07F74FF0070E0EFA18
:1024880007F726EA070690FAA0F0B0FA80F022FAD9
:1024980000F08540354344F82C50F8E692FAA2F053
:1024A800B0FA80F0013009288CBF00200120B3E782
:1024B80092FAA2F0B0FA80F001308006B4E792FAFE
:1024C800A2F6B6FA86F6771C0126BE40B3E792FA62
:1024D800A2F2B2FA82F2013202EB42021205B3E72B
:1024E800ADB9C2F3846001308006BDB9C2F3846619
:1024F800771C0126BE403043C5B9C2F3846202EBA3
:1025080042021B3A120542F0007202439DE792FA1A
:10251800A2F0B0FA80F001308006E6E792FAA2F65F
:10252800B6FA86F6771C0126BE40E4E792FAA2F2D4
:10253800B2FA82F202EB42021B3A120542F0007232
:10254800E3E71149896811F4000F7FF4A5AE0A4941
:102558008A4222D009498A424CD009498A4261D02C
:10256800002077E00849896811F0807FEFD097E66E
:10257800FFFF070000007F40000052C7000084CB27
:102588000100008000F0FF0300030450354989680A
:1025980011F4800FDBD000205CE01A6832498A42CF
:1025A80005D001F500718A4201D0002052E02D4982
:1025B8008A6802F0E07242F40002886820F0E07055
:1025C80002438A60294A1268A1F14E61A1F50221ED
:1025D800A1F27D41A1FB0212D20CC2EB0212D10082
:1025E800019102E0019A013A0192019A002AF9D177
:1025F80000202FE01A68A1F1F7418A4205D001F5C1
:1026080000718A4201D0002024E016498A6802F04D
:10261800E07242F08072886820F0E07002438A60BD
:10262800002017E01968104A914201D0002011E0FB
:102638000C498A6802F0E07242F48002886820F04F
:10264800E07002438A60002004E0826D42F02002BC
:1026580082650120002283F8542003B0F0BD0220D7
:10266800FBE700BF000304500000045010000020E6
:1026780003689A6812F00C0F66D070B50446DA68E1
:1026880012F0007F02D0C269012A3CD0022910D082
:1026980023689A6812F0040F0BD09A6812F0020FA0
:1026A80007D19A6822F0004222F03F0242F010025D
:1026B8009A6001290CD023689A6812F0080F07D095
:1026C8009A6812F0020F03D19A6842F020029A60C9
:1026D800022935D0032931D10C25FFF74BFA0646DC
:1026E80023689B682B422DD0FFF744FA801B0528EE
:1026F800F6D9A36D43F01003A365E36D43F001031E
:10270800E36501201FE080690128BFD10022196814
:1027180011F0400F0ED10D498A4201D80132F6E777
:10272800A36D43F01003A365E36D43F00103E36574
:10273800012008E040221A600146A9E70425CCE7F9
:102748000825CAE7002070BD00207047FFFF3FA39F
:1027580030B583B00023019303689A6802F003023E
:10276800012A16D099682A4A114218D19A6822F08B
:10277800004222F03F0242F001029A60254B1B689A
:10278800254AA2FB0323DB0C03EB83035A000192C7
:1027980013E01A6812F0010FE4D0002008E0836DFE
:1027A80043F010038365C36D43F00103C365012043
:1027B80003B030BD019B013B0193019B002BF9D174
:1027C8000446FFF7D7F9054604E0FFF7D3F9401BA5
:1027D800022811D823681A6812F0010F16D19A68D6
:1027E80012F0010FF1D19A6822F0004222F03F0264
:1027F80042F001029A60E8E7A36D43F01003A36575
:10280800E36D43F00103E3650120D1E70020CFE742
:102818003F0000801000002083DE1B4303689B6894
:1028280013F0040F40F0C38090F85430012B00F0EF
:10283800C18010B50446012380F85430FFF788FFA3
:102848000346002840F0AE80A26D22F4706222F0A8
:10285800010242F48072A265226857498A4209D06F
:1028680001F500718A4205D001F58071896811F07F
:102878001F0F03D1A16D21F48011A165A16D11F481
:10288800805F52D0E16D21F00601E1651C211160E5
:10289800002284F8542021684A6822F01C024A6009
:1028A8006269082A44D121684A6842F008024A60ED
:1028B800A26B22B921684A6842F010024A60226875
:1028C8003D498A423AD001F500718A4236D001F575
:1028D8008071896811F01F0F30D03849896801F07C
:1028E8001F0105292AD03549896801F01F010929E6
:1028F80024D0A16D41F48011A1652F49C96811F058
:10290800007F52D0A16D21F4405141F48051A1655E
:10291800616908293CD1516821F020015160216882
:102928004A6842F040024A603FE00021E165ADE7B5
:1029380021684A6842F004024A60B9E7D16811F098
:10294800007F11D0A16D21F4405141F48051A1655F
:102958006169082912D1516821F02001516021686C
:102968004A6842F040024A6021688A6822F00042C0
:1029780022F03F0242F004028A6016E0516821F01A
:102988004001516021684A6842F020024A60EBE742
:10299800516821F04001516021684A6842F02002E4
:1029A8004A6002E0002284F85420184610BD022331
:1029B800184670470223FBE7000004500003045048
:1029C800F8B50468A56815F0040F7DD190F8543067
:1029D800012B7CD0012380F854303E4B9C4256D0CA
:1029E80003F580739C4252D016460F460446FFF703
:1029F800AFFE0546002863D1A36D23F4706323F06E
:102A0800010343F48073A3652368324A934208D0D4
:102A180002F50072934204D02F4B9B6813F01F0FEE
:102A280003D1A36D23F48013A365A36D13F4805F12
:102A380043D0E36D23F00603E365236D274ADA628A
:102A4800236D274A1A63236D264A5A6323681C227A
:102A58001A60002384F854302268536843F0100346
:102A680053602268D36843F00103D360216833467A
:102A78003A464031206D00F035FC2268936823F017
:102A8800004323F03F0343F0040393601DE0124B1F
:102A98009B6813F01F0FA7D00F4B9B6803F01F0311
:102AA800052BA1D00C4B9B6803F01F03092B9BD06F
:102AB800002380F85430012507E00023E365BCE7D4
:102AC800002384F8543000E002252846F8BD02258A
:102AD800FBE700BF00000450000304503921000840
:102AE800551E0008C121000838B50268936803F034
:102AF8000303012B01D0002038BD136813F0010F28
:102B080033D0936803F00D03012B09D0836D43F094
:102B180010038365C36D43F00103C3650120EBE730
:102B28000446936823F0004323F03F0343F0020375
:102B38009360036803221A60FFF71CF805462368B0
:102B48009B6813F0010F0ED0FFF714F8401B022802
:102B5800F5D9A36D43F01003A365E36D43F00103BA
:102B6800E3650120C8E70020C6E70020C4E790F825
:102B78005430012B22D010B50446012380F854307C
:102B88000321FFF775FD034620B1002284F8542085
:102B9800184610BD2268536823F01C035360204672
:102BA800FFF7A2FF03460028EFD1A26D22F4885256
:102BB80022F0010242F00102A265E6E7022318466C
:102BC800704738B590F85430012B34D004460123AF
:102BD80080F854300321FFF74BFD054620B1002350
:102BE80084F85430284638BD2268D36823F001039E
:102BF800D360206D00F0B1FB054618B1A36D43F01A
:102C08004003A3652268536823F01003536075B925
:102C18002046FFF769FF0546002DE0D1A36D23F498
:102C2800885323F0010343F00103A365D7E7204647
:102C3800FFF75AFFF0E70225D4E77047704770475F
:102C48007047704790F85420012A00F0858070B4CE
:102C58009BB00346012280F8542002683F48824214
:102C680031D0002000900098002830D0926812F0EF
:102C7800040F66D1826812F0040F62D10A68002A34
:102C88003AD0374DAA6822F460424C685E6B44EA39
:102C980046342243AA601C68A26802F00302012A93
:102CA8001ED0826802F00302012A1FD02C4CA268B1
:102CB80022F4716222F00F020868896801430A430E
:102CC800A260002042E000F580700090CBE79A6D8A
:102CD80042F020029A65002283F85420012038E04F
:102CE800226812F0010FDCD000202FE0026812F0F9
:102CF800010FDBD0002029E019498A6822F46042DC
:102D08008A6019688A6802F00302012A0DD0826875
:102D180002F00302012A0ED011498A6822F4716276
:102D280022F00F028A60002010E00A6812F0010FFA
:102D3800EDD000200AE0026812F0010FECD000206C
:102D480004E09A6D42F020029A650120002283F87F
:102D580054201BB070BC704702207047000004501C
:102D680000030450074AD36823F4E0631B041B0CD8
:102D7800000200F4E060184340F0BF6040F4003007
:102D8800D060704700ED00E030B4174BDB68C3F348
:102D98000223C3F10704042C28BF04241D1D062D9B
:102DA80018D9033B4FF0FF3505FA04F421EA040172
:102DB800994005FA03F322EA0303194300280BDBC1
:102DC8000901C9B200F1604000F5614080F80013C4
:102DD80030BC70470023E5E700F00F000901C9B2D5
:102DE800024B1954F4E700BF00ED00E014ED00E0D9
:102DF80000F01F02400901239340024A42F82030A4
:102E0800704700BF00E100E00138B0F1807F0AD2CE
:102E1800064B5860064AF02182F82310002098607B
:102E280007221A6070470120704700BF10E000E0D9
:102E380000ED00E0042805D0054A136823F00403D8
:102E480013607047024A136843F004031360704725
:102E580010E000E0704708B5FFF7FCFF08BD70B14F
:102E680010B50446037933B1022323710020206191
:102E78000123237110BD4371FEF7ECFCF4E7012038
:102E880070474379012B29D010B4012343710222E2
:102E98000271046822688B401343236091B9026869
:102EA800136803F03C033C2B07D001230371002374
:102EB800437118465DF8044B7047536843F00103AB
:102EC8005360F2E70268136803F47013B3F5701FD8
:102ED800EBD1536843F002035360E6E702207047E2
:102EE800F8B5069C4679012E64D001254571022566
:102EF8000571002935D185682F4EEE6285682F4E01
:102F08002E6385682E4E6E630668356845F48055D5
:102F18003560042C1FD0082C20D00CB10E4601E0DF
:102F28000668083617460D460446002937D1016859
:102F38000A6842F400520A6032463946806800F056
:102F4800D1F90020607122681368012101FA05F5A2
:102F58001D431560F8BD06680C36E3E706681036B1
:102F6800E0E7C568174EEE62C568174E2E63C56860
:102F7800164E6E630668356845F080553560042C3A
:102F880007D0082C08D00CB10026CBE70668143609
:102F9800C8E706681836C5E706681C36C2E7016840
:102FA8000A6842F000520A6032463946C06800F0AA
:102FB80099F9C6E70220CDE72D3000083F30000818
:102FC8004B30000891310008A1310008AB310008EE
:102FD80010B50446006803684FF480528A4023EA1B
:102FE800020303602068036801228A4023EA02037F
:102FF800036059B9A06800F0B0F92268136823F497
:103008000053136058B90123237110BDE06800F024
:10301800A4F92268136823F000531360F2E704232D
:103028002371F2E710B5846A2046FDF77DFF01237E
:10303800237110BD704708B5806AFFF7FBFF08BD14
:10304800704710B5846A236943F00403236120465E
:10305800FFF7F6FF0123237110BDF8B54379012B63
:1030680000F08D8015460E46044601234371022365
:1030780003710B68042B30D03369012B74D021689D
:10308800CB6B0722AA4023EA02023368B0680343E5
:10309800F0680343AB401343CB6321680B684FF4DC
:1030A8008042AA4023EA02030B6021680B6840F6BD
:1030B800FC72AA4023EA02027368AB4013430B6018
:1030C80021680B68C02202FA05F523EA05050D60A0
:1030D8000123237100206071F8BD72B123685B6B16
:1030E800002B25DAFEF746FD0128F7D9236943F0BE
:1030F8000803236103202071EEE7FEF73BFD074636
:1031080023685B6B13F4004F0BD0FEF733FDC01B35
:103118000128F5D9236943F00803236103202071AE
:10312800DAE70120FEF72CFD2368B2691A6405E08E
:103138000120FEF725FD2368B2695A6421688B6C6B
:1031480040F2FF32AA4023EA0203F269AA4013437D
:103158008B642168CB6CFF22AA4023EA0203326AFF
:10316800AA401343CB6487E721688B6B1F22AA40D0
:1031780023EA02027369AB4013438B637FE70220A3
:10318800AAE770477047704710B5846A2046FFF772
:10319800F8FF0123237110BD08B5806AFFF7F2FF1D
:1031A80008BD10B5846A236943F0040323612046EF
:1031B800FFF7E9FF0123237110BD70B4446C04F0DC
:1031C8001C05066C0124AC40746004686360836865
:1031D800102B05D0036899600368DA6070BC7047EB
:1031E80003689A600368D960F8E70000002869D08E
:1031F80010B403460168344A914245D8334A0A4418
:103208003349A1FB0212120992004264314A026456
:10321800022283F825201868016821F4FF4121F073
:1032280070019A68DC6822431C6922435C69224366
:103238009C692243DC6922431C6A22430A430260D8
:103248009A68B2F5804F15D0196C224A914226D05F
:10325800214A1168586C00F01C040F20A04021EA94
:1032680000011160116858685C6C04F01C04A040EF
:10327800014311600020D863012283F8252083F8D8
:1032880024005DF8044B7047144A0A441049A1FB16
:103298000212120992004264114A0264B8E7A83285
:1032A8001168586C00F01C040F20A04021EA0001AE
:1032B8001160116858685C6C04F01C04A04001435C
:1032C8001160D7E70120704707040240F8FFFDBFEF
:1032D800CDCCCCCC00000240A8040240F8FBFDBFD6
:1032E8000004024038B590F82440012C33D0012462
:1032F80080F8244090F82540E4B2012C04D0002343
:1033080080F82430022038BD0446022084F82500C5
:103318000020E0632568286820F001002860204626
:10332800FFF74BFF236B5BB12268136843F00E0372
:1033380013602268136843F0010313600020E2E77A
:103348002268136823F0040313602268136843F0AB
:103358000A031360EDE70220D5E70346B8B1016818
:103368000A6822F00E020A6001680A6822F0010267
:103378000A60426C02F01C02006C012101FA02F2A0
:10338800426083F82510002083F82400704701204C
:10339800704738B5036C196804682568436C03F0F6
:1033A8001C0304229A400A4215D015F0040F12D0CB
:1033B800236813F0200F03D1236823F0040323604C
:1033C800436C03F01C02016C042393404B60036BB5
:1033D80003B1984738BD02229A400A421CD015F022
:1033E800020F19D0236813F0200F06D1236823F0A9
:1033F8000A032360012380F82530436C03F01C0284
:10340800016C022393404B60002380F82430C36A88
:10341800002BDFD09847DDE7082202FA03F30B42BE
:10342800D8D015F0080FD5D0236823F00E032360F9
:10343800436C03F01C03016C012202FA03F34B6096
:10344800C26380F82520002380F82430436B002BCA
:10345800C0D09847BEE70000F0B482B0002341E036
:10346800D0F82CC02CEA040CC6F3C0049C4044EAF3
:103478000C04C46286E0062400E00024B4403C4307
:103488000235664E46F82540654C2568D44304EA63
:1034980005064F6817F4803F01D042EA0506604DE3
:1034A8002E606D6804EA05064F6817F4003F01D0E6
:1034B80042EA05065A4D6E60AD6804EA05064F6893
:1034C80017F4801F01D042EA0506554DAE60ED683D
:1034D8002C404E6816F4001F01D042EA0504504AF9
:1034E800D46001330A6832FA03F400F093800124AF
:1034F8009C402240F5D04D68022D01D0122D10D1EC
:10350800DE08083650F826C003F00705AF000F257F
:10351800BD402CEA050C0D69BD4045EA0C0540F894
:10352800265006685F000325BD40ED4305EA060CFA
:103538004E6806F00306BE4046EA0C0606604E6872
:1035480006F1FF3CBCF1010F03D9112E01D0122E58
:1035580011D1866805EA060CCE68BE4046EA0C061C
:103568008660466826EA040C4E68C6F300169E403C
:1035780046EA0C0646604E6806F0030CBCF1030FE1
:103588003FF46EAFC46825408C68BC402C43C460CF
:103598004C6814F0805FA4D0224C256E45F00105DC
:1035A8002566246E04F001040194019C9D08AE1C5C
:1035B8001A4C54F8267003F00304A6000F24B440F4
:1035C80027EA0407B0F1904F3FF457AF164CA042DA
:1035D80016D004F58064A04214D004F58064A0429B
:1035E80012D004F58064A04210D004F58064A04293
:1035F8000ED004F58064A0423FF43DAF07243DE7B8
:1036080001243BE7022439E7032437E7042435E79C
:10361800052433E702B0F0BC704700BF000001404A
:1036280000040140001002400004004803691942E8
:1036380001D100207047012070470AB981627047A4
:1036480081617047024B186800F4C060704700BF82
:1036580000700040B0F5007F0FD0204B1B6803F4CA
:10366800C063B3F5806F37D01C4A136823F4C06376
:1036780043F48063136000207047184B1B6803F401
:10368800C063B3F5007F25D0144A136823F4C063E0
:1036980043F400731360124B1B6802F1467202F583
:1036A8005B3202F28322A2FB03239A0C322303FB30
:1036B80002F300E0013B23B1084A526912F4806F1B
:1036C800F8D1064B5B6913F4806F01D10020704775
:1036D80003207047002070470020704700700040AA
:1036E8001000002030B583B00546204B9B6D13F0C9
:1036F800805F0BD0FFF7A6FFB0F5007F17D0802DB5
:103708001FD82DD0702D2DD000211BE0174CA36D94
:1037180043F08053A365A36D03F080530193019B8D
:10372800FFF790FFA36D23F08053A365E4E7802D96
:1037380003D9A02D03D9022104E0002102E00121D0
:1037480000E003210A4A136823F007030B431360C0
:10375800136803F007038B4206D0012003B030BD85
:103768000221EFE70121EDE70020F7E70010024012
:10377800002002403B4B9B6813F00C0F1AD0394BCA
:103788009B6803F00C030C2B0ED0364B9B6803F0A0
:103798000C03042B2FD0334B9B6803F00C03082B2E
:1037A8002CD00020014618E02E4BDB6803F0030301
:1037B800012BEAD12B4B1B6813F0080F14D1294BAE
:1037C800D3F89430C3F30323274A52F82310254B28
:1037D8009B6813F00C0F0CD00020224A936803F06A
:1037E8000C030C2B0DD070471E4B1B68C3F303133F
:1037F800EAE70846F1E71D480021EEE71C480021EA
:10380800EBE71346D26802F00302DB68C3F3021346
:103818000133022A0AD0032A1AD0B1FBF3F3114A62
:10382800D068C0F3062000FB03F008E00F48B0FBA7
:10383800F3F30C4AD068C0F3062000FB03F0094BF1
:10384800DB68C3F3416301335B00B0FBF3F0CAE705
:103858000748B0FBF3F3034AD068C0F3062000FB27
:1038680003F0ECE700100240405600080024F40082
:1038780000127A00002800F0A88270B582B00446D1
:10388800036813F0100F3FD0974B9B6813F00C0F91
:1038980040F09280944B1B6813F0020F03D08369A9
:1038A800002B00F09982206A8F4B1B6813F0080FD9
:1038B80062D08D4B1B6803F0F003984263D9FFF781
:1038C80011FF002840F08A82874B1A6842F00802EC
:1038D8001A601A6822F0F002216A0A431A605A68CC
:1038E80022F47F42E16942EA01225A60FFF742FF6F
:1038F8007D4B9B68C3F303137C4AD35CD8407C4B55
:1039080018600020FEF70CF9236813F0010F00F08F
:10391800A180754B9B6803F00C03082B00F0918085
:10392800714B9B6803F00C030C2B00F083806368D9
:10393800B3F5803F00F0B580B3F5A02F00F0B78055
:10394800694B1A6822F480321A601A6822F48022BD
:103958001A606368002B00F0B780FEF70BF9054684
:10396800614B1B6813F4003F74D1FEF703F9401B49
:103978006428F5D9032038E25B4BD3F894301B094F
:1039880003F0F00399E7584B1A6842F008021A60EE
:103998001A6822F0F002216A0A431A605A6822F46F
:1039A8007F42E16942EA01225A60206AFFF79AFEE3
:1039B80000289BD0012018E2836933B34A4A136870
:1039C80043F001031360FEF7D5F80546464B1B6824
:1039D80013F0020F06D1FEF7CDF8401B0228F5D9E7
:1039E800032002E2404B1A6842F008021A601A6883
:1039F80022F0F002216A0A431A605A6822F47F42D0
:103A0800E16942EA01225A607EE7374A136823F0E7
:103A180001031360FEF7AEF80546334B1B6813F03D
:103A2800020F3FF471AFFEF7A5F8401B0228F4D946
:103A38000320DAE12C4BDB6803F00303032B7FF44C
:103A480076AF294B1B6813F4003F03D06368002B43
:103A580000F0C681236813F0020F62D0224B9B68E6
:103A680003F00C03042B4BD01F4B9B6803F00C0393
:103A78000C2B3FD0E368002B79D01B4A136843F422
:103A880080731360FEF776F80546174B1B6813F42E
:103A9800806F63D1FEF76EF8401B0228F5D903202A
:103AA800A3E1114A136843F48033136051E703F12B
:103AB8008043A3F53C331A6842F480221A601A68DE
:103AC80042F480321A6044E7FEF754F80546064B84
:103AD8001B6813F4003FBDD0FEF74CF8401B642868
:103AE800F5D9032081E100BF00100240705600089C
:103AF80010000020B64BDB6803F00303022BB9D19A
:103B0800B34B1B6813F4806F03D0E368002B00F0FD
:103B18006981AF4A536823F0F853216943EA016386
:103B28005360236813F0080F4CD063699BB3A84A0D
:103B3800D2F8943043F00103C2F89430FEF71AF833
:103B48000546A34BD3F8943013F0020F3AD1FEF791
:103B580011F8401B0228F4D9032046E19C4A536817
:103B680023F0F853216943EA01635360D9E7984A7F
:103B7800136823F480731360FDF7FCFF0546944B2C
:103B88001B6813F4806FCCD0FDF7F4FF401B0228AC
:103B9800F5D9032029E18E4AD2F8943023F00103A5
:103BA800C2F89430FDF7E6FF0546894BD3F8943008
:103BB80013F0020F06D0FDF7DDFF401B0228F4D9F1
:103BC800032012E1236813F0040F7BD0804B9B6D18
:103BD80013F0805F36D17E4B9A6D42F080529A6521
:103BE8009B6D03F080530193019B0125794B1B6862
:103BF80013F4807F28D0A368012B39D0052B3FD040
:103C0800734BD3F8902022F00102C3F89020D3F828
:103C1800902022F00402C3F89020A368002B3DD026
:103C2800FDF7A8FF06466A4BD3F8903013F0020F51
:103C380046D1FDF79FFF801B41F288339842F2D9A5
:103C48000320D2E00025D1E7624A136843F4807369
:103C58001360FDF78FFF06465E4B1B6813F4807FE9
:103C6800C9D1FDF787FF801B0228F5D90320BCE0E6
:103C7800574AD2F8903043F00103C2F89030CCE7AD
:103C8800534BD3F8902042F00402C3F89020D3F8A5
:103C9800902042F00102C3F89020BEE7FDF76AFFCA
:103CA80006464B4BD3F8903013F0020F08D0FDF7BF
:103CB80061FF801B41F288339842F2D9032094E0D7
:103CC800002D35D1A36A002B00F08E80404A9268FF
:103CD80002F00C020C2A00F08A80022B2ED03C4BFA
:103CE8001A6822F080721A601B6813F0006F09D1FD
:103CF800374B1B6813F0005F04D1354AD36823F0B3
:103D08000303D360324AD36823F0887323F48033E3
:103D1800D360FDF72FFF04462D4B1B6813F0007F7F
:103D280051D0FDF727FF001B0228F5D903205CE0DE
:103D3800274A936D23F080539365C3E7244A136899
:103D480023F080731360FDF715FF0546204B1B68B1
:103D580013F0007F06D0FDF70DFF401B0228F5D9B0
:103D6800032042E0236B5A1E636B1B0243EA0213D3
:103D7800A26B120943EA4243E26A1343E26B520818
:103D8800013A43EA4253226C5208013A43EA426339
:103D98000F4AD360136843F080731360D36843F00D
:103DA8008073D360FDF7E6FE0446094B1B6813F0E9
:103DB800007F06D1FDF7DEFE001B0228F5D903209F
:103DC80013E0002011E000200FE00120704700BF41
:103DD8000010024000700040012006E0012004E0CD
:103DE800012002E0012000E0002002B070BD0120A7
:103DF800FBE700BF002800F0998070B504464D4BE2
:103E08001B6803F007038B420CD24A4A136823F05D
:103E180007030B431360136803F007038B4201D0B9
:103E2800012070BD0D46236813F0010F39D0636877
:103E3800032B09D0022B26D063BB3F4A126812F02D
:103E4800020F06D10120ECE73B4A126812F0007F0E
:103E58006ED039498A6822F0030213438B60FDF75C
:103E680089FE0646344B9B6803F00C036268B3EB8B
:103E7800820F16D0FDF77EFE801B41F288339842F0
:103E8800F0D90320CDE72C4A126812F4003FE0D1A4
:103E98000120C6E7284A126812F4806FD9D10120A0
:103EA800BFE7236813F0020F06D0234A936823F074
:103EB800F003A1680B4393601E4B1B6803F00703D4
:103EC800AB420CD91B4A136823F007032B4313603A
:103ED800136803F00703AB4201D00120A1E7236870
:103EE80013F0040F06D0144A936823F4E063E168E2
:103EF8000B439360236813F0080F07D00E4A9368AA
:103F080023F46053216943EAC1039360FFF732FC4D
:103F1800094B9B68C3F30313084AD35CD840084B8A
:103F280018600020FDF7FCFD00207AE701207047AB
:103F3800012076E700200240001002407056000879
:103F480010000020014B1868704700BF10000020C7
:103F580008B5FFF7F7FF044B9B68C3F30223034A36
:103F6800D35CD84008BD00BF00100240805600084E
:103F780008B5FFF7E7FF044B9B68C3F3C223034A66
:103F8800D35CD84008BD00BF00100240805600082E
:103F9800F8B55A4BDB6813F0030F18D0574BDB68A2
:103FA80003F003030268934202D001252846F8BDB6
:103FB800002A00F0A080514BDB68C3F302130133E1
:103FC8004268934201D00125F0E700251AE0036812
:103FD800022B59D0032B5ED0012B01D001250FE015
:103FE800464A126812F0020F61D0444DEA6822F086
:103FF80073024468013C43EA04131343EB60002551
:10400800002DD3D10F4604463C4A136823F0806341
:104018001360FDF7AFFD0646384B1B6813F0006FC1
:1040280005D0FDF7A7FD801B0228F5D90325002D33
:10403800BCD1002F3DD131490B6923F41F3323F440
:104048004073A068E2681209520442EA002213434E
:104058000B612A4A136843F080631360FDF78AFDF9
:104068000646264B1B6813F0006F05D1FDF782FD4D
:10407800801B0228F5D90325002D97D11F4A136903
:10408800A1690B43136191E71C4A126812F4806F0F
:10409800ABD10125B4E7194A126812F4003FA4D144
:1040A800164A126812F4802F9FD10125A8E701252E
:1040B800A6E7012F0FD01148026922F0C06222F44E
:1040C800FE42A16863695B08013B5B0643EA012382
:1040D80013430361BDE70948026922F4C00222F4D0
:1040E800FE42A16823695B08013B5B0543EA0123A3
:1040F80013430361ADE7012558E700BF00100240F4
:10410800F8B5514BDB6813F0030F18D04E4BDB6842
:1041180003F003030268934202D001252846F8BD44
:10412800002A00F08E80484BDB68C3F3021301338A
:104138004268934201D00125F0E700251AE00368A0
:10414800022B59D0032B5ED0012B01D001250FE0A3
:104158003D4A126812F0020F61D03B4DEA6822F026
:1041680073024468013C43EA04131343EB600025DF
:10417800002DD3D10F460446334A136823F08053E9
:104188001360FDF7F7FC06462F4B1B6813F0005F22
:1041980005D0FDF7EFFC801B0228F5D90325002D7B
:1041A800BCD1002F3DD128494B6923F41F3323F498
:1041B8004073A068E2681209520442EA00221343DD
:1041C8004B61214A136843F080531360FDF7D2FC1A
:1041D80006461D4B1B6813F0005F05D1FDF7CAFCAE
:1041E800801B0228F5D90325002D97D1164A53695B
:1041F80061690B43536191E7134A126812F4806FA7
:10420800ABD10125B4E7104A126812F4003FA4D1DB
:104218000D4A126812F4802F9FD10125A8E70125C5
:10422800A6E70948426922F0C06222F4FE42A1686A
:1042380023695B08013B5B0643EA0123134343619F
:10424800BFE701256AE700BF001002402DE9F041F1
:1042580082B00446036813F4006F2FD0436EB3F5A1
:10426800800F25D008D9B3F5000F10D0B3F5400F53
:1042780040F09980002610E0002B40F09480002147
:104288000430FFF785FE06463EB1374618E05E4A21
:10429800D36843F48033D36000265B4AD2F8883071
:1042A80023F44003616E0B43C2F88830002707E00F
:1042B80000212030FFF724FF0646E5E700273E46A9
:1042C800236813F4805F15D0A36EB3F1807F7AD092
:1042D8006CD9B3F1007F70D0B3F1407F7AD1002E52
:1042E8007BD1494AD2F8883023F04073A16E0B4342
:1042F800C2F88830236813F4003F00F08E80424BE8
:104308009B6D13F0805F6AD13F4B9A6D42F08052EB
:104318009A659B6D03F080530193019B4FF0010850
:104328003A4A136843F480731360FDF723FC05468B
:10433800364B1B6813F4807F05D1FDF71BFC401B2F
:104348000228F5D90326002E62D12F4BD3F89030DE
:1043580013F4407316D0D4F884209A4212D02A4A13
:10436800D2F8903023F44073D2F8901041F48031A1
:10437800C2F89010D2F8901021F48031C2F8901051
:10438800C2F8903013F0010F2CD1002E40F0438179
:104398001D4AD2F8903023F44073D4F884100B43AC
:1043A800C2F8903035E001273E4689E793B90021ED
:1043B800201DFFF7EDFD064691E7134AD36843F445
:1043C8008033D3608BE7002104F12000FFF798FECB
:1043D800064684E701273E468CE737468AE74FF0D2
:1043E80000089DE7FDF7C6FB0546074BD3F890305C
:1043F80013F0020FC9D1FDF7BDFB401B41F2883312
:104408009842F2D90326C0E700100240007000402D
:104418003746B8F1000F40F00081236813F0010F10
:1044280008D09D4AD2F8883023F00303A16B0B43D0
:10443800C2F88830236813F0020F08D0964AD2F8E1
:10444800883023F00C03E16B0B43C2F888302368F3
:1044580013F0040F08D0904AD2F8883023F03003C4
:10446800216C0B43C2F88830236813F0080F08D07A
:10447800894AD2F8883023F0C003616C0B43C2F834
:104488008830236813F0100F08D0834AD2F8883098
:1044980023F44073A16C0B43C2F88830236813F0EF
:1044A800200F08D07C4AD2F8883023F44063E16CAE
:1044B8000B43C2F88830236813F4007F08D0764A8B
:1044C800D2F8883023F44023E16D0B43C2F88830DA
:1044D800236813F4806F08D06F4AD2F8883023F429
:1044E8004013216E0B43C2F88830236813F0400F45
:1044F80008D0694AD2F8883023F44053216D0B4321
:10450800C2F88830236813F0800F08D0624AD2F8C6
:10451800883023F44043616D0B43C2F88830236828
:1045280013F4807F08D05C4AD2F8883023F44033F3
:10453800A16D0B43C2F88830236813F4005F0FD0D5
:10454800554AD2F8883023F04063E16E0B43C2F835
:104558008830E36EB3F1006F65D0B3F1806F67D038
:10456800236813F4002F0FD04B4AD2F8883023F079
:104578004063216F0B43C2F88830236FB3F1006F9B
:104588005ED0B3F1806F60D0236813F4802F0FD012
:10459800414AD2F8883023F04063616F0B43C2F878
:1045A8008830636FB3F1006F57D0B3F1806F59D083
:1045B800236813F4804F0FD0374AD2F8883023F09D
:1045C8004053A16F0B43C2F88830A36FB3F1805FEB
:1045D80050D0B3F1005F55D0236813F4004F08D0D2
:1045E8002D4AD2F8883023F08043E16F0B43C2F89C
:1045F8008830236813F4803F09D0274AD2F88830DE
:1046080023F00043D4F880100B43C2F888303846B2
:1046180002B0BDE8F0813746FBE61F4A936D23F0F0
:1046280080539365F9E6D36843F48013D36097E722
:104638000121201DFFF7ACFC002891D007468FE729
:10464800D36843F48013D3609EE70121201DFFF750
:104658009FFC002898D0074696E7D36843F4801358
:10466800D360A5E70121201DFFF792FC00289FD009
:1046780007469DE70221201DFFF78AFC0028ABD0E2
:104688000746A9E7022104F12000FFF739FD0028B9
:10469800A2D00746A0E700BF0010024008B5B0F559
:1046A800003F39D0C64BDB6803F00303012B5DD014
:1046B800C34BDB6803F00303022B6FD0C04BDB68EE
:1046C80003F00303032B70D00023B0F5007F00F044
:1046D800608300F2C080102800F06D8200F28780AD
:1046E800022800F009826DD9042800F029820828E0
:1046F80040F03481B24BD3F8883013F0C00300F097
:104708004382402B00F04382802B00F04382C02B71
:1047180000F0488200200EE0A94BD3F8903003F453
:104728004073B3F5807F07D0B3F5007F0DD0B3F5A4
:10473800407F13D0002008BDA14AD2F8902012F083
:10474800020FF1D04FF40040F5E79D4AD2F89420CB
:1047580012F0020FEBD04FF4FA40ECE7984B1B68CD
:1047680013F4003F40F066830020E4E7944B1B6895
:1047780013F0020F20D0924B1B6813F0080F07D0DC
:104788008F4B1B68C3F303138E4A52F823309CE700
:104798008B4BD3F89430C3F30323F5E7884B1B689E
:1047A80013F4806F0AD0884B8FE7854B1B6813F48E
:1047B800003F05D0854B88E7002386E7002384E780
:1047C800002382E7012840F0C9807D4BD3F8883068
:1047D80013F0030300F07981012B00F07981022B9B
:1047E80000F07981032B00F07E810020A3E74028A8
:1047F80000F0818217D9802800F09C82B0F5807F74
:1048080040F0AC806E4BD3F8883013F4403300F09E
:10481800B082B3F5803F00F0AF82B3F5003F00F0FF
:10482800AE82002087E7202840F09880644BD3F8B8
:10483800883013F4406300F0E581B3F5806F00F031
:10484800E481B3F5006F00F0E381B3F5406F00F049
:10485800E78100206FE7B0F5804F00F0ED8116D9B1
:10486800B0F5803F00F03C8272D8B0F5004F75D1AA
:10487800534BD3F8883013F0804F00F0D682504B5A
:104888001B6813F4806F40F0D382002053E7B0F523
:10489800006F1BD017D8B0F5806F5FD1484BD3F8A5
:1048A800883013F4401300F0A382B3F5801F00F0A2
:1048B800A282B3F5001F00F0A882B3F5401F00F0F4
:1048C800AC82002037E7B0F5805F2DD1B0F5006FDE
:1048D80046D03B4AD2F8880000F04070B0F1407FE3
:1048E80000F0AA82B0F5000F44D0B0F1007F41D0AB
:1048F80000285DD1324A126912F4803F3FF41BAFA1
:104908002F4AD068C0F302100130B3FBF0F31069EE
:10491800C0F30620126912F4003F47D1072200FBBA
:1049280003F0B0FBF2F006E7B0F5005F16D1244AB9
:10493800D2F8882002F04062B2F1406F66D0B2F13E
:10494800006F7CD0B2F1806F00F09C800020F2E60E
:10495800B0F5802FEBD0B0F5002FE8D00020EAE6C4
:10496800174AD2F8880000F44000B0F5400FB9D1DA
:104978001748E0E6124AD26812F4803F00F05E82DF
:104988000F4AD068C0F302100130B3FBF0F3D068CF
:10499800C0F30620D26812F4003F05D1072200FBBD
:1049A80003F0B0FBF2F0C6E61122F8E71122B6E7F1
:1049B800B0F5800F0ED0B0F1807F0BD00020BAE6A2
:1049C80000100240405600080024F40000127A004B
:1049D80068FF1F00BF4A526912F4803F00F030821E
:1049E800BC4AD068C0F302100130B3FBF0F3506941
:1049F800C0F30620526912F4003F05D1072200FBDC
:104A080003F0B0FBF2F096E61122F8E7B14B1B6811
:104A180013F0020F00F01682AE4B1B6813F0080F5C
:104A280007D0AC4B1B68C3F30313AB4A52F82300FF
:104A380081E6A84BD3F89430C3F30323F5E702F1DA
:104A4800605202F50432126812F0007F00F0FC8117
:104A5800A04AD26812F4801F00F0F8819D4AD068FD
:104A6800C0F302100130B3FBF0F3D068C0F30620A6
:104A780000FB03F0D368C3F3415301335B00B0FB81
:104A8800F3F058E602F1705202F50432126812F09F
:104A9800006F00F0DD818F4A126912F4801F00F068
:104AA800D9818C4AD068C0F302100130B3FBF0F30F
:104AB8001069C0F3062000FB03F01369C3F34153E8
:104AC80001335B00B0FBF3F035E6FFF751FA32E64D
:104AD800FEF750FE2FE67F4A126812F4806F3FF40B
:104AE80081AE7E4827E67B4BD3F8903013F0020F57
:104AF80040F0B28100201EE6764BD3F8883013F0E0
:104B08000C0307D0042B08D0082B09D00C2B0ED08F
:104B1800002010E6FFF71CFA0DE6FEF72BFE0AE66A
:104B28006C4A126812F4806FF0D06C4803E6694B47
:104B3800D3F8903013F0020F40F091810020FAE58D
:104B4800644BD3F8883013F0300307D0102B08D00B
:104B5800202B09D0302B0ED00020ECE5FFF7F8F918
:104B6800E9E5FEF707FEE6E55A4A126812F4806F97
:104B7800F0D05A48DFE5574BD3F8903013F0020FC6
:104B880040F070810020D6E5FFF7E2F9D3E5FEF7A3
:104B9800F1FDD0E54F4A126812F4806F3FF4B7ADCB
:104BA8004E48C8E54B4BD3F8903013F0020F40F055
:104BB8005C810020BFE5474BD3F8883013F440737D
:104BC8000AD0B3F5807F0AD0B3F5007F0AD0B3F5D9
:104BD800407F0ED00020AEE5FFF7BAF9ABE5FEF74F
:104BE800C9FDA8E53B4A126812F4806FEFD03B4834
:104BF800A1E5384BD3F8903013F0020F40F038811C
:104C0800002098E5FFF7A4F995E5FEF7B3FD92E5D6
:104C1800304A126812F4806F3FF417AE2F488AE5C5
:104C280003F1804303F50133D3F8903013F0020FFA
:104C380040F0218100207EE5264AD2F8882002F043
:104C48004052B2F1405F07D0B2F1805F07D0B2F1B5
:104C5800005F21D000206EE5FEF78CFD6BE502F1C8
:104C6800405202F50432126912F0807F00F006818A
:104C7800184AD068C0F302100130B3FBF0F3106992
:104C8800C0F3062000FB03F01369C3F3416301334B
:104C98005B00B0FBF3F04EE502F1005202F504327E
:104CA800526912F0807F00F0EB800A4AD068C0F3A6
:104CB80002100130B3FBF0F35069C0F3062000FB8B
:104CC80003F05369C3F3416301335B00B0FBF3F0B6
:104CD80031E500BF00100240405600080024F400EF
:104CE8006E4BD3F88830002B02DBFFF741F922E541
:104CF800FEF740FD1FE5694BD3F8883013F44053A5
:104D080007D0B3F5805F07D0B3F5005F07D0002068
:104D180011E5FFF71DF90EE5FEF72CFD0BE503F194
:104D2800804303F5F8331B6813F4806F40F0AA80C2
:104D3800002000E5594BD3F8883013F4404307D0DE
:104D4800B3F5804F07D0B3F5004F07D00020F2E449
:104D5800FFF7FEF8EFE4FEF70DFDECE403F1804306
:104D680003F5C8331B6813F4806F40F08D80002072
:104D7800E1E4FFF7EDF8DEE4FEF7FCFCDBE403F129
:104D8800804303F580531B6813F4806F7ED10020A5
:104D9800D1E4424BD3F8883013F440230AD0B3F55A
:104DA800802F0AD0B3F5002F10D0B3F5402F14D0C0
:104DB8000020C0E4FFF7CCF8BDE4384AD2F89420CC
:104DC80012F0020FEED04FF4FA40B4E4334A1268FE
:104DD80012F4806FE9D03248ADE403F18043A3F5C3
:104DE8001F23D3F8903013F0020F51D10020A2E412
:104DF800FFF7AEF89FE4294AD2F8942012F0020F88
:104E08003FF457AD4FF4FA4095E4244A126812F47F
:104E1800806F3FF452AD22488DE4204BD3F8903098
:104E280013F0020F37D1002085E4FFF791F882E4F0
:104E38001B4880E41B487EE41B487CE400207AE49D
:104E4800002078E4002076E4002074E4002072E476
:104E5800002070E400206EE44FF400406BE44FF44F
:104E6800004068E44FF4004065E44FF4004062E419
:104E78004FF400405FE44FF400405CE400205AE443
:104E8800002058E4064856E4054854E4044852E42F
:104E98004FF400404FE44FF400404CE4001002404F
:104EA8000024F40090D0030068FF1F000E4B1B681D
:104EB8000E4AA2FB03231B0B9B0001680A6822F41D
:104EC80080320A603BB1013B0268126812F4803FED
:104ED800F8D100207047D0F8803043F04003C0F884
:104EE80080300320704700BF100000201BECCB95DA
:104EF800F8B5002800F0D680044690F87D300BB352
:104F08002046FFF7D3FF0546002840F0CD80022356
:104F180084F87D30E368012B1BD0022B17D00022C8
:104F2800A368022B17D0032B18D0012B1BD0002607
:104F380023685E498B4219D020318B4216D05C4BD6
:104F48001A6015E080F87C30FCF7FCFCD8E72022DA
:104F5800E6E71022E4E74FF40066E9E742F00102D1
:104F68004FF40066E4E74FF48066E1E7514B1A60BE
:104F7800E3691BB323684D4A934207D0203293421A
:104F880004D04FF48050FFF789FB03E04FF4006032
:104F9800FFF784FB00EB80004100E3695B02B1FB93
:104FA800F3F1454BA3FB0123DB08236203EB8300EA
:104FB80042008A1A082A01D901332362636833B18F
:104FC800022B04D0E36B012B69D0002704E0E36BCC
:104FD800012B62D04FF4007721680B68374A1A40DA
:104FE8000A6021680A686368206B0343606B0343A7
:104FF800A06B03433B433343606A03432069034385
:1050080060690343206A43EA005313430B60226834
:10501800536823F4604323F00F03536021684A6800
:10502800A369A06A0343E06A034313434B60226801
:105038009168234B0B40936020688268236C013B86
:10504800216D0B43A16C0B43E16C0B43616C01397F
:1050580043EA0123134383602268D36823F47D6302
:1050680023F00F031B041B0CD3602068C268636D18
:10507800A16D0B43216E43EA0143E16D013943EA17
:1050880001231343C3600023C4F88030012284F84D
:105098007D2084F87C302846F8BD00279CE74FF433
:1050A800007799E70125F6E70125F4E70454014064
:1050B8000058014000540140CDCCCCCC10C005FFB5
:1050C8000080F8FF10B4036A046A24F00104046243
:1050D800846924F0F00444EA021223F00A030B4323
:1050E800826103625DF8044B704710B4036A23F0D1
:1050F800100303628469036A24F4704444EA0232A8
:1051080023F0A00343EA0113826103625DF8044BB4
:105118007047836823F07003194341F007018160E9
:1051280070470000022380F83D3002689168094BFF
:105138000B40062B09D09168064B0B40B3F5803F16
:1051480003D0136843F001031360012380F83D3056
:105158000020704707000100022380F83D300368F3
:10516800196A41F21112114208D1196A40F24442F7
:10517800114203D11A6822F001021A60012380F853
:105188003D300020704700000268D36843F00103F7
:10519800D36002689168084B0B40062B09D09168D0
:1051A800054B0B40B3F5803F03D0136843F0010370
:1051B80013600020704700BF070001007047704768
:1051C8007047704710B5044603681A6912F0020F59
:1051D80011D0DA6812F0020F0DD06FF002021A61D6
:1051E8000123037703689B6913F0030F79D0FFF756
:1051F800E6FF0023237723681A6912F0040F12D000
:10520800DA6812F0040F0ED06FF004021A6102235C
:10521800237723689B6913F4407F68D02046FFF703
:10522800CEFF0023237723681A6912F0080F12D0E3
:10523800DA6812F0080F0ED06FF008021A61042322
:1052480023772368DB6913F0030F57D02046FFF755
:10525800B6FF0023237723681A6912F0100F12D0C3
:10526800DA6812F0100F0ED06FF010021A610823DE
:1052780023772368DB6913F4407F46D02046FFF785
:105288009EFF0023237723681A6912F0010F03D0C9
:10529800DA6812F0010F3FD123681A6912F0800F03
:1052A80003D0DA6812F0800F3DD123681A6912F42E
:1052B800807F03D0DA6812F0800F3BD123681A6927
:1052C80012F0400F03D0DA6812F0400F39D123688A
:1052D8001A6912F0200F03D0DA6812F0200F37D1C4
:1052E80010BDFFF76BFF2046FFF76AFF81E72046F6
:1052F800FFF764FF2046FFF763FF92E72046FFF7BA
:105308005DFF2046FFF75CFFA3E72046FFF756FF47
:105318002046FFF755FFB4E76FF001021A612046F7
:10532800FBF7AAFEB8E76FF080021A61204600F08A
:1053380050F9BAE76FF480721A61204600F04AF912
:10534800BCE76FF040021A612046FFF73AFFBEE75C
:105358006FF020021A61204600F03AF9C0E7000019
:105368000368304A904212D0B0F1804F0FD0A2F5B6
:10537800943290420BD002F58062904207D002F539
:105388008062904203D002F59432904203D123F018
:1053980070034A681343234A90421ED0B0F1804FED
:1053A8001BD0A2F59432904217D002F58062904249
:1053B80013D002F5806290420FD002F594329042E9
:1053C8000BD002F54062904207D002F5806290420D
:1053D80003D002F58062904203D123F44073CA6877
:1053E800134323F080034A69134303608B68C36245
:1053F8000B6883620B4B98420FD003F50063984209
:105408000BD003F54063984207D003F580639842B8
:1054180003D003F58063984201D10B69036301232C
:1054280043617047002C0140A8B110B5044690F8BC
:105438003D305BB1022384F83D30211D2068FFF721
:105448008FFF012384F83D30002010BD80F83C30E8
:10545800FCF748FAEEE70120704710B4846824F49A
:105468007F4442EA03230B43234383605DF8044BE4
:105478007047000090F83C30012B73D010B50446FB
:10548800012380F83C30022380F83D3002689068A0
:10549800354B034093600B68402B59D010D9702BC3
:1054A8003CD01BD8502B49D0602B30D1CA684968F2
:1054B8002068FFF71AFE60212068FFF72AFE26E021
:1054C800102B06D004D9202B03D0302B01D01EE09E
:1054D800EBB919462068FFF71CFE18E0B3F5805FAA
:1054E8000ED0B3F5005F12D1CB684A68896820688E
:1054F800FFF7B3FF2268936843F48043936006E0A4
:105508002268936823F4803323F007039360012310
:1055180084F83D30002084F83C0010BDCB684A6810
:1055280089682068FFF799FF2268936823F480331D
:1055380023F0770343F077039360E8E7CA68496884
:105548002068FFF7BFFD50212068FFF7E2FDDEE786
:10555800CA6849682068FFF7B5FD40212068FFF751
:10556800D8FDD4E7022070478800FEFF90F83C3051
:10557800012B28D030B4012380F83C30022380F876
:105588003D30026853689568104CA24203D004F578
:105598000064A24203D123F470034C68234323F030
:1055A80070030C68234325F0800489682143536005
:1055B80003689960012380F83D30002380F83C306F
:1055C800184630BC70470220704700BF002C0140CD
:1055D800704770477047000070B50D4E0D4CA41B06
:1055E800A4100025A54209D10B4E0C4C00F018F868
:1055F800A41BA4100025A54205D170BD56F825307E
:1056080098470135EEE756F8253098470135F2E717
:105618003057000830570008305700083457000842
:10562800F8B500BFF8BC08BC9E467047F8B500BF87
:08563800F8BC08BC9E46704757
:10564000A0860100400D0300801A060000350C0002
:1056500040420F0080841E0000093D0000127A00C5
:105660000024F40000366E010048E801006CDC0202
:105670000000000000000000010203040607080902
:105680000000000001020304443A2F446F6B756D63
:10569000656E74792F50726163615F696E7A796E9D
:1056A000696572736B612F536F6674776172652FD2
:1056B000746163746963616C5F6865616470686F6D
:1056C0006E65732F5372632F6D61696E2E630000D8
:1056D000443A2F446F6B756D656E74792F5072610B
:1056E00063615F696E7A796E696572736B612F535E
:1056F0006F6674776172652F746163746963616C3E
:105700005F6865616470686F6E65732F5372632F95
:1057100073746D33326C3478785F68616C5F6D736D
:08572000702E63000000000080
:08572800B8B3FF7F010000008F
:08573000AD01000800000000BB
:085738008901000800000000D7
:1057400005000500050000000000803F0500000086
:0857500000093D00000000000B
:0400000508000DB131
:00000001FF
